{
  "contractName": "Jokerzon",
  "abi": [
    {
      "inputs": [],
      "payable": false,
      "stateMutability": "nonpayable",
      "type": "constructor"
    },
    {
      "constant": true,
      "inputs": [
        {
          "internalType": "uint256",
          "name": "",
          "type": "uint256"
        }
      ],
      "name": "products",
      "outputs": [
        {
          "internalType": "string",
          "name": "sellerFullName",
          "type": "string"
        },
        {
          "internalType": "string",
          "name": "productName",
          "type": "string"
        },
        {
          "internalType": "string",
          "name": "description",
          "type": "string"
        },
        {
          "internalType": "uint256",
          "name": "price",
          "type": "uint256"
        },
        {
          "internalType": "string",
          "name": "city",
          "type": "string"
        },
        {
          "internalType": "string",
          "name": "country",
          "type": "string"
        },
        {
          "internalType": "uint256",
          "name": "estimatedDays",
          "type": "uint256"
        },
        {
          "internalType": "address payable",
          "name": "sellerAddress",
          "type": "address"
        },
        {
          "internalType": "uint256",
          "name": "productID",
          "type": "uint256"
        },
        {
          "internalType": "bool",
          "name": "isSold",
          "type": "bool"
        }
      ],
      "payable": false,
      "stateMutability": "view",
      "type": "function"
    },
    {
      "constant": true,
      "inputs": [
        {
          "internalType": "uint256",
          "name": "",
          "type": "uint256"
        }
      ],
      "name": "purchases",
      "outputs": [
        {
          "internalType": "string",
          "name": "sellerFullName",
          "type": "string"
        },
        {
          "internalType": "string",
          "name": "productName",
          "type": "string"
        },
        {
          "internalType": "string",
          "name": "description",
          "type": "string"
        },
        {
          "internalType": "uint256",
          "name": "price",
          "type": "uint256"
        },
        {
          "internalType": "string",
          "name": "city",
          "type": "string"
        },
        {
          "internalType": "string",
          "name": "country",
          "type": "string"
        },
        {
          "internalType": "uint256",
          "name": "estimatedDays",
          "type": "uint256"
        },
        {
          "internalType": "address payable",
          "name": "sellerAddress",
          "type": "address"
        },
        {
          "internalType": "uint256",
          "name": "productID",
          "type": "uint256"
        },
        {
          "internalType": "address payable",
          "name": "buyerAddress",
          "type": "address"
        },
        {
          "internalType": "uint256",
          "name": "dateOfPurchase",
          "type": "uint256"
        }
      ],
      "payable": false,
      "stateMutability": "view",
      "type": "function"
    },
    {
      "constant": false,
      "inputs": [
        {
          "internalType": "string",
          "name": "_sellerFullName",
          "type": "string"
        },
        {
          "internalType": "string",
          "name": "_productName",
          "type": "string"
        },
        {
          "internalType": "string",
          "name": "_description",
          "type": "string"
        },
        {
          "internalType": "uint256",
          "name": "_price",
          "type": "uint256"
        },
        {
          "internalType": "string",
          "name": "_city",
          "type": "string"
        },
        {
          "internalType": "string",
          "name": "_country",
          "type": "string"
        },
        {
          "internalType": "uint256",
          "name": "_estimatedDays",
          "type": "uint256"
        }
      ],
      "name": "addProduct",
      "outputs": [
        {
          "components": [
            {
              "internalType": "string",
              "name": "sellerFullName",
              "type": "string"
            },
            {
              "internalType": "string",
              "name": "productName",
              "type": "string"
            },
            {
              "internalType": "string",
              "name": "description",
              "type": "string"
            },
            {
              "internalType": "uint256",
              "name": "price",
              "type": "uint256"
            },
            {
              "internalType": "string",
              "name": "city",
              "type": "string"
            },
            {
              "internalType": "string",
              "name": "country",
              "type": "string"
            },
            {
              "internalType": "uint256",
              "name": "estimatedDays",
              "type": "uint256"
            },
            {
              "internalType": "address payable",
              "name": "sellerAddress",
              "type": "address"
            },
            {
              "internalType": "uint256",
              "name": "productID",
              "type": "uint256"
            },
            {
              "internalType": "bool",
              "name": "isSold",
              "type": "bool"
            }
          ],
          "internalType": "struct Jokerzon.Product",
          "name": "",
          "type": "tuple"
        }
      ],
      "payable": false,
      "stateMutability": "nonpayable",
      "type": "function"
    },
    {
      "constant": true,
      "inputs": [],
      "name": "totalProducts",
      "outputs": [
        {
          "internalType": "uint32",
          "name": "",
          "type": "uint32"
        }
      ],
      "payable": false,
      "stateMutability": "view",
      "type": "function"
    },
    {
      "constant": true,
      "inputs": [],
      "name": "getAllProducts",
      "outputs": [
        {
          "components": [
            {
              "internalType": "string",
              "name": "sellerFullName",
              "type": "string"
            },
            {
              "internalType": "string",
              "name": "productName",
              "type": "string"
            },
            {
              "internalType": "string",
              "name": "description",
              "type": "string"
            },
            {
              "internalType": "uint256",
              "name": "price",
              "type": "uint256"
            },
            {
              "internalType": "string",
              "name": "city",
              "type": "string"
            },
            {
              "internalType": "string",
              "name": "country",
              "type": "string"
            },
            {
              "internalType": "uint256",
              "name": "estimatedDays",
              "type": "uint256"
            },
            {
              "internalType": "address payable",
              "name": "sellerAddress",
              "type": "address"
            },
            {
              "internalType": "uint256",
              "name": "productID",
              "type": "uint256"
            },
            {
              "internalType": "bool",
              "name": "isSold",
              "type": "bool"
            }
          ],
          "internalType": "struct Jokerzon.Product[]",
          "name": "",
          "type": "tuple[]"
        }
      ],
      "payable": false,
      "stateMutability": "view",
      "type": "function"
    },
    {
      "constant": false,
      "inputs": [
        {
          "internalType": "string",
          "name": "_sellerFullName",
          "type": "string"
        },
        {
          "internalType": "string",
          "name": "_productName",
          "type": "string"
        },
        {
          "internalType": "string",
          "name": "_description",
          "type": "string"
        },
        {
          "internalType": "uint256",
          "name": "_price",
          "type": "uint256"
        },
        {
          "internalType": "string",
          "name": "_city",
          "type": "string"
        },
        {
          "internalType": "string",
          "name": "_country",
          "type": "string"
        },
        {
          "internalType": "uint256",
          "name": "_estimatedDays",
          "type": "uint256"
        },
        {
          "internalType": "address payable",
          "name": "_sellerAddress",
          "type": "address"
        },
        {
          "internalType": "uint256",
          "name": "_productID",
          "type": "uint256"
        }
      ],
      "name": "addPurchase",
      "outputs": [],
      "payable": true,
      "stateMutability": "payable",
      "type": "function"
    },
    {
      "constant": true,
      "inputs": [],
      "name": "getAllPurchases",
      "outputs": [
        {
          "components": [
            {
              "internalType": "string",
              "name": "sellerFullName",
              "type": "string"
            },
            {
              "internalType": "string",
              "name": "productName",
              "type": "string"
            },
            {
              "internalType": "string",
              "name": "description",
              "type": "string"
            },
            {
              "internalType": "uint256",
              "name": "price",
              "type": "uint256"
            },
            {
              "internalType": "string",
              "name": "city",
              "type": "string"
            },
            {
              "internalType": "string",
              "name": "country",
              "type": "string"
            },
            {
              "internalType": "uint256",
              "name": "estimatedDays",
              "type": "uint256"
            },
            {
              "internalType": "address payable",
              "name": "sellerAddress",
              "type": "address"
            },
            {
              "internalType": "uint256",
              "name": "productID",
              "type": "uint256"
            },
            {
              "internalType": "address payable",
              "name": "buyerAddress",
              "type": "address"
            },
            {
              "internalType": "uint256",
              "name": "dateOfPurchase",
              "type": "uint256"
            }
          ],
          "internalType": "struct Jokerzon.Purchase[]",
          "name": "",
          "type": "tuple[]"
        }
      ],
      "payable": false,
      "stateMutability": "view",
      "type": "function"
    },
    {
      "constant": true,
      "inputs": [
        {
          "internalType": "uint256",
          "name": "index",
          "type": "uint256"
        }
      ],
      "name": "getProductById",
      "outputs": [
        {
          "components": [
            {
              "internalType": "string",
              "name": "sellerFullName",
              "type": "string"
            },
            {
              "internalType": "string",
              "name": "productName",
              "type": "string"
            },
            {
              "internalType": "string",
              "name": "description",
              "type": "string"
            },
            {
              "internalType": "uint256",
              "name": "price",
              "type": "uint256"
            },
            {
              "internalType": "string",
              "name": "city",
              "type": "string"
            },
            {
              "internalType": "string",
              "name": "country",
              "type": "string"
            },
            {
              "internalType": "uint256",
              "name": "estimatedDays",
              "type": "uint256"
            },
            {
              "internalType": "address payable",
              "name": "sellerAddress",
              "type": "address"
            },
            {
              "internalType": "uint256",
              "name": "productID",
              "type": "uint256"
            },
            {
              "internalType": "bool",
              "name": "isSold",
              "type": "bool"
            }
          ],
          "internalType": "struct Jokerzon.Product",
          "name": "",
          "type": "tuple"
        }
      ],
      "payable": false,
      "stateMutability": "view",
      "type": "function"
    }
  ],
  "bytecode": "0x608060405234801561001057600080fd5b5060008081905550613069806100276000396000f3fe60806040526004361061007b5760003560e01c80637022d33c1161004e5780637022d33c146101505780637acc0b201461016c5780638392fe31146101b25780639b9d326d146101f95761007b565b806302ee3a52146100805780632bbbe572146100ab5780633f70c2b4146100e857806350b3967d14610125575b600080fd5b34801561008c57600080fd5b50610095610224565b6040516100a29190612b27565b60405180910390f35b3480156100b757600080fd5b506100d260048036036100cd9190810190612030565b61063d565b6040516100df9190612e18565b60405180910390f35b3480156100f457600080fd5b5061010f600480360361010a9190810190612284565b6108f4565b60405161011c9190612e18565b60405180910390f35b34801561013157600080fd5b5061013a610d04565b6040516101479190612b49565b60405180910390f35b61016a60048036036101659190810190612146565b611162565b005b34801561017857600080fd5b50610193600480360361018e9190810190612284565b61163b565b6040516101a99a99989796959493929190612c39565b60405180910390f35b3480156101be57600080fd5b506101d960048036036101d49190810190612284565b6119c1565b6040516101f09b9a99989796959493929190612b6b565b60405180910390f35b34801561020557600080fd5b5061020e611d60565b60405161021b9190612e3a565b60405180910390f35b60606001805480602002602001604051908101604052809291908181526020016000905b8282101561063457838290600052602060002090600a020160405180610140016040529081600082018054600181600116156101000203166002900480601f0160208091040260200160405190810160405280929190818152602001828054600181600116156101000203166002900480156103055780601f106102da57610100808354040283529160200191610305565b820191906000526020600020905b8154815290600101906020018083116102e857829003601f168201915b50505050508152602001600182018054600181600116156101000203166002900480601f0160208091040260200160405190810160405280929190818152602001828054600181600116156101000203166002900480156103a75780601f1061037c576101008083540402835291602001916103a7565b820191906000526020600020905b81548152906001019060200180831161038a57829003601f168201915b50505050508152602001600282018054600181600116156101000203166002900480601f0160208091040260200160405190810160405280929190818152602001828054600181600116156101000203166002900480156104495780601f1061041e57610100808354040283529160200191610449565b820191906000526020600020905b81548152906001019060200180831161042c57829003601f168201915b5050505050815260200160038201548152602001600482018054600181600116156101000203166002900480601f0160208091040260200160405190810160405280929190818152602001828054600181600116156101000203166002900480156104f55780601f106104ca576101008083540402835291602001916104f5565b820191906000526020600020905b8154815290600101906020018083116104d857829003601f168201915b50505050508152602001600582018054600181600116156101000203166002900480601f0160208091040260200160405190810160405280929190818152602001828054600181600116156101000203166002900480156105975780601f1061056c57610100808354040283529160200191610597565b820191906000526020600020905b81548152906001019060200180831161057a57829003601f168201915b50505050508152602001600682015481526020016007820160009054906101000a900473ffffffffffffffffffffffffffffffffffffffff1673ffffffffffffffffffffffffffffffffffffffff1673ffffffffffffffffffffffffffffffffffffffff168152602001600882015481526020016009820160009054906101000a900460ff16151515158152505081526020019060010190610248565b50505050905090565b610645611e1c565b600488511015801561065957506014885111155b61066257600080fd5b600387511015801561067657506028875111155b61067f57600080fd5b600586511015801561069457506103e8865111155b61069d57600080fd5b60008451116106ab57600080fd5b60008351116106b957600080fd5b6000851180156106cb5750620f424085105b6106d457600080fd5b600182101580156106e65750603c8211155b6106ef57600080fd5b6106f7611e1c565b88816000018190525087816020018190525086816040018190525085816060018181525050848160800181905250838160a00181905250828160c0018181525050338160e0019073ffffffffffffffffffffffffffffffffffffffff16908173ffffffffffffffffffffffffffffffffffffffff168152505060008161012001901515908115158152505060008081548092919060010191905055816101000181815250506001819080600181540180825580915050906001820390600052602060002090600a02016000909192909190915060008201518160000190805190602001906107e6929190611e87565b506020820151816001019080519060200190610803929190611e87565b506040820151816002019080519060200190610820929190611e87565b50606082015181600301556080820151816004019080519060200190610847929190611e87565b5060a0820151816005019080519060200190610864929190611e87565b5060c0820151816006015560e08201518160070160006101000a81548173ffffffffffffffffffffffffffffffffffffffff021916908373ffffffffffffffffffffffffffffffffffffffff16021790555061010082015181600801556101208201518160090160006101000a81548160ff02191690831515021790555050505080915050979650505050505050565b6108fc611e1c565b60008210158015610914575060018080549050038211155b61091d57600080fd5b6001828154811061092a57fe5b90600052602060002090600a020160405180610140016040529081600082018054600181600116156101000203166002900480601f0160208091040260200160405190810160405280929190818152602001828054600181600116156101000203166002900480156109dd5780601f106109b2576101008083540402835291602001916109dd565b820191906000526020600020905b8154815290600101906020018083116109c057829003601f168201915b50505050508152602001600182018054600181600116156101000203166002900480601f016020809104026020016040519081016040528092919081815260200182805460018160011615610100020316600290048015610a7f5780601f10610a5457610100808354040283529160200191610a7f565b820191906000526020600020905b815481529060010190602001808311610a6257829003601f168201915b50505050508152602001600282018054600181600116156101000203166002900480601f016020809104026020016040519081016040528092919081815260200182805460018160011615610100020316600290048015610b215780601f10610af657610100808354040283529160200191610b21565b820191906000526020600020905b815481529060010190602001808311610b0457829003601f168201915b5050505050815260200160038201548152602001600482018054600181600116156101000203166002900480601f016020809104026020016040519081016040528092919081815260200182805460018160011615610100020316600290048015610bcd5780601f10610ba257610100808354040283529160200191610bcd565b820191906000526020600020905b815481529060010190602001808311610bb057829003601f168201915b50505050508152602001600582018054600181600116156101000203166002900480601f016020809104026020016040519081016040528092919081815260200182805460018160011615610100020316600290048015610c6f5780601f10610c4457610100808354040283529160200191610c6f565b820191906000526020600020905b815481529060010190602001808311610c5257829003601f168201915b50505050508152602001600682015481526020016007820160009054906101000a900473ffffffffffffffffffffffffffffffffffffffff1673ffffffffffffffffffffffffffffffffffffffff1673ffffffffffffffffffffffffffffffffffffffff168152602001600882015481526020016009820160009054906101000a900460ff1615151515815250509050919050565b60606002805480602002602001604051908101604052809291908181526020016000905b8282101561115957838290600052602060002090600b020160405180610160016040529081600082018054600181600116156101000203166002900480601f016020809104026020016040519081016040528092919081815260200182805460018160011615610100020316600290048015610de55780601f10610dba57610100808354040283529160200191610de5565b820191906000526020600020905b815481529060010190602001808311610dc857829003601f168201915b50505050508152602001600182018054600181600116156101000203166002900480601f016020809104026020016040519081016040528092919081815260200182805460018160011615610100020316600290048015610e875780601f10610e5c57610100808354040283529160200191610e87565b820191906000526020600020905b815481529060010190602001808311610e6a57829003601f168201915b50505050508152602001600282018054600181600116156101000203166002900480601f016020809104026020016040519081016040528092919081815260200182805460018160011615610100020316600290048015610f295780601f10610efe57610100808354040283529160200191610f29565b820191906000526020600020905b815481529060010190602001808311610f0c57829003601f168201915b5050505050815260200160038201548152602001600482018054600181600116156101000203166002900480601f016020809104026020016040519081016040528092919081815260200182805460018160011615610100020316600290048015610fd55780601f10610faa57610100808354040283529160200191610fd5565b820191906000526020600020905b815481529060010190602001808311610fb857829003601f168201915b50505050508152602001600582018054600181600116156101000203166002900480601f0160208091040260200160405190810160405280929190818152602001828054600181600116156101000203166002900480156110775780601f1061104c57610100808354040283529160200191611077565b820191906000526020600020905b81548152906001019060200180831161105a57829003601f168201915b50505050508152602001600682015481526020016007820160009054906101000a900473ffffffffffffffffffffffffffffffffffffffff1673ffffffffffffffffffffffffffffffffffffffff1673ffffffffffffffffffffffffffffffffffffffff168152602001600882015481526020016009820160009054906101000a900473ffffffffffffffffffffffffffffffffffffffff1673ffffffffffffffffffffffffffffffffffffffff1673ffffffffffffffffffffffffffffffffffffffff168152602001600a8201548152505081526020019060010190610d28565b50505050905090565b61116b81611d6d565b156111ab576040517f08c379a00000000000000000000000000000000000000000000000000000000081526004016111a290612dd8565b60405180910390fd5b60048951101580156111bf57506014895111155b6111fe576040517f08c379a00000000000000000000000000000000000000000000000000000000081526004016111f590612d18565b60405180910390fd5b600388511015801561121257506028885111155b611251576040517f08c379a000000000000000000000000000000000000000000000000000000000815260040161124890612df8565b60405180910390fd5b600587511015801561126657506103e8875111155b6112a5576040517f08c379a000000000000000000000000000000000000000000000000000000000815260040161129c90612db8565b60405180910390fd5b60008551116112e9576040517f08c379a00000000000000000000000000000000000000000000000000000000081526004016112e090612cf8565b60405180910390fd5b600084511161132d576040517f08c379a000000000000000000000000000000000000000000000000000000000815260040161132490612d78565b60405180910390fd5b60008611801561133f5750620f424086105b61137e576040517f08c379a000000000000000000000000000000000000000000000000000000000815260040161137590612d58565b60405180910390fd5b600183101580156113905750603c8311155b6113cf576040517f08c379a00000000000000000000000000000000000000000000000000000000081526004016113c690612d38565b60405180910390fd5b853373ffffffffffffffffffffffffffffffffffffffff16311015611429576040517f08c379a000000000000000000000000000000000000000000000000000000000815260040161142090612d98565b60405180910390fd5b611431611f07565b6040518061016001604052808b81526020018a81526020018981526020018881526020018781526020018681526020018581526020018473ffffffffffffffffffffffffffffffffffffffff1681526020018381526020013373ffffffffffffffffffffffffffffffffffffffff1681526020014281525090506114b482611dc2565b6002819080600181540180825580915050906001820390600052602060002090600b02016000909192909190915060008201518160000190805190602001906114fe929190611e87565b50602082015181600101908051906020019061151b929190611e87565b506040820151816002019080519060200190611538929190611e87565b5060608201518160030155608082015181600401908051906020019061155f929190611e87565b5060a082015181600501908051906020019061157c929190611e87565b5060c0820151816006015560e08201518160070160006101000a81548173ffffffffffffffffffffffffffffffffffffffff021916908373ffffffffffffffffffffffffffffffffffffffff16021790555061010082015181600801556101208201518160090160006101000a81548173ffffffffffffffffffffffffffffffffffffffff021916908373ffffffffffffffffffffffffffffffffffffffff16021790555061014082015181600a015550505050505050505050505050565b6001818154811061164857fe5b90600052602060002090600a0201600091509050806000018054600181600116156101000203166002900480601f0160208091040260200160405190810160405280929190818152602001828054600181600116156101000203166002900480156116f45780601f106116c9576101008083540402835291602001916116f4565b820191906000526020600020905b8154815290600101906020018083116116d757829003601f168201915b505050505090806001018054600181600116156101000203166002900480601f0160208091040260200160405190810160405280929190818152602001828054600181600116156101000203166002900480156117925780601f1061176757610100808354040283529160200191611792565b820191906000526020600020905b81548152906001019060200180831161177557829003601f168201915b505050505090806002018054600181600116156101000203166002900480601f0160208091040260200160405190810160405280929190818152602001828054600181600116156101000203166002900480156118305780601f1061180557610100808354040283529160200191611830565b820191906000526020600020905b81548152906001019060200180831161181357829003601f168201915b505050505090806003015490806004018054600181600116156101000203166002900480601f0160208091040260200160405190810160405280929190818152602001828054600181600116156101000203166002900480156118d45780601f106118a9576101008083540402835291602001916118d4565b820191906000526020600020905b8154815290600101906020018083116118b757829003601f168201915b505050505090806005018054600181600116156101000203166002900480601f0160208091040260200160405190810160405280929190818152602001828054600181600116156101000203166002900480156119725780601f1061194757610100808354040283529160200191611972565b820191906000526020600020905b81548152906001019060200180831161195557829003601f168201915b5050505050908060060154908060070160009054906101000a900473ffffffffffffffffffffffffffffffffffffffff16908060080154908060090160009054906101000a900460ff1690508a565b600281815481106119ce57fe5b90600052602060002090600b0201600091509050806000018054600181600116156101000203166002900480601f016020809104026020016040519081016040528092919081815260200182805460018160011615610100020316600290048015611a7a5780601f10611a4f57610100808354040283529160200191611a7a565b820191906000526020600020905b815481529060010190602001808311611a5d57829003601f168201915b505050505090806001018054600181600116156101000203166002900480601f016020809104026020016040519081016040528092919081815260200182805460018160011615610100020316600290048015611b185780601f10611aed57610100808354040283529160200191611b18565b820191906000526020600020905b815481529060010190602001808311611afb57829003601f168201915b505050505090806002018054600181600116156101000203166002900480601f016020809104026020016040519081016040528092919081815260200182805460018160011615610100020316600290048015611bb65780601f10611b8b57610100808354040283529160200191611bb6565b820191906000526020600020905b815481529060010190602001808311611b9957829003601f168201915b505050505090806003015490806004018054600181600116156101000203166002900480601f016020809104026020016040519081016040528092919081815260200182805460018160011615610100020316600290048015611c5a5780601f10611c2f57610100808354040283529160200191611c5a565b820191906000526020600020905b815481529060010190602001808311611c3d57829003601f168201915b505050505090806005018054600181600116156101000203166002900480601f016020809104026020016040519081016040528092919081815260200182805460018160011615610100020316600290048015611cf85780601f10611ccd57610100808354040283529160200191611cf8565b820191906000526020600020905b815481529060010190602001808311611cdb57829003601f168201915b5050505050908060060154908060070160009054906101000a900473ffffffffffffffffffffffffffffffffffffffff16908060080154908060090160009054906101000a900473ffffffffffffffffffffffffffffffffffffffff169080600a015490508b565b6000600180549050905090565b6000808210158015611d86575060018080549050038211155b611d8f57600080fd5b60018281548110611d9c57fe5b90600052602060002090600a020160090160009054906101000a900460ff169050919050565b60008110158015611dda575060018080549050038111155b611de357600080fd5b6001808281548110611df157fe5b90600052602060002090600a020160090160006101000a81548160ff02191690831515021790555050565b60405180610140016040528060608152602001606081526020016060815260200160008152602001606081526020016060815260200160008152602001600073ffffffffffffffffffffffffffffffffffffffff168152602001600081526020016000151581525090565b828054600181600116156101000203166002900490600052602060002090601f016020900481019282601f10611ec857805160ff1916838001178555611ef6565b82800160010185558215611ef6579182015b82811115611ef5578251825591602001919060010190611eda565b5b509050611f039190611f8d565b5090565b60405180610160016040528060608152602001606081526020016060815260200160008152602001606081526020016060815260200160008152602001600073ffffffffffffffffffffffffffffffffffffffff16815260200160008152602001600073ffffffffffffffffffffffffffffffffffffffff168152602001600081525090565b611faf91905b80821115611fab576000816000905550600101611f93565b5090565b90565b600081359050611fc181612ff8565b92915050565b600082601f830112611fd857600080fd5b8135611feb611fe682612e82565b612e55565b9150808252602083016020830185838301111561200757600080fd5b612012838284612fa5565b50505092915050565b60008135905061202a8161300f565b92915050565b600080600080600080600060e0888a03121561204b57600080fd5b600088013567ffffffffffffffff81111561206557600080fd5b6120718a828b01611fc7565b975050602088013567ffffffffffffffff81111561208e57600080fd5b61209a8a828b01611fc7565b965050604088013567ffffffffffffffff8111156120b757600080fd5b6120c38a828b01611fc7565b95505060606120d48a828b0161201b565b945050608088013567ffffffffffffffff8111156120f157600080fd5b6120fd8a828b01611fc7565b93505060a088013567ffffffffffffffff81111561211a57600080fd5b6121268a828b01611fc7565b92505060c06121378a828b0161201b565b91505092959891949750929550565b60008060008060008060008060006101208a8c03121561216557600080fd5b60008a013567ffffffffffffffff81111561217f57600080fd5b61218b8c828d01611fc7565b99505060208a013567ffffffffffffffff8111156121a857600080fd5b6121b48c828d01611fc7565b98505060408a013567ffffffffffffffff8111156121d157600080fd5b6121dd8c828d01611fc7565b97505060606121ee8c828d0161201b565b96505060808a013567ffffffffffffffff81111561220b57600080fd5b6122178c828d01611fc7565b95505060a08a013567ffffffffffffffff81111561223457600080fd5b6122408c828d01611fc7565b94505060c06122518c828d0161201b565b93505060e06122628c828d01611fb2565b9250506101006122748c828d0161201b565b9150509295985092959850929598565b60006020828403121561229657600080fd5b60006122a48482850161201b565b91505092915050565b60006122b983836128f9565b905092915050565b60006122cd83836129ef565b905092915050565b6122de81612f4d565b82525050565b6122ed81612f4d565b82525050565b60006122fe82612ece565b6123088185612f09565b93508360208202850161231a85612eae565b8060005b85811015612356578484038952815161233785826122ad565b945061234283612eef565b925060208a0199505060018101905061231e565b50829750879550505050505092915050565b600061237382612ed9565b61237d8185612f1a565b93508360208202850161238f85612ebe565b8060005b858110156123cb57848403895281516123ac85826122c1565b94506123b783612efc565b925060208a01995050600181019050612393565b50829750879550505050505092915050565b6123e681612f5f565b82525050565b6123f581612f5f565b82525050565b600061240682612ee4565b6124108185612f2b565b9350612420818560208601612fb4565b61242981612fe7565b840191505092915050565b600061243f82612ee4565b6124498185612f3c565b9350612459818560208601612fb4565b61246281612fe7565b840191505092915050565b600061247a602283612f3c565b91507f63697479206d757374206265206174206c65617374203020636861726163746560008301527f72730000000000000000000000000000000000000000000000000000000000006020830152604082019050919050565b60006124e0603c83612f3c565b91507f53656c6c6572206e616d65206d757374206265206174206c656173742034206360008301527f68617261637465727320616e6420617420746865206d6f7374203230000000006020830152604082019050919050565b6000612546603483612f3c565b91507f457374696d617465642064617573206d757374206265206174206c656173742060008301527f3120616e6420617420746865206d6f73742036300000000000000000000000006020830152604082019050919050565b60006125ac603083612f3c565b91507f7072696365206d757374206265206174206c65617374203020616e642061742060008301527f746865206d6f73742031303030303030000000000000000000000000000000006020830152604082019050919050565b6000612612602583612f3c565b91507f636f756e747279206d757374206265206174206c65617374203020636861726160008301527f63746572730000000000000000000000000000000000000000000000000000006020830152604082019050919050565b6000612678602183612f3c565b91507f596f75277665206e6f7420656e6f756768206d6f6e657920627275686868203a60008301527f28000000000000000000000000000000000000000000000000000000000000006020830152604082019050919050565b60006126de603e83612f3c565b91507f6465736372697074696f6e206d757374206265206174206c656173742035206360008301527f68617261637465727320616e6420617420746865206d6f7374203130303000006020830152604082019050919050565b6000612744602683612f3c565b91507f5468652070726f647563742068617320616c7265616479206265656e2070757260008301527f63686173656400000000000000000000000000000000000000000000000000006020830152604082019050919050565b60006127aa603d83612f3c565b91507f70726f64756374206e616d65206d757374206265206174206c6561737420332060008301527f6368617261637465727320616e6420617420746865206d6f73742034300000006020830152604082019050919050565b600061014083016000830151848203600086015261282182826123fb565b9150506020830151848203602086015261283b82826123fb565b9150506040830151848203604086015261285582826123fb565b915050606083015161286a6060860182612afa565b506080830151848203608086015261288282826123fb565b91505060a083015184820360a086015261289c82826123fb565b91505060c08301516128b160c0860182612afa565b5060e08301516128c460e08601826122d5565b506101008301516128d9610100860182612afa565b506101208301516128ee6101208601826123dd565b508091505092915050565b600061014083016000830151848203600086015261291782826123fb565b9150506020830151848203602086015261293182826123fb565b9150506040830151848203604086015261294b82826123fb565b91505060608301516129606060860182612afa565b506080830151848203608086015261297882826123fb565b91505060a083015184820360a086015261299282826123fb565b91505060c08301516129a760c0860182612afa565b5060e08301516129ba60e08601826122d5565b506101008301516129cf610100860182612afa565b506101208301516129e46101208601826123dd565b508091505092915050565b6000610160830160008301518482036000860152612a0d82826123fb565b91505060208301518482036020860152612a2782826123fb565b91505060408301518482036040860152612a4182826123fb565b9150506060830151612a566060860182612afa565b5060808301518482036080860152612a6e82826123fb565b91505060a083015184820360a0860152612a8882826123fb565b91505060c0830151612a9d60c0860182612afa565b5060e0830151612ab060e08601826122d5565b50610100830151612ac5610100860182612afa565b50610120830151612ada6101208601826122d5565b50610140830151612aef610140860182612afa565b508091505092915050565b612b0381612f8b565b82525050565b612b1281612f8b565b82525050565b612b2181612f95565b82525050565b60006020820190508181036000830152612b4181846122f3565b905092915050565b60006020820190508181036000830152612b638184612368565b905092915050565b6000610160820190508181036000830152612b86818e612434565b90508181036020830152612b9a818d612434565b90508181036040830152612bae818c612434565b9050612bbd606083018b612b09565b8181036080830152612bcf818a612434565b905081810360a0830152612be38189612434565b9050612bf260c0830188612b09565b612bff60e08301876122e4565b612c0d610100830186612b09565b612c1b6101208301856122e4565b612c29610140830184612b09565b9c9b505050505050505050505050565b6000610140820190508181036000830152612c54818d612434565b90508181036020830152612c68818c612434565b90508181036040830152612c7c818b612434565b9050612c8b606083018a612b09565b8181036080830152612c9d8189612434565b905081810360a0830152612cb18188612434565b9050612cc060c0830187612b09565b612ccd60e08301866122e4565b612cdb610100830185612b09565b612ce96101208301846123ec565b9b9a5050505050505050505050565b60006020820190508181036000830152612d118161246d565b9050919050565b60006020820190508181036000830152612d31816124d3565b9050919050565b60006020820190508181036000830152612d5181612539565b9050919050565b60006020820190508181036000830152612d718161259f565b9050919050565b60006020820190508181036000830152612d9181612605565b9050919050565b60006020820190508181036000830152612db18161266b565b9050919050565b60006020820190508181036000830152612dd1816126d1565b9050919050565b60006020820190508181036000830152612df181612737565b9050919050565b60006020820190508181036000830152612e118161279d565b9050919050565b60006020820190508181036000830152612e328184612803565b905092915050565b6000602082019050612e4f6000830184612b18565b92915050565b6000604051905081810181811067ffffffffffffffff82111715612e7857600080fd5b8060405250919050565b600067ffffffffffffffff821115612e9957600080fd5b601f19601f8301169050602081019050919050565b6000819050602082019050919050565b6000819050602082019050919050565b600081519050919050565b600081519050919050565b600081519050919050565b6000602082019050919050565b6000602082019050919050565b600082825260208201905092915050565b600082825260208201905092915050565b600082825260208201905092915050565b600082825260208201905092915050565b6000612f5882612f6b565b9050919050565b60008115159050919050565b600073ffffffffffffffffffffffffffffffffffffffff82169050919050565b6000819050919050565b600063ffffffff82169050919050565b82818337600083830152505050565b60005b83811015612fd2578082015181840152602081019050612fb7565b83811115612fe1576000848401525b50505050565b6000601f19601f8301169050919050565b61300181612f4d565b811461300c57600080fd5b50565b61301881612f8b565b811461302357600080fd5b5056fea365627a7a72315820289ca7f791c489fdd1d416ff270e85f501f8cf8218cc1af7a672137eb35545de6c6578706572696d656e74616cf564736f6c63430005100040",
  "source": "pragma solidity >=0.4.21 <0.7.5;\r\npragma experimental ABIEncoderV2;\r\n\r\n//There is only one Jokerzon cotract\r\n//contains all the purchases that has been committed\r\ncontract Jokerzon {\r\n    uint256 count;\r\n    Product[] public products;\r\n    Purchase[] public purchases;\r\n    /**\r\n     * Product section\r\n     */\r\n    // The product seller is msg.sender\r\n    // The product is not yet sold\r\n    struct Product {\r\n        string sellerFullName;\r\n        string productName;\r\n        string description;\r\n        uint256 price;\r\n        string city;\r\n        string country;\r\n        uint256 estimatedDays;\r\n        address payable sellerAddress;\r\n        uint256 productID;\r\n        bool isSold;\r\n    }\r\n\r\n    constructor() public {\r\n        count = 0;\r\n    }\r\n\r\n    function addProduct(\r\n        string memory _sellerFullName,\r\n        string memory _productName,\r\n        string memory _description,\r\n        uint256 _price,\r\n        string memory _city,\r\n        string memory _country,\r\n        uint256 _estimatedDays\r\n    ) public returns (Product memory) {\r\n        // Validating that all the fields are valid\r\n        require(\r\n            bytes(_sellerFullName).length >= 4 &&\r\n                bytes(_sellerFullName).length <= 20\r\n        );\r\n        require(\r\n            bytes(_productName).length >= 3 && bytes(_productName).length <= 40\r\n        );\r\n        require(\r\n            bytes(_description).length >= 5 &&\r\n                bytes(_description).length <= 1000\r\n        );\r\n        require(bytes(_city).length > 0);\r\n        require(bytes(_country).length > 0);\r\n        require(_price > 0 && _price < 1000000);\r\n        require(_estimatedDays >= 1 && _estimatedDays <= 60);\r\n        // Creating the new product after being validated\r\n        Product memory newProduct;\r\n        newProduct.sellerFullName = _sellerFullName;\r\n        newProduct.productName = _productName;\r\n        newProduct.description = _description;\r\n        newProduct.price = _price;\r\n        newProduct.city = _city;\r\n        newProduct.country = _country;\r\n        newProduct.estimatedDays = _estimatedDays;\r\n        newProduct.sellerAddress = msg.sender;\r\n        newProduct.isSold = false;\r\n        newProduct.productID = count++;\r\n        products.push(newProduct);\r\n        return newProduct;\r\n    }\r\n\r\n    function totalProducts() public view returns (uint32) {\r\n        return (uint32)(products.length);\r\n    }\r\n\r\n    // Returns all the prouducts in the jokerzon contract\r\n    function getAllProducts() external view returns (Product[] memory) {\r\n        return products;\r\n    }\r\n\r\n    /**\r\n     * Product section\r\n     */\r\n    /**\r\n     * Purchase section\r\n     */\r\n    struct Purchase {\r\n        string sellerFullName;\r\n        string productName;\r\n        string description;\r\n        uint256 price;\r\n        string city;\r\n        string country;\r\n        uint256 estimatedDays;\r\n        address payable sellerAddress;\r\n        uint256 productID;\r\n        address payable buyerAddress;\r\n        uint256 dateOfPurchase;\r\n    }\r\n\r\n    function addPurchase(\r\n        string memory _sellerFullName,\r\n        string memory _productName,\r\n        string memory _description,\r\n        uint256 _price,\r\n        string memory _city,\r\n        string memory _country,\r\n        uint256 _estimatedDays,\r\n        address payable _sellerAddress,\r\n        uint256 _productID\r\n    ) public payable {\r\n        require(\r\n            !checkIfSold(_productID),\r\n            \"The product has already been purchased\"\r\n        );\r\n        // Validating that all the fields are valid\r\n        require(\r\n            bytes(_sellerFullName).length >= 4 &&\r\n                bytes(_sellerFullName).length <= 20,\r\n            \"Seller name must be at least 4 characters and at the most 20\"\r\n        );\r\n        require(\r\n            bytes(_productName).length >= 3 && bytes(_productName).length <= 40,\r\n            \"product name must be at least 3 characters and at the most 40\"\r\n        );\r\n        require(\r\n            bytes(_description).length >= 5 &&\r\n                bytes(_description).length <= 1000,\r\n            \"description must be at least 5 characters and at the most 1000\"\r\n        );\r\n        require(bytes(_city).length > 0, \"city must be at least 0 characters\");\r\n        require(\r\n            bytes(_country).length > 0,\r\n            \"country must be at least 0 characters\"\r\n        );\r\n        require(\r\n            _price > 0 && _price < 1000000,\r\n            \"price must be at least 0 and at the most 1000000\"\r\n        );\r\n        require(\r\n            _estimatedDays >= 1 && _estimatedDays <= 60,\r\n            \"Estimated daus must be at least 1 and at the most 60\"\r\n        );\r\n        //Checking if the buyer has enough money to commit for the TX\r\n        require(\r\n            msg.sender.balance >= _price,\r\n            \"You've not enough money bruhhh :(\"\r\n        );\r\n\r\n        Purchase memory newPurchase =\r\n            Purchase(\r\n                _sellerFullName,\r\n                _productName,\r\n                _description,\r\n                _price,\r\n                _city,\r\n                _country,\r\n                _estimatedDays,\r\n                _sellerAddress,\r\n                _productID,\r\n                msg.sender,\r\n                block.timestamp\r\n            );\r\n        setSoldById(_productID);\r\n        //The product sold for the buyer, then transfer money [Seller] -> [Buyer]\r\n        purchases.push(newPurchase);\r\n    }\r\n\r\n    function getAllPurchases() external view returns (Purchase[] memory) {\r\n        return purchases;\r\n    }\r\n\r\n    // Returning the product by the id in Jokerzon contract\r\n    function getProductById(uint256 index)\r\n        external\r\n        view\r\n        returns (Product memory)\r\n    {\r\n        require(index >= 0 && index <= products.length - 1);\r\n        return products[index];\r\n    }\r\n\r\n    function setSoldById(uint256 index) internal {\r\n        require(index >= 0 && index <= products.length - 1);\r\n        products[index].isSold = true;\r\n    }\r\n\r\n    function checkIfSold(uint256 index) internal view returns (bool) {\r\n        require(index >= 0 && index <= products.length - 1);\r\n        return products[index].isSold;\r\n    }\r\n}\r\n",
  "sourcePath": "C:/Users//Desktop/Blockchain/Jokerzon/contracts/Jokerzon.sol",
  "compiler": {
    "name": "solc",
    "version": "0.5.16+commit.9c3226ce.Emscripten.clang"
  },
  "schemaVersion": "3.3.3",
  "updatedAt": "2021-02-15T09:39:36.572Z",
  "networkType": "ethereum",
  "devdoc": {
    "methods": {}
  },
  "userdoc": {
    "methods": {}
  }
}