{
  "contractName": "Jokerzon",
  "abi": [
    {
      "inputs": [],
      "payable": false,
      "stateMutability": "nonpayable",
      "type": "constructor"
    },
    {
      "constant": true,
      "inputs": [
        {
          "internalType": "uint256",
          "name": "",
          "type": "uint256"
        }
      ],
      "name": "products",
      "outputs": [
        {
          "internalType": "string",
          "name": "sellerFullName",
          "type": "string"
        },
        {
          "internalType": "string",
          "name": "productName",
          "type": "string"
        },
        {
          "internalType": "string",
          "name": "description",
          "type": "string"
        },
        {
          "internalType": "uint256",
          "name": "price",
          "type": "uint256"
        },
        {
          "internalType": "string",
          "name": "city",
          "type": "string"
        },
        {
          "internalType": "string",
          "name": "country",
          "type": "string"
        },
        {
          "internalType": "uint256",
          "name": "estimatedDays",
          "type": "uint256"
        },
        {
          "internalType": "address payable",
          "name": "sellerAddress",
          "type": "address"
        },
        {
          "internalType": "uint256",
          "name": "productID",
          "type": "uint256"
        },
        {
          "internalType": "bool",
          "name": "isSold",
          "type": "bool"
        }
      ],
      "payable": false,
      "stateMutability": "view",
      "type": "function"
    },
    {
      "constant": true,
      "inputs": [
        {
          "internalType": "uint256",
          "name": "",
          "type": "uint256"
        }
      ],
      "name": "purchases",
      "outputs": [
        {
          "components": [
            {
              "internalType": "string",
              "name": "sellerFullName",
              "type": "string"
            },
            {
              "internalType": "string",
              "name": "productName",
              "type": "string"
            },
            {
              "internalType": "string",
              "name": "description",
              "type": "string"
            },
            {
              "internalType": "uint256",
              "name": "price",
              "type": "uint256"
            },
            {
              "internalType": "string",
              "name": "city",
              "type": "string"
            },
            {
              "internalType": "string",
              "name": "country",
              "type": "string"
            },
            {
              "internalType": "uint256",
              "name": "estimatedDays",
              "type": "uint256"
            },
            {
              "internalType": "address payable",
              "name": "sellerAddress",
              "type": "address"
            },
            {
              "internalType": "uint256",
              "name": "productID",
              "type": "uint256"
            },
            {
              "internalType": "bool",
              "name": "isSold",
              "type": "bool"
            }
          ],
          "internalType": "struct Jokerzon.Product",
          "name": "product",
          "type": "tuple"
        },
        {
          "internalType": "address payable",
          "name": "buyer",
          "type": "address"
        },
        {
          "internalType": "string",
          "name": "buyerFullName",
          "type": "string"
        },
        {
          "internalType": "uint256",
          "name": "dateOfPurchase",
          "type": "uint256"
        }
      ],
      "payable": false,
      "stateMutability": "view",
      "type": "function"
    },
    {
      "constant": false,
      "inputs": [
        {
          "internalType": "string",
          "name": "_sellerFullName",
          "type": "string"
        },
        {
          "internalType": "string",
          "name": "_productName",
          "type": "string"
        },
        {
          "internalType": "string",
          "name": "_description",
          "type": "string"
        },
        {
          "internalType": "uint256",
          "name": "_price",
          "type": "uint256"
        },
        {
          "internalType": "string",
          "name": "_city",
          "type": "string"
        },
        {
          "internalType": "string",
          "name": "_country",
          "type": "string"
        },
        {
          "internalType": "uint256",
          "name": "_estimatedDays",
          "type": "uint256"
        }
      ],
      "name": "addProduct",
      "outputs": [
        {
          "components": [
            {
              "internalType": "string",
              "name": "sellerFullName",
              "type": "string"
            },
            {
              "internalType": "string",
              "name": "productName",
              "type": "string"
            },
            {
              "internalType": "string",
              "name": "description",
              "type": "string"
            },
            {
              "internalType": "uint256",
              "name": "price",
              "type": "uint256"
            },
            {
              "internalType": "string",
              "name": "city",
              "type": "string"
            },
            {
              "internalType": "string",
              "name": "country",
              "type": "string"
            },
            {
              "internalType": "uint256",
              "name": "estimatedDays",
              "type": "uint256"
            },
            {
              "internalType": "address payable",
              "name": "sellerAddress",
              "type": "address"
            },
            {
              "internalType": "uint256",
              "name": "productID",
              "type": "uint256"
            },
            {
              "internalType": "bool",
              "name": "isSold",
              "type": "bool"
            }
          ],
          "internalType": "struct Jokerzon.Product",
          "name": "",
          "type": "tuple"
        }
      ],
      "payable": false,
      "stateMutability": "nonpayable",
      "type": "function"
    },
    {
      "constant": true,
      "inputs": [],
      "name": "totalProducts",
      "outputs": [
        {
          "internalType": "uint32",
          "name": "",
          "type": "uint32"
        }
      ],
      "payable": false,
      "stateMutability": "view",
      "type": "function"
    },
    {
      "constant": true,
      "inputs": [],
      "name": "getAllProducts",
      "outputs": [
        {
          "components": [
            {
              "internalType": "string",
              "name": "sellerFullName",
              "type": "string"
            },
            {
              "internalType": "string",
              "name": "productName",
              "type": "string"
            },
            {
              "internalType": "string",
              "name": "description",
              "type": "string"
            },
            {
              "internalType": "uint256",
              "name": "price",
              "type": "uint256"
            },
            {
              "internalType": "string",
              "name": "city",
              "type": "string"
            },
            {
              "internalType": "string",
              "name": "country",
              "type": "string"
            },
            {
              "internalType": "uint256",
              "name": "estimatedDays",
              "type": "uint256"
            },
            {
              "internalType": "address payable",
              "name": "sellerAddress",
              "type": "address"
            },
            {
              "internalType": "uint256",
              "name": "productID",
              "type": "uint256"
            },
            {
              "internalType": "bool",
              "name": "isSold",
              "type": "bool"
            }
          ],
          "internalType": "struct Jokerzon.Product[]",
          "name": "",
          "type": "tuple[]"
        }
      ],
      "payable": false,
      "stateMutability": "view",
      "type": "function"
    },
    {
      "constant": false,
      "inputs": [
        {
          "components": [
            {
              "internalType": "string",
              "name": "sellerFullName",
              "type": "string"
            },
            {
              "internalType": "string",
              "name": "productName",
              "type": "string"
            },
            {
              "internalType": "string",
              "name": "description",
              "type": "string"
            },
            {
              "internalType": "uint256",
              "name": "price",
              "type": "uint256"
            },
            {
              "internalType": "string",
              "name": "city",
              "type": "string"
            },
            {
              "internalType": "string",
              "name": "country",
              "type": "string"
            },
            {
              "internalType": "uint256",
              "name": "estimatedDays",
              "type": "uint256"
            },
            {
              "internalType": "address payable",
              "name": "sellerAddress",
              "type": "address"
            },
            {
              "internalType": "uint256",
              "name": "productID",
              "type": "uint256"
            },
            {
              "internalType": "bool",
              "name": "isSold",
              "type": "bool"
            }
          ],
          "internalType": "struct Jokerzon.Product",
          "name": "_product",
          "type": "tuple"
        },
        {
          "internalType": "string",
          "name": "_buyerFullName",
          "type": "string"
        }
      ],
      "name": "addPurchase",
      "outputs": [
        {
          "components": [
            {
              "components": [
                {
                  "internalType": "string",
                  "name": "sellerFullName",
                  "type": "string"
                },
                {
                  "internalType": "string",
                  "name": "productName",
                  "type": "string"
                },
                {
                  "internalType": "string",
                  "name": "description",
                  "type": "string"
                },
                {
                  "internalType": "uint256",
                  "name": "price",
                  "type": "uint256"
                },
                {
                  "internalType": "string",
                  "name": "city",
                  "type": "string"
                },
                {
                  "internalType": "string",
                  "name": "country",
                  "type": "string"
                },
                {
                  "internalType": "uint256",
                  "name": "estimatedDays",
                  "type": "uint256"
                },
                {
                  "internalType": "address payable",
                  "name": "sellerAddress",
                  "type": "address"
                },
                {
                  "internalType": "uint256",
                  "name": "productID",
                  "type": "uint256"
                },
                {
                  "internalType": "bool",
                  "name": "isSold",
                  "type": "bool"
                }
              ],
              "internalType": "struct Jokerzon.Product",
              "name": "product",
              "type": "tuple"
            },
            {
              "internalType": "address payable",
              "name": "buyer",
              "type": "address"
            },
            {
              "internalType": "string",
              "name": "buyerFullName",
              "type": "string"
            },
            {
              "internalType": "uint256",
              "name": "dateOfPurchase",
              "type": "uint256"
            }
          ],
          "internalType": "struct Jokerzon.Purchase",
          "name": "",
          "type": "tuple"
        }
      ],
      "payable": false,
      "stateMutability": "nonpayable",
      "type": "function"
    },
    {
      "constant": true,
      "inputs": [],
      "name": "getAllPurchases",
      "outputs": [
        {
          "components": [
            {
              "components": [
                {
                  "internalType": "string",
                  "name": "sellerFullName",
                  "type": "string"
                },
                {
                  "internalType": "string",
                  "name": "productName",
                  "type": "string"
                },
                {
                  "internalType": "string",
                  "name": "description",
                  "type": "string"
                },
                {
                  "internalType": "uint256",
                  "name": "price",
                  "type": "uint256"
                },
                {
                  "internalType": "string",
                  "name": "city",
                  "type": "string"
                },
                {
                  "internalType": "string",
                  "name": "country",
                  "type": "string"
                },
                {
                  "internalType": "uint256",
                  "name": "estimatedDays",
                  "type": "uint256"
                },
                {
                  "internalType": "address payable",
                  "name": "sellerAddress",
                  "type": "address"
                },
                {
                  "internalType": "uint256",
                  "name": "productID",
                  "type": "uint256"
                },
                {
                  "internalType": "bool",
                  "name": "isSold",
                  "type": "bool"
                }
              ],
              "internalType": "struct Jokerzon.Product",
              "name": "product",
              "type": "tuple"
            },
            {
              "internalType": "address payable",
              "name": "buyer",
              "type": "address"
            },
            {
              "internalType": "string",
              "name": "buyerFullName",
              "type": "string"
            },
            {
              "internalType": "uint256",
              "name": "dateOfPurchase",
              "type": "uint256"
            }
          ],
          "internalType": "struct Jokerzon.Purchase[]",
          "name": "",
          "type": "tuple[]"
        }
      ],
      "payable": false,
      "stateMutability": "view",
      "type": "function"
    }
  ],
  "bytecode": "0x608060405234801561001057600080fd5b506000808190555061299b806100276000396000f3fe608060405234801561001057600080fd5b506004361061007d5760003560e01c806350b3967d1161005b57806350b3967d146101005780637acc0b201461011e5780638392fe31146101575780639b9d326d1461018a5761007d565b806302ee3a52146100825780632bbbe572146100a0578063324fbc4e146100d0575b600080fd5b61008a6101a8565b604051610097919061254f565b60405180910390f35b6100ba60048036036100b59190810190611d5b565b6105c1565b6040516100c79190612692565b60405180910390f35b6100ea60048036036100e59190810190611e71565b610878565b6040516100f79190612707565b60405180910390f35b610108610bd0565b6040516101159190612571565b60405180910390f35b61013860048036036101339190810190611edd565b6110ff565b60405161014e9a99989796959493929190612593565b60405180910390f35b610171600480360361016c9190810190611edd565b611485565b60405161018194939291906126b4565b60405180910390f35b61019261193e565b60405161019f9190612729565b60405180910390f35b60606001805480602002602001604051908101604052809291908181526020016000905b828210156105b857838290600052602060002090600a020160405180610140016040529081600082018054600181600116156101000203166002900480601f0160208091040260200160405190810160405280929190818152602001828054600181600116156101000203166002900480156102895780601f1061025e57610100808354040283529160200191610289565b820191906000526020600020905b81548152906001019060200180831161026c57829003601f168201915b50505050508152602001600182018054600181600116156101000203166002900480601f01602080910402602001604051908101604052809291908181526020018280546001816001161561010002031660029004801561032b5780601f106103005761010080835404028352916020019161032b565b820191906000526020600020905b81548152906001019060200180831161030e57829003601f168201915b50505050508152602001600282018054600181600116156101000203166002900480601f0160208091040260200160405190810160405280929190818152602001828054600181600116156101000203166002900480156103cd5780601f106103a2576101008083540402835291602001916103cd565b820191906000526020600020905b8154815290600101906020018083116103b057829003601f168201915b5050505050815260200160038201548152602001600482018054600181600116156101000203166002900480601f0160208091040260200160405190810160405280929190818152602001828054600181600116156101000203166002900480156104795780601f1061044e57610100808354040283529160200191610479565b820191906000526020600020905b81548152906001019060200180831161045c57829003601f168201915b50505050508152602001600582018054600181600116156101000203166002900480601f01602080910402602001604051908101604052809291908181526020018280546001816001161561010002031660029004801561051b5780601f106104f05761010080835404028352916020019161051b565b820191906000526020600020905b8154815290600101906020018083116104fe57829003601f168201915b50505050508152602001600682015481526020016007820160009054906101000a900473ffffffffffffffffffffffffffffffffffffffff1673ffffffffffffffffffffffffffffffffffffffff1673ffffffffffffffffffffffffffffffffffffffff168152602001600882015481526020016009820160009054906101000a900460ff161515151581525050815260200190600101906101cc565b50505050905090565b6105c961194b565b60048851101580156105dd57506014885111155b6105e657600080fd5b60038751101580156105fa57506028875111155b61060357600080fd5b600586511015801561061857506103e8865111155b61062157600080fd5b600084511161062f57600080fd5b600083511161063d57600080fd5b60008511801561064f5750620f424085105b61065857600080fd5b6001821015801561066a5750603c8211155b61067357600080fd5b61067b61194b565b88816000018190525087816020018190525086816040018190525085816060018181525050848160800181905250838160a00181905250828160c0018181525050338160e0019073ffffffffffffffffffffffffffffffffffffffff16908173ffffffffffffffffffffffffffffffffffffffff168152505060008161012001901515908115158152505060008081548092919060010191905055816101000181815250506001819080600181540180825580915050906001820390600052602060002090600a020160009091929091909150600082015181600001908051906020019061076a9291906119b6565b5060208201518160010190805190602001906107879291906119b6565b5060408201518160020190805190602001906107a49291906119b6565b506060820151816003015560808201518160040190805190602001906107cb9291906119b6565b5060a08201518160050190805190602001906107e89291906119b6565b5060c0820151816006015560e08201518160070160006101000a81548173ffffffffffffffffffffffffffffffffffffffff021916908373ffffffffffffffffffffffffffffffffffffffff16021790555061010082015181600801556101208201518160090160006101000a81548160ff02191690831515021790555050505080915050979650505050505050565b610880611a36565b600482511015801561089457506014825111155b61089d57600080fd5b600015158361012001511515146108e9576040517f08c379a00000000000000000000000000000000000000000000000000000000081526004016108e090612652565b60405180910390fd5b82606001513373ffffffffffffffffffffffffffffffffffffffff16311015610947576040517f08c379a000000000000000000000000000000000000000000000000000000000815260040161093e90612672565b60405180910390fd5b61094f611a36565b83816000018190525033816020019073ffffffffffffffffffffffffffffffffffffffff16908173ffffffffffffffffffffffffffffffffffffffff1681525050428160600181815250508281604001819052506001846101200190151590811515815250508360e0015173ffffffffffffffffffffffffffffffffffffffff166108fc85606001519081150290604051600060405180830381858888f19350505050158015610a03573d6000803e3d6000fd5b506002819080600181540180825580915050906001820390600052602060002090600d0201600090919290919091506000820151816000016000820151816000019080519060200190610a579291906119b6565b506020820151816001019080519060200190610a749291906119b6565b506040820151816002019080519060200190610a919291906119b6565b50606082015181600301556080820151816004019080519060200190610ab89291906119b6565b5060a0820151816005019080519060200190610ad59291906119b6565b5060c0820151816006015560e08201518160070160006101000a81548173ffffffffffffffffffffffffffffffffffffffff021916908373ffffffffffffffffffffffffffffffffffffffff16021790555061010082015181600801556101208201518160090160006101000a81548160ff0219169083151502179055505050602082015181600a0160006101000a81548173ffffffffffffffffffffffffffffffffffffffff021916908373ffffffffffffffffffffffffffffffffffffffff160217905550604082015181600b019080519060200190610bb89291906119b6565b50606082015181600c01555050508091505092915050565b60606002805480602002602001604051908101604052809291908181526020016000905b828210156110f657838290600052602060002090600d02016040518060800160405290816000820160405180610140016040529081600082018054600181600116156101000203166002900480601f016020809104026020016040519081016040528092919081815260200182805460018160011615610100020316600290048015610cc15780601f10610c9657610100808354040283529160200191610cc1565b820191906000526020600020905b815481529060010190602001808311610ca457829003601f168201915b50505050508152602001600182018054600181600116156101000203166002900480601f016020809104026020016040519081016040528092919081815260200182805460018160011615610100020316600290048015610d635780601f10610d3857610100808354040283529160200191610d63565b820191906000526020600020905b815481529060010190602001808311610d4657829003601f168201915b50505050508152602001600282018054600181600116156101000203166002900480601f016020809104026020016040519081016040528092919081815260200182805460018160011615610100020316600290048015610e055780601f10610dda57610100808354040283529160200191610e05565b820191906000526020600020905b815481529060010190602001808311610de857829003601f168201915b5050505050815260200160038201548152602001600482018054600181600116156101000203166002900480601f016020809104026020016040519081016040528092919081815260200182805460018160011615610100020316600290048015610eb15780601f10610e8657610100808354040283529160200191610eb1565b820191906000526020600020905b815481529060010190602001808311610e9457829003601f168201915b50505050508152602001600582018054600181600116156101000203166002900480601f016020809104026020016040519081016040528092919081815260200182805460018160011615610100020316600290048015610f535780601f10610f2857610100808354040283529160200191610f53565b820191906000526020600020905b815481529060010190602001808311610f3657829003601f168201915b50505050508152602001600682015481526020016007820160009054906101000a900473ffffffffffffffffffffffffffffffffffffffff1673ffffffffffffffffffffffffffffffffffffffff1673ffffffffffffffffffffffffffffffffffffffff168152602001600882015481526020016009820160009054906101000a900460ff1615151515815250508152602001600a820160009054906101000a900473ffffffffffffffffffffffffffffffffffffffff1673ffffffffffffffffffffffffffffffffffffffff1673ffffffffffffffffffffffffffffffffffffffff168152602001600b82018054600181600116156101000203166002900480601f0160208091040260200160405190810160405280929190818152602001828054600181600116156101000203166002900480156110d45780601f106110a9576101008083540402835291602001916110d4565b820191906000526020600020905b8154815290600101906020018083116110b757829003601f168201915b50505050508152602001600c8201548152505081526020019060010190610bf4565b50505050905090565b6001818154811061110c57fe5b90600052602060002090600a0201600091509050806000018054600181600116156101000203166002900480601f0160208091040260200160405190810160405280929190818152602001828054600181600116156101000203166002900480156111b85780601f1061118d576101008083540402835291602001916111b8565b820191906000526020600020905b81548152906001019060200180831161119b57829003601f168201915b505050505090806001018054600181600116156101000203166002900480601f0160208091040260200160405190810160405280929190818152602001828054600181600116156101000203166002900480156112565780601f1061122b57610100808354040283529160200191611256565b820191906000526020600020905b81548152906001019060200180831161123957829003601f168201915b505050505090806002018054600181600116156101000203166002900480601f0160208091040260200160405190810160405280929190818152602001828054600181600116156101000203166002900480156112f45780601f106112c9576101008083540402835291602001916112f4565b820191906000526020600020905b8154815290600101906020018083116112d757829003601f168201915b505050505090806003015490806004018054600181600116156101000203166002900480601f0160208091040260200160405190810160405280929190818152602001828054600181600116156101000203166002900480156113985780601f1061136d57610100808354040283529160200191611398565b820191906000526020600020905b81548152906001019060200180831161137b57829003601f168201915b505050505090806005018054600181600116156101000203166002900480601f0160208091040260200160405190810160405280929190818152602001828054600181600116156101000203166002900480156114365780601f1061140b57610100808354040283529160200191611436565b820191906000526020600020905b81548152906001019060200180831161141957829003601f168201915b5050505050908060060154908060070160009054906101000a900473ffffffffffffffffffffffffffffffffffffffff16908060080154908060090160009054906101000a900460ff1690508a565b6002818154811061149257fe5b90600052602060002090600d02016000915090508060000160405180610140016040529081600082018054600181600116156101000203166002900480601f01602080910402602001604051908101604052809291908181526020018280546001816001161561010002031660029004801561154f5780601f106115245761010080835404028352916020019161154f565b820191906000526020600020905b81548152906001019060200180831161153257829003601f168201915b50505050508152602001600182018054600181600116156101000203166002900480601f0160208091040260200160405190810160405280929190818152602001828054600181600116156101000203166002900480156115f15780601f106115c6576101008083540402835291602001916115f1565b820191906000526020600020905b8154815290600101906020018083116115d457829003601f168201915b50505050508152602001600282018054600181600116156101000203166002900480601f0160208091040260200160405190810160405280929190818152602001828054600181600116156101000203166002900480156116935780601f1061166857610100808354040283529160200191611693565b820191906000526020600020905b81548152906001019060200180831161167657829003601f168201915b5050505050815260200160038201548152602001600482018054600181600116156101000203166002900480601f01602080910402602001604051908101604052809291908181526020018280546001816001161561010002031660029004801561173f5780601f106117145761010080835404028352916020019161173f565b820191906000526020600020905b81548152906001019060200180831161172257829003601f168201915b50505050508152602001600582018054600181600116156101000203166002900480601f0160208091040260200160405190810160405280929190818152602001828054600181600116156101000203166002900480156117e15780601f106117b6576101008083540402835291602001916117e1565b820191906000526020600020905b8154815290600101906020018083116117c457829003601f168201915b50505050508152602001600682015481526020016007820160009054906101000a900473ffffffffffffffffffffffffffffffffffffffff1673ffffffffffffffffffffffffffffffffffffffff1673ffffffffffffffffffffffffffffffffffffffff168152602001600882015481526020016009820160009054906101000a900460ff1615151515815250509080600a0160009054906101000a900473ffffffffffffffffffffffffffffffffffffffff169080600b018054600181600116156101000203166002900480601f01602080910402602001604051908101604052809291908181526020018280546001816001161561010002031660029004801561192e5780601f106119035761010080835404028352916020019161192e565b820191906000526020600020905b81548152906001019060200180831161191157829003601f168201915b50505050509080600c0154905084565b6000600180549050905090565b60405180610140016040528060608152602001606081526020016060815260200160008152602001606081526020016060815260200160008152602001600073ffffffffffffffffffffffffffffffffffffffff168152602001600081526020016000151581525090565b828054600181600116156101000203166002900490600052602060002090601f016020900481019282601f106119f757805160ff1916838001178555611a25565b82800160010185558215611a25579182015b82811115611a24578251825591602001919060010190611a09565b5b509050611a329190611a7a565b5090565b6040518060800160405280611a49611a9f565b8152602001600073ffffffffffffffffffffffffffffffffffffffff16815260200160608152602001600081525090565b611a9c91905b80821115611a98576000816000905550600101611a80565b5090565b90565b60405180610140016040528060608152602001606081526020016060815260200160008152602001606081526020016060815260200160008152602001600073ffffffffffffffffffffffffffffffffffffffff168152602001600081526020016000151581525090565b600081359050611b1981612913565b92915050565b600081359050611b2e8161292a565b92915050565b600082601f830112611b4557600080fd5b8135611b58611b5382612771565b612744565b91508082526020830160208301858383011115611b7457600080fd5b611b7f8382846128c0565b50505092915050565b600082601f830112611b9957600080fd5b8135611bac611ba78261279d565b612744565b91508082526020830160208301858383011115611bc857600080fd5b611bd38382846128c0565b50505092915050565b60006101408284031215611bef57600080fd5b611bfa610140612744565b9050600082013567ffffffffffffffff811115611c1657600080fd5b611c2284828501611b34565b600083015250602082013567ffffffffffffffff811115611c4257600080fd5b611c4e84828501611b34565b602083015250604082013567ffffffffffffffff811115611c6e57600080fd5b611c7a84828501611b34565b6040830152506060611c8e84828501611d46565b606083015250608082013567ffffffffffffffff811115611cae57600080fd5b611cba84828501611b34565b60808301525060a082013567ffffffffffffffff811115611cda57600080fd5b611ce684828501611b34565b60a08301525060c0611cfa84828501611d46565b60c08301525060e0611d0e84828501611b0a565b60e083015250610100611d2384828501611d46565b61010083015250610120611d3984828501611b1f565b6101208301525092915050565b600081359050611d5581612941565b92915050565b600080600080600080600060e0888a031215611d7657600080fd5b600088013567ffffffffffffffff811115611d9057600080fd5b611d9c8a828b01611b88565b975050602088013567ffffffffffffffff811115611db957600080fd5b611dc58a828b01611b88565b965050604088013567ffffffffffffffff811115611de257600080fd5b611dee8a828b01611b88565b9550506060611dff8a828b01611d46565b945050608088013567ffffffffffffffff811115611e1c57600080fd5b611e288a828b01611b88565b93505060a088013567ffffffffffffffff811115611e4557600080fd5b611e518a828b01611b88565b92505060c0611e628a828b01611d46565b91505092959891949750929550565b60008060408385031215611e8457600080fd5b600083013567ffffffffffffffff811115611e9e57600080fd5b611eaa85828601611bdc565b925050602083013567ffffffffffffffff811115611ec757600080fd5b611ed385828601611b88565b9150509250929050565b600060208284031215611eef57600080fd5b6000611efd84828501611d46565b91505092915050565b6000611f128383612262565b905092915050565b6000611f2683836124b8565b905092915050565b611f3781612868565b82525050565b611f4681612868565b82525050565b6000611f57826127e9565b611f618185612824565b935083602082028501611f73856127c9565b8060005b85811015611faf5784840389528151611f908582611f06565b9450611f9b8361280a565b925060208a01995050600181019050611f77565b50829750879550505050505092915050565b6000611fcc826127f4565b611fd68185612835565b935083602082028501611fe8856127d9565b8060005b8581101561202457848403895281516120058582611f1a565b945061201083612817565b925060208a01995050600181019050611fec565b50829750879550505050505092915050565b61203f8161287a565b82525050565b61204e8161287a565b82525050565b600061205f826127ff565b6120698185612846565b93506120798185602086016128cf565b61208281612902565b840191505092915050565b6000612098826127ff565b6120a28185612857565b93506120b28185602086016128cf565b6120bb81612902565b840191505092915050565b60006120d3601483612857565b91507f50726f6475637420616c726561647920736f6c640000000000000000000000006000830152602082019050919050565b6000612113602183612857565b91507f596f75277665206e6f7420656e6f756768206d6f6e657920627275686868203a60008301527f28000000000000000000000000000000000000000000000000000000000000006020830152604082019050919050565b600061014083016000830151848203600086015261218a8282612054565b915050602083015184820360208601526121a48282612054565b915050604083015184820360408601526121be8282612054565b91505060608301516121d36060860182612522565b50608083015184820360808601526121eb8282612054565b91505060a083015184820360a08601526122058282612054565b91505060c083015161221a60c0860182612522565b5060e083015161222d60e0860182611f2e565b50610100830151612242610100860182612522565b50610120830151612257610120860182612036565b508091505092915050565b60006101408301600083015184820360008601526122808282612054565b9150506020830151848203602086015261229a8282612054565b915050604083015184820360408601526122b48282612054565b91505060608301516122c96060860182612522565b50608083015184820360808601526122e18282612054565b91505060a083015184820360a08601526122fb8282612054565b91505060c083015161231060c0860182612522565b5060e083015161232360e0860182611f2e565b50610100830151612338610100860182612522565b5061012083015161234d610120860182612036565b508091505092915050565b60006101408301600083015184820360008601526123768282612054565b915050602083015184820360208601526123908282612054565b915050604083015184820360408601526123aa8282612054565b91505060608301516123bf6060860182612522565b50608083015184820360808601526123d78282612054565b91505060a083015184820360a08601526123f18282612054565b91505060c083015161240660c0860182612522565b5060e083015161241960e0860182611f2e565b5061010083015161242e610100860182612522565b50610120830151612443610120860182612036565b508091505092915050565b6000608083016000830151848203600086015261246b8282612262565b91505060208301516124806020860182611f2e565b50604083015184820360408601526124988282612054565b91505060608301516124ad6060860182612522565b508091505092915050565b600060808301600083015184820360008601526124d58282612262565b91505060208301516124ea6020860182611f2e565b50604083015184820360408601526125028282612054565b91505060608301516125176060860182612522565b508091505092915050565b61252b816128a6565b82525050565b61253a816128a6565b82525050565b612549816128b0565b82525050565b600060208201905081810360008301526125698184611f4c565b905092915050565b6000602082019050818103600083015261258b8184611fc1565b905092915050565b60006101408201905081810360008301526125ae818d61208d565b905081810360208301526125c2818c61208d565b905081810360408301526125d6818b61208d565b90506125e5606083018a612531565b81810360808301526125f7818961208d565b905081810360a083015261260b818861208d565b905061261a60c0830187612531565b61262760e0830186611f3d565b612635610100830185612531565b612643610120830184612045565b9b9a5050505050505050505050565b6000602082019050818103600083015261266b816120c6565b9050919050565b6000602082019050818103600083015261268b81612106565b9050919050565b600060208201905081810360008301526126ac818461216c565b905092915050565b600060808201905081810360008301526126ce8187612358565b90506126dd6020830186611f3d565b81810360408301526126ef818561208d565b90506126fe6060830184612531565b95945050505050565b60006020820190508181036000830152612721818461244e565b905092915050565b600060208201905061273e6000830184612540565b92915050565b6000604051905081810181811067ffffffffffffffff8211171561276757600080fd5b8060405250919050565b600067ffffffffffffffff82111561278857600080fd5b601f19601f8301169050602081019050919050565b600067ffffffffffffffff8211156127b457600080fd5b601f19601f8301169050602081019050919050565b6000819050602082019050919050565b6000819050602082019050919050565b600081519050919050565b600081519050919050565b600081519050919050565b6000602082019050919050565b6000602082019050919050565b600082825260208201905092915050565b600082825260208201905092915050565b600082825260208201905092915050565b600082825260208201905092915050565b600061287382612886565b9050919050565b60008115159050919050565b600073ffffffffffffffffffffffffffffffffffffffff82169050919050565b6000819050919050565b600063ffffffff82169050919050565b82818337600083830152505050565b60005b838110156128ed5780820151818401526020810190506128d2565b838111156128fc576000848401525b50505050565b6000601f19601f8301169050919050565b61291c81612868565b811461292757600080fd5b50565b6129338161287a565b811461293e57600080fd5b50565b61294a816128a6565b811461295557600080fd5b5056fea365627a7a723158205711c5102149d392022771e21c28459bc0658008c14e10c67422671d497a9c7a6c6578706572696d656e74616cf564736f6c63430005100040",
  "source": "pragma solidity >=0.4.21 <0.7.5;\r\npragma experimental ABIEncoderV2;\r\n\r\n//There is only one Jokerzon cotract\r\n//contains all the purchases that has been committed\r\ncontract Jokerzon {\r\n    uint256 count;\r\n    Product[] public products;\r\n    Purchase[]public purchases;\r\n    /**\r\n     * Product section\r\n     */\r\n    // The product seller is msg.sender\r\n    // The product is not yet sold\r\n    struct Product {\r\n        string sellerFullName;\r\n        string productName;\r\n        string description;\r\n        uint256 price;\r\n        string city;\r\n        string country;\r\n        uint256 estimatedDays;\r\n        address payable sellerAddress;\r\n        uint256 productID;\r\n        bool isSold;\r\n    }\r\n\r\n\r\n    constructor() public {\r\n        count = 0;\r\n    }\r\n\r\n    function addProduct(\r\n        string memory _sellerFullName,\r\n        string memory _productName,\r\n        string memory _description,\r\n        uint256 _price,\r\n        string memory _city,\r\n        string memory _country,\r\n        uint256 _estimatedDays\r\n    ) public returns (Product memory) {\r\n        // Validating that all the fields are valid\r\n        require(\r\n            bytes(_sellerFullName).length >= 4 &&\r\n                bytes(_sellerFullName).length <= 20\r\n        );\r\n        require(\r\n            bytes(_productName).length >= 3 && bytes(_productName).length <= 40\r\n        );\r\n        require(\r\n            bytes(_description).length >= 5 &&\r\n                bytes(_description).length <= 1000\r\n        );\r\n        require(bytes(_city).length > 0);\r\n        require(bytes(_country).length > 0);\r\n        require(_price > 0 && _price < 1000000);\r\n        require(_estimatedDays >= 1 && _estimatedDays <= 60);\r\n        // Creating the new product after being validated\r\n        Product memory newProduct;\r\n        newProduct.sellerFullName = _sellerFullName;\r\n        newProduct.productName = _productName;\r\n        newProduct.description = _description;\r\n        newProduct.price = _price;\r\n        newProduct.city = _city;\r\n        newProduct.country = _country;\r\n        newProduct.estimatedDays = _estimatedDays;\r\n        newProduct.sellerAddress = msg.sender;\r\n        newProduct.isSold = false;\r\n        newProduct.productID = count ++;\r\n        products.push(newProduct);\r\n        return newProduct;\r\n    }\r\n\r\n    function totalProducts() public view returns (uint32) {\r\n        return (uint32)(products.length);\r\n    }\r\n\r\n    // Returns all the prouducts in the jokerzon contract\r\n    function getAllProducts() external view returns (Product[] memory) {\r\n        return products;\r\n    }\r\n    /**\r\n     * Product section\r\n     */\r\n     /**\r\n     * Purchase section\r\n      */\r\n    struct Purchase{\r\n        Product product;\r\n        address payable buyer;\r\n        string buyerFullName;\r\n        uint256 dateOfPurchase;\r\n    }\r\n    function addPurchase(Product memory _product, string memory _buyerFullName) public returns(Purchase memory){\r\n        // Validating that all the fields are valid\r\n        require(\r\n            bytes(_buyerFullName).length >= 4 &&\r\n                bytes(_buyerFullName).length <= 20\r\n        );        \r\n        //Checking if the item was already sold\r\n        require(_product.isSold == false, \"Product already sold\");\r\n        //Checking if the buyer has enough money to commit for the TX\r\n        require(\r\n            msg.sender.balance >= _product.price,\r\n            \"You've not enough money bruhhh :(\"\r\n        );\r\n\r\n        Purchase memory newPurchase;\r\n        newPurchase.product = _product;\r\n        newPurchase.buyer = msg.sender;\r\n        newPurchase.dateOfPurchase = block.timestamp;\r\n        newPurchase.buyerFullName = _buyerFullName;\r\n        _product.isSold = true;\r\n        //The product sold for the buyer, then transfer money [Seller] -> [Buyer]\r\n        _product.sellerAddress.transfer(_product.price);\r\n        purchases.push(newPurchase);\r\n        return newPurchase;\r\n    }\r\n\r\n    function getAllPurchases()external view returns(Purchase[]memory){\r\n        return purchases;\r\n    }\r\n}",
  "sourcePath": "C:/Users//Desktop/Blockchain/Jokerzon/contracts/Jokerzon.sol",
  "compiler": {
    "name": "solc",
    "version": "0.5.16+commit.9c3226ce.Emscripten.clang"
  },
  "schemaVersion": "3.3.3",
  "updatedAt": "2021-02-14T14:33:48.321Z",
  "networkType": "ethereum",
  "devdoc": {
    "methods": {}
  },
  "userdoc": {
    "methods": {}
  }
}