{
  "contractName": "Jokerzon",
  "abi": [
    {
      "inputs": [],
      "payable": false,
      "stateMutability": "nonpayable",
      "type": "constructor"
    },
    {
      "constant": true,
      "inputs": [
        {
          "internalType": "uint256",
          "name": "",
          "type": "uint256"
        }
      ],
      "name": "products",
      "outputs": [
        {
          "internalType": "string",
          "name": "sellerFullName",
          "type": "string"
        },
        {
          "internalType": "string",
          "name": "productName",
          "type": "string"
        },
        {
          "internalType": "string",
          "name": "description",
          "type": "string"
        },
        {
          "internalType": "uint256",
          "name": "price",
          "type": "uint256"
        },
        {
          "internalType": "string",
          "name": "city",
          "type": "string"
        },
        {
          "internalType": "string",
          "name": "country",
          "type": "string"
        },
        {
          "internalType": "uint256",
          "name": "estimatedDays",
          "type": "uint256"
        },
        {
          "internalType": "address payable",
          "name": "sellerAddress",
          "type": "address"
        },
        {
          "internalType": "uint256",
          "name": "productID",
          "type": "uint256"
        },
        {
          "internalType": "bool",
          "name": "isSold",
          "type": "bool"
        }
      ],
      "payable": false,
      "stateMutability": "view",
      "type": "function"
    },
    {
      "constant": true,
      "inputs": [
        {
          "internalType": "uint256",
          "name": "",
          "type": "uint256"
        }
      ],
      "name": "purchases",
      "outputs": [
        {
          "internalType": "string",
          "name": "sellerFullName",
          "type": "string"
        },
        {
          "internalType": "string",
          "name": "productName",
          "type": "string"
        },
        {
          "internalType": "string",
          "name": "description",
          "type": "string"
        },
        {
          "internalType": "uint256",
          "name": "price",
          "type": "uint256"
        },
        {
          "internalType": "string",
          "name": "city",
          "type": "string"
        },
        {
          "internalType": "string",
          "name": "country",
          "type": "string"
        },
        {
          "internalType": "uint256",
          "name": "estimatedDays",
          "type": "uint256"
        },
        {
          "internalType": "address payable",
          "name": "sellerAddress",
          "type": "address"
        },
        {
          "internalType": "uint256",
          "name": "productID",
          "type": "uint256"
        },
        {
          "internalType": "address payable",
          "name": "buyerAddress",
          "type": "address"
        },
        {
          "internalType": "uint256",
          "name": "dateOfPurchase",
          "type": "uint256"
        }
      ],
      "payable": false,
      "stateMutability": "view",
      "type": "function"
    },
    {
      "constant": false,
      "inputs": [
        {
          "internalType": "string",
          "name": "_sellerFullName",
          "type": "string"
        },
        {
          "internalType": "string",
          "name": "_productName",
          "type": "string"
        },
        {
          "internalType": "string",
          "name": "_description",
          "type": "string"
        },
        {
          "internalType": "uint256",
          "name": "_price",
          "type": "uint256"
        },
        {
          "internalType": "string",
          "name": "_city",
          "type": "string"
        },
        {
          "internalType": "string",
          "name": "_country",
          "type": "string"
        },
        {
          "internalType": "uint256",
          "name": "_estimatedDays",
          "type": "uint256"
        }
      ],
      "name": "addProduct",
      "outputs": [
        {
          "components": [
            {
              "internalType": "string",
              "name": "sellerFullName",
              "type": "string"
            },
            {
              "internalType": "string",
              "name": "productName",
              "type": "string"
            },
            {
              "internalType": "string",
              "name": "description",
              "type": "string"
            },
            {
              "internalType": "uint256",
              "name": "price",
              "type": "uint256"
            },
            {
              "internalType": "string",
              "name": "city",
              "type": "string"
            },
            {
              "internalType": "string",
              "name": "country",
              "type": "string"
            },
            {
              "internalType": "uint256",
              "name": "estimatedDays",
              "type": "uint256"
            },
            {
              "internalType": "address payable",
              "name": "sellerAddress",
              "type": "address"
            },
            {
              "internalType": "uint256",
              "name": "productID",
              "type": "uint256"
            },
            {
              "internalType": "bool",
              "name": "isSold",
              "type": "bool"
            }
          ],
          "internalType": "struct Jokerzon.Product",
          "name": "",
          "type": "tuple"
        }
      ],
      "payable": false,
      "stateMutability": "nonpayable",
      "type": "function"
    },
    {
      "constant": true,
      "inputs": [],
      "name": "totalProducts",
      "outputs": [
        {
          "internalType": "uint32",
          "name": "",
          "type": "uint32"
        }
      ],
      "payable": false,
      "stateMutability": "view",
      "type": "function"
    },
    {
      "constant": true,
      "inputs": [],
      "name": "getAllProducts",
      "outputs": [
        {
          "components": [
            {
              "internalType": "string",
              "name": "sellerFullName",
              "type": "string"
            },
            {
              "internalType": "string",
              "name": "productName",
              "type": "string"
            },
            {
              "internalType": "string",
              "name": "description",
              "type": "string"
            },
            {
              "internalType": "uint256",
              "name": "price",
              "type": "uint256"
            },
            {
              "internalType": "string",
              "name": "city",
              "type": "string"
            },
            {
              "internalType": "string",
              "name": "country",
              "type": "string"
            },
            {
              "internalType": "uint256",
              "name": "estimatedDays",
              "type": "uint256"
            },
            {
              "internalType": "address payable",
              "name": "sellerAddress",
              "type": "address"
            },
            {
              "internalType": "uint256",
              "name": "productID",
              "type": "uint256"
            },
            {
              "internalType": "bool",
              "name": "isSold",
              "type": "bool"
            }
          ],
          "internalType": "struct Jokerzon.Product[]",
          "name": "",
          "type": "tuple[]"
        }
      ],
      "payable": false,
      "stateMutability": "view",
      "type": "function"
    },
    {
      "constant": false,
      "inputs": [
        {
          "internalType": "string",
          "name": "_sellerFullName",
          "type": "string"
        },
        {
          "internalType": "string",
          "name": "_productName",
          "type": "string"
        },
        {
          "internalType": "string",
          "name": "_description",
          "type": "string"
        },
        {
          "internalType": "uint256",
          "name": "_price",
          "type": "uint256"
        },
        {
          "internalType": "string",
          "name": "_city",
          "type": "string"
        },
        {
          "internalType": "string",
          "name": "_country",
          "type": "string"
        },
        {
          "internalType": "uint256",
          "name": "_estimatedDays",
          "type": "uint256"
        },
        {
          "internalType": "address payable",
          "name": "_sellerAddress",
          "type": "address"
        },
        {
          "internalType": "uint256",
          "name": "_productID",
          "type": "uint256"
        }
      ],
      "name": "addPurchase",
      "outputs": [],
      "payable": true,
      "stateMutability": "payable",
      "type": "function"
    },
    {
      "constant": true,
      "inputs": [],
      "name": "getAllPurchases",
      "outputs": [
        {
          "components": [
            {
              "internalType": "string",
              "name": "sellerFullName",
              "type": "string"
            },
            {
              "internalType": "string",
              "name": "productName",
              "type": "string"
            },
            {
              "internalType": "string",
              "name": "description",
              "type": "string"
            },
            {
              "internalType": "uint256",
              "name": "price",
              "type": "uint256"
            },
            {
              "internalType": "string",
              "name": "city",
              "type": "string"
            },
            {
              "internalType": "string",
              "name": "country",
              "type": "string"
            },
            {
              "internalType": "uint256",
              "name": "estimatedDays",
              "type": "uint256"
            },
            {
              "internalType": "address payable",
              "name": "sellerAddress",
              "type": "address"
            },
            {
              "internalType": "uint256",
              "name": "productID",
              "type": "uint256"
            },
            {
              "internalType": "address payable",
              "name": "buyerAddress",
              "type": "address"
            },
            {
              "internalType": "uint256",
              "name": "dateOfPurchase",
              "type": "uint256"
            }
          ],
          "internalType": "struct Jokerzon.Purchase[]",
          "name": "",
          "type": "tuple[]"
        }
      ],
      "payable": false,
      "stateMutability": "view",
      "type": "function"
    },
    {
      "constant": true,
      "inputs": [
        {
          "internalType": "uint256",
          "name": "index",
          "type": "uint256"
        }
      ],
      "name": "getProductById",
      "outputs": [
        {
          "components": [
            {
              "internalType": "string",
              "name": "sellerFullName",
              "type": "string"
            },
            {
              "internalType": "string",
              "name": "productName",
              "type": "string"
            },
            {
              "internalType": "string",
              "name": "description",
              "type": "string"
            },
            {
              "internalType": "uint256",
              "name": "price",
              "type": "uint256"
            },
            {
              "internalType": "string",
              "name": "city",
              "type": "string"
            },
            {
              "internalType": "string",
              "name": "country",
              "type": "string"
            },
            {
              "internalType": "uint256",
              "name": "estimatedDays",
              "type": "uint256"
            },
            {
              "internalType": "address payable",
              "name": "sellerAddress",
              "type": "address"
            },
            {
              "internalType": "uint256",
              "name": "productID",
              "type": "uint256"
            },
            {
              "internalType": "bool",
              "name": "isSold",
              "type": "bool"
            }
          ],
          "internalType": "struct Jokerzon.Product",
          "name": "",
          "type": "tuple"
        }
      ],
      "payable": false,
      "stateMutability": "view",
      "type": "function"
    },
    {
      "constant": true,
      "inputs": [
        {
          "internalType": "address",
          "name": "_sellerAddress",
          "type": "address"
        }
      ],
      "name": "getFullName",
      "outputs": [
        {
          "internalType": "string",
          "name": "",
          "type": "string"
        }
      ],
      "payable": false,
      "stateMutability": "view",
      "type": "function"
    }
  ],
  "bytecode": "0x608060405234801561001057600080fd5b50600080819055506132ea806100276000396000f3fe6080604052600436106100865760003560e01c80637022d33c116100595780637022d33c1461015b5780637acc0b20146101775780638392fe31146101bd5780639b9d326d14610204578063f2f35ff51461022f57610086565b806302ee3a521461008b5780632bbbe572146100b65780633f70c2b4146100f357806350b3967d14610130575b600080fd5b34801561009757600080fd5b506100a061026c565b6040516100ad9190612d52565b60405180910390f35b3480156100c257600080fd5b506100dd60048036036100d89190810190612222565b610685565b6040516100ea9190613065565b60405180910390f35b3480156100ff57600080fd5b5061011a60048036036101159190810190612476565b61093c565b6040516101279190613065565b60405180910390f35b34801561013c57600080fd5b50610145610d4c565b6040516101529190612d74565b60405180910390f35b61017560048036036101709190810190612338565b6111aa565b005b34801561018357600080fd5b5061019e60048036036101999190810190612476565b611683565b6040516101b49a99989796959493929190612e86565b60405180910390f35b3480156101c957600080fd5b506101e460048036036101df9190810190612476565b611a09565b6040516101fb9b9a99989796959493929190612db8565b60405180910390f35b34801561021057600080fd5b50610219611da8565b6040516102269190613087565b60405180910390f35b34801561023b57600080fd5b50610256600480360361025191908101906121f9565b611db5565b6040516102639190612d96565b60405180910390f35b60606001805480602002602001604051908101604052809291908181526020016000905b8282101561067c57838290600052602060002090600a020160405180610140016040529081600082018054600181600116156101000203166002900480601f01602080910402602001604051908101604052809291908181526020018280546001816001161561010002031660029004801561034d5780601f106103225761010080835404028352916020019161034d565b820191906000526020600020905b81548152906001019060200180831161033057829003601f168201915b50505050508152602001600182018054600181600116156101000203166002900480601f0160208091040260200160405190810160405280929190818152602001828054600181600116156101000203166002900480156103ef5780601f106103c4576101008083540402835291602001916103ef565b820191906000526020600020905b8154815290600101906020018083116103d257829003601f168201915b50505050508152602001600282018054600181600116156101000203166002900480601f0160208091040260200160405190810160405280929190818152602001828054600181600116156101000203166002900480156104915780601f1061046657610100808354040283529160200191610491565b820191906000526020600020905b81548152906001019060200180831161047457829003601f168201915b5050505050815260200160038201548152602001600482018054600181600116156101000203166002900480601f01602080910402602001604051908101604052809291908181526020018280546001816001161561010002031660029004801561053d5780601f106105125761010080835404028352916020019161053d565b820191906000526020600020905b81548152906001019060200180831161052057829003601f168201915b50505050508152602001600582018054600181600116156101000203166002900480601f0160208091040260200160405190810160405280929190818152602001828054600181600116156101000203166002900480156105df5780601f106105b4576101008083540402835291602001916105df565b820191906000526020600020905b8154815290600101906020018083116105c257829003601f168201915b50505050508152602001600682015481526020016007820160009054906101000a900473ffffffffffffffffffffffffffffffffffffffff1673ffffffffffffffffffffffffffffffffffffffff1673ffffffffffffffffffffffffffffffffffffffff168152602001600882015481526020016009820160009054906101000a900460ff16151515158152505081526020019060010190610290565b50505050905090565b61068d611fd0565b60048851101580156106a157506014885111155b6106aa57600080fd5b60038751101580156106be57506028875111155b6106c757600080fd5b60058651101580156106dc57506103e8865111155b6106e557600080fd5b60008451116106f357600080fd5b600083511161070157600080fd5b6000851180156107135750620f424085105b61071c57600080fd5b6001821015801561072e5750603c8211155b61073757600080fd5b61073f611fd0565b88816000018190525087816020018190525086816040018190525085816060018181525050848160800181905250838160a00181905250828160c0018181525050338160e0019073ffffffffffffffffffffffffffffffffffffffff16908173ffffffffffffffffffffffffffffffffffffffff168152505060008161012001901515908115158152505060008081548092919060010191905055816101000181815250506001819080600181540180825580915050906001820390600052602060002090600a020160009091929091909150600082015181600001908051906020019061082e92919061203b565b50602082015181600101908051906020019061084b92919061203b565b50604082015181600201908051906020019061086892919061203b565b5060608201518160030155608082015181600401908051906020019061088f92919061203b565b5060a08201518160050190805190602001906108ac92919061203b565b5060c0820151816006015560e08201518160070160006101000a81548173ffffffffffffffffffffffffffffffffffffffff021916908373ffffffffffffffffffffffffffffffffffffffff16021790555061010082015181600801556101208201518160090160006101000a81548160ff02191690831515021790555050505080915050979650505050505050565b610944611fd0565b6000821015801561095c575060018080549050038211155b61096557600080fd5b6001828154811061097257fe5b90600052602060002090600a020160405180610140016040529081600082018054600181600116156101000203166002900480601f016020809104026020016040519081016040528092919081815260200182805460018160011615610100020316600290048015610a255780601f106109fa57610100808354040283529160200191610a25565b820191906000526020600020905b815481529060010190602001808311610a0857829003601f168201915b50505050508152602001600182018054600181600116156101000203166002900480601f016020809104026020016040519081016040528092919081815260200182805460018160011615610100020316600290048015610ac75780601f10610a9c57610100808354040283529160200191610ac7565b820191906000526020600020905b815481529060010190602001808311610aaa57829003601f168201915b50505050508152602001600282018054600181600116156101000203166002900480601f016020809104026020016040519081016040528092919081815260200182805460018160011615610100020316600290048015610b695780601f10610b3e57610100808354040283529160200191610b69565b820191906000526020600020905b815481529060010190602001808311610b4c57829003601f168201915b5050505050815260200160038201548152602001600482018054600181600116156101000203166002900480601f016020809104026020016040519081016040528092919081815260200182805460018160011615610100020316600290048015610c155780601f10610bea57610100808354040283529160200191610c15565b820191906000526020600020905b815481529060010190602001808311610bf857829003601f168201915b50505050508152602001600582018054600181600116156101000203166002900480601f016020809104026020016040519081016040528092919081815260200182805460018160011615610100020316600290048015610cb75780601f10610c8c57610100808354040283529160200191610cb7565b820191906000526020600020905b815481529060010190602001808311610c9a57829003601f168201915b50505050508152602001600682015481526020016007820160009054906101000a900473ffffffffffffffffffffffffffffffffffffffff1673ffffffffffffffffffffffffffffffffffffffff1673ffffffffffffffffffffffffffffffffffffffff168152602001600882015481526020016009820160009054906101000a900460ff1615151515815250509050919050565b60606002805480602002602001604051908101604052809291908181526020016000905b828210156111a157838290600052602060002090600b020160405180610160016040529081600082018054600181600116156101000203166002900480601f016020809104026020016040519081016040528092919081815260200182805460018160011615610100020316600290048015610e2d5780601f10610e0257610100808354040283529160200191610e2d565b820191906000526020600020905b815481529060010190602001808311610e1057829003601f168201915b50505050508152602001600182018054600181600116156101000203166002900480601f016020809104026020016040519081016040528092919081815260200182805460018160011615610100020316600290048015610ecf5780601f10610ea457610100808354040283529160200191610ecf565b820191906000526020600020905b815481529060010190602001808311610eb257829003601f168201915b50505050508152602001600282018054600181600116156101000203166002900480601f016020809104026020016040519081016040528092919081815260200182805460018160011615610100020316600290048015610f715780601f10610f4657610100808354040283529160200191610f71565b820191906000526020600020905b815481529060010190602001808311610f5457829003601f168201915b5050505050815260200160038201548152602001600482018054600181600116156101000203166002900480601f01602080910402602001604051908101604052809291908181526020018280546001816001161561010002031660029004801561101d5780601f10610ff25761010080835404028352916020019161101d565b820191906000526020600020905b81548152906001019060200180831161100057829003601f168201915b50505050508152602001600582018054600181600116156101000203166002900480601f0160208091040260200160405190810160405280929190818152602001828054600181600116156101000203166002900480156110bf5780601f10611094576101008083540402835291602001916110bf565b820191906000526020600020905b8154815290600101906020018083116110a257829003601f168201915b50505050508152602001600682015481526020016007820160009054906101000a900473ffffffffffffffffffffffffffffffffffffffff1673ffffffffffffffffffffffffffffffffffffffff1673ffffffffffffffffffffffffffffffffffffffff168152602001600882015481526020016009820160009054906101000a900473ffffffffffffffffffffffffffffffffffffffff1673ffffffffffffffffffffffffffffffffffffffff1673ffffffffffffffffffffffffffffffffffffffff168152602001600a8201548152505081526020019060010190610d70565b50505050905090565b6111b381611f21565b156111f3576040517f08c379a00000000000000000000000000000000000000000000000000000000081526004016111ea90613025565b60405180910390fd5b600489511015801561120757506014895111155b611246576040517f08c379a000000000000000000000000000000000000000000000000000000000815260040161123d90612f65565b60405180910390fd5b600388511015801561125a57506028885111155b611299576040517f08c379a000000000000000000000000000000000000000000000000000000000815260040161129090613045565b60405180910390fd5b60058751101580156112ae57506103e8875111155b6112ed576040517f08c379a00000000000000000000000000000000000000000000000000000000081526004016112e490613005565b60405180910390fd5b6000855111611331576040517f08c379a000000000000000000000000000000000000000000000000000000000815260040161132890612f45565b60405180910390fd5b6000845111611375576040517f08c379a000000000000000000000000000000000000000000000000000000000815260040161136c90612fc5565b60405180910390fd5b6000861180156113875750620f424086105b6113c6576040517f08c379a00000000000000000000000000000000000000000000000000000000081526004016113bd90612fa5565b60405180910390fd5b600183101580156113d85750603c8311155b611417576040517f08c379a000000000000000000000000000000000000000000000000000000000815260040161140e90612f85565b60405180910390fd5b853373ffffffffffffffffffffffffffffffffffffffff16311015611471576040517f08c379a000000000000000000000000000000000000000000000000000000000815260040161146890612fe5565b60405180910390fd5b6114796120bb565b6040518061016001604052808b81526020018a81526020018981526020018881526020018781526020018681526020018581526020018473ffffffffffffffffffffffffffffffffffffffff1681526020018381526020013373ffffffffffffffffffffffffffffffffffffffff1681526020014281525090506114fc82611f76565b6002819080600181540180825580915050906001820390600052602060002090600b020160009091929091909150600082015181600001908051906020019061154692919061203b565b50602082015181600101908051906020019061156392919061203b565b50604082015181600201908051906020019061158092919061203b565b506060820151816003015560808201518160040190805190602001906115a792919061203b565b5060a08201518160050190805190602001906115c492919061203b565b5060c0820151816006015560e08201518160070160006101000a81548173ffffffffffffffffffffffffffffffffffffffff021916908373ffffffffffffffffffffffffffffffffffffffff16021790555061010082015181600801556101208201518160090160006101000a81548173ffffffffffffffffffffffffffffffffffffffff021916908373ffffffffffffffffffffffffffffffffffffffff16021790555061014082015181600a015550505050505050505050505050565b6001818154811061169057fe5b90600052602060002090600a0201600091509050806000018054600181600116156101000203166002900480601f01602080910402602001604051908101604052809291908181526020018280546001816001161561010002031660029004801561173c5780601f106117115761010080835404028352916020019161173c565b820191906000526020600020905b81548152906001019060200180831161171f57829003601f168201915b505050505090806001018054600181600116156101000203166002900480601f0160208091040260200160405190810160405280929190818152602001828054600181600116156101000203166002900480156117da5780601f106117af576101008083540402835291602001916117da565b820191906000526020600020905b8154815290600101906020018083116117bd57829003601f168201915b505050505090806002018054600181600116156101000203166002900480601f0160208091040260200160405190810160405280929190818152602001828054600181600116156101000203166002900480156118785780601f1061184d57610100808354040283529160200191611878565b820191906000526020600020905b81548152906001019060200180831161185b57829003601f168201915b505050505090806003015490806004018054600181600116156101000203166002900480601f01602080910402602001604051908101604052809291908181526020018280546001816001161561010002031660029004801561191c5780601f106118f15761010080835404028352916020019161191c565b820191906000526020600020905b8154815290600101906020018083116118ff57829003601f168201915b505050505090806005018054600181600116156101000203166002900480601f0160208091040260200160405190810160405280929190818152602001828054600181600116156101000203166002900480156119ba5780601f1061198f576101008083540402835291602001916119ba565b820191906000526020600020905b81548152906001019060200180831161199d57829003601f168201915b5050505050908060060154908060070160009054906101000a900473ffffffffffffffffffffffffffffffffffffffff16908060080154908060090160009054906101000a900460ff1690508a565b60028181548110611a1657fe5b90600052602060002090600b0201600091509050806000018054600181600116156101000203166002900480601f016020809104026020016040519081016040528092919081815260200182805460018160011615610100020316600290048015611ac25780601f10611a9757610100808354040283529160200191611ac2565b820191906000526020600020905b815481529060010190602001808311611aa557829003601f168201915b505050505090806001018054600181600116156101000203166002900480601f016020809104026020016040519081016040528092919081815260200182805460018160011615610100020316600290048015611b605780601f10611b3557610100808354040283529160200191611b60565b820191906000526020600020905b815481529060010190602001808311611b4357829003601f168201915b505050505090806002018054600181600116156101000203166002900480601f016020809104026020016040519081016040528092919081815260200182805460018160011615610100020316600290048015611bfe5780601f10611bd357610100808354040283529160200191611bfe565b820191906000526020600020905b815481529060010190602001808311611be157829003601f168201915b505050505090806003015490806004018054600181600116156101000203166002900480601f016020809104026020016040519081016040528092919081815260200182805460018160011615610100020316600290048015611ca25780601f10611c7757610100808354040283529160200191611ca2565b820191906000526020600020905b815481529060010190602001808311611c8557829003601f168201915b505050505090806005018054600181600116156101000203166002900480601f016020809104026020016040519081016040528092919081815260200182805460018160011615610100020316600290048015611d405780601f10611d1557610100808354040283529160200191611d40565b820191906000526020600020905b815481529060010190602001808311611d2357829003601f168201915b5050505050908060060154908060070160009054906101000a900473ffffffffffffffffffffffffffffffffffffffff16908060080154908060090160009054906101000a900473ffffffffffffffffffffffffffffffffffffffff169080600a015490508b565b6000600180549050905090565b606060008090505b600180549050811015611f08578273ffffffffffffffffffffffffffffffffffffffff1660018281548110611dee57fe5b90600052602060002090600a020160070160009054906101000a900473ffffffffffffffffffffffffffffffffffffffff1673ffffffffffffffffffffffffffffffffffffffff161415611efb5760018181548110611e4957fe5b90600052602060002090600a02016000018054600181600116156101000203166002900480601f016020809104026020016040519081016040528092919081815260200182805460018160011615610100020316600290048015611eee5780601f10611ec357610100808354040283529160200191611eee565b820191906000526020600020905b815481529060010190602001808311611ed157829003601f168201915b5050505050915050611f1c565b8080600101915050611dbd565b506040518060200160405280600081525090505b919050565b6000808210158015611f3a575060018080549050038211155b611f4357600080fd5b60018281548110611f5057fe5b90600052602060002090600a020160090160009054906101000a900460ff169050919050565b60008110158015611f8e575060018080549050038111155b611f9757600080fd5b6001808281548110611fa557fe5b90600052602060002090600a020160090160006101000a81548160ff02191690831515021790555050565b60405180610140016040528060608152602001606081526020016060815260200160008152602001606081526020016060815260200160008152602001600073ffffffffffffffffffffffffffffffffffffffff168152602001600081526020016000151581525090565b828054600181600116156101000203166002900490600052602060002090601f016020900481019282601f1061207c57805160ff19168380011785556120aa565b828001600101855582156120aa579182015b828111156120a957825182559160200191906001019061208e565b5b5090506120b79190612141565b5090565b60405180610160016040528060608152602001606081526020016060815260200160008152602001606081526020016060815260200160008152602001600073ffffffffffffffffffffffffffffffffffffffff16815260200160008152602001600073ffffffffffffffffffffffffffffffffffffffff168152602001600081525090565b61216391905b8082111561215f576000816000905550600101612147565b5090565b90565b60008135905061217581613262565b92915050565b60008135905061218a81613279565b92915050565b600082601f8301126121a157600080fd5b81356121b46121af826130cf565b6130a2565b915080825260208301602083018583830111156121d057600080fd5b6121db83828461320f565b50505092915050565b6000813590506121f381613290565b92915050565b60006020828403121561220b57600080fd5b600061221984828501612166565b91505092915050565b600080600080600080600060e0888a03121561223d57600080fd5b600088013567ffffffffffffffff81111561225757600080fd5b6122638a828b01612190565b975050602088013567ffffffffffffffff81111561228057600080fd5b61228c8a828b01612190565b965050604088013567ffffffffffffffff8111156122a957600080fd5b6122b58a828b01612190565b95505060606122c68a828b016121e4565b945050608088013567ffffffffffffffff8111156122e357600080fd5b6122ef8a828b01612190565b93505060a088013567ffffffffffffffff81111561230c57600080fd5b6123188a828b01612190565b92505060c06123298a828b016121e4565b91505092959891949750929550565b60008060008060008060008060006101208a8c03121561235757600080fd5b60008a013567ffffffffffffffff81111561237157600080fd5b61237d8c828d01612190565b99505060208a013567ffffffffffffffff81111561239a57600080fd5b6123a68c828d01612190565b98505060408a013567ffffffffffffffff8111156123c357600080fd5b6123cf8c828d01612190565b97505060606123e08c828d016121e4565b96505060808a013567ffffffffffffffff8111156123fd57600080fd5b6124098c828d01612190565b95505060a08a013567ffffffffffffffff81111561242657600080fd5b6124328c828d01612190565b94505060c06124438c828d016121e4565b93505060e06124548c828d0161217b565b9250506101006124668c828d016121e4565b9150509295985092959850929598565b60006020828403121561248857600080fd5b6000612496848285016121e4565b91505092915050565b60006124ab8383612b24565b905092915050565b60006124bf8383612c1a565b905092915050565b6124d0816131b7565b82525050565b6124df816131b7565b82525050565b60006124f08261311b565b6124fa8185613161565b93508360208202850161250c856130fb565b8060005b858110156125485784840389528151612529858261249f565b945061253483613147565b925060208a01995050600181019050612510565b50829750879550505050505092915050565b600061256582613126565b61256f8185613172565b9350836020820285016125818561310b565b8060005b858110156125bd578484038952815161259e85826124b3565b94506125a983613154565b925060208a01995050600181019050612585565b50829750879550505050505092915050565b6125d8816131c9565b82525050565b6125e7816131c9565b82525050565b60006125f88261313c565b6126028185613194565b935061261281856020860161321e565b61261b81613251565b840191505092915050565b600061263182613131565b61263b8185613183565b935061264b81856020860161321e565b61265481613251565b840191505092915050565b600061266a82613131565b6126748185613194565b935061268481856020860161321e565b61268d81613251565b840191505092915050565b60006126a5602283613194565b91507f63697479206d757374206265206174206c65617374203020636861726163746560008301527f72730000000000000000000000000000000000000000000000000000000000006020830152604082019050919050565b600061270b603c83613194565b91507f53656c6c6572206e616d65206d757374206265206174206c656173742034206360008301527f68617261637465727320616e6420617420746865206d6f7374203230000000006020830152604082019050919050565b6000612771603483613194565b91507f457374696d617465642064617573206d757374206265206174206c656173742060008301527f3120616e6420617420746865206d6f73742036300000000000000000000000006020830152604082019050919050565b60006127d7603083613194565b91507f7072696365206d757374206265206174206c65617374203020616e642061742060008301527f746865206d6f73742031303030303030000000000000000000000000000000006020830152604082019050919050565b600061283d602583613194565b91507f636f756e747279206d757374206265206174206c65617374203020636861726160008301527f63746572730000000000000000000000000000000000000000000000000000006020830152604082019050919050565b60006128a3602183613194565b91507f596f75277665206e6f7420656e6f756768206d6f6e657920627275686868203a60008301527f28000000000000000000000000000000000000000000000000000000000000006020830152604082019050919050565b6000612909603e83613194565b91507f6465736372697074696f6e206d757374206265206174206c656173742035206360008301527f68617261637465727320616e6420617420746865206d6f7374203130303000006020830152604082019050919050565b600061296f602683613194565b91507f5468652070726f647563742068617320616c7265616479206265656e2070757260008301527f63686173656400000000000000000000000000000000000000000000000000006020830152604082019050919050565b60006129d5603d83613194565b91507f70726f64756374206e616d65206d757374206265206174206c6561737420332060008301527f6368617261637465727320616e6420617420746865206d6f73742034300000006020830152604082019050919050565b6000610140830160008301518482036000860152612a4c8282612626565b91505060208301518482036020860152612a668282612626565b91505060408301518482036040860152612a808282612626565b9150506060830151612a956060860182612d25565b5060808301518482036080860152612aad8282612626565b91505060a083015184820360a0860152612ac78282612626565b91505060c0830151612adc60c0860182612d25565b5060e0830151612aef60e08601826124c7565b50610100830151612b04610100860182612d25565b50610120830151612b196101208601826125cf565b508091505092915050565b6000610140830160008301518482036000860152612b428282612626565b91505060208301518482036020860152612b5c8282612626565b91505060408301518482036040860152612b768282612626565b9150506060830151612b8b6060860182612d25565b5060808301518482036080860152612ba38282612626565b91505060a083015184820360a0860152612bbd8282612626565b91505060c0830151612bd260c0860182612d25565b5060e0830151612be560e08601826124c7565b50610100830151612bfa610100860182612d25565b50610120830151612c0f6101208601826125cf565b508091505092915050565b6000610160830160008301518482036000860152612c388282612626565b91505060208301518482036020860152612c528282612626565b91505060408301518482036040860152612c6c8282612626565b9150506060830151612c816060860182612d25565b5060808301518482036080860152612c998282612626565b91505060a083015184820360a0860152612cb38282612626565b91505060c0830151612cc860c0860182612d25565b5060e0830151612cdb60e08601826124c7565b50610100830151612cf0610100860182612d25565b50610120830151612d056101208601826124c7565b50610140830151612d1a610140860182612d25565b508091505092915050565b612d2e816131f5565b82525050565b612d3d816131f5565b82525050565b612d4c816131ff565b82525050565b60006020820190508181036000830152612d6c81846124e5565b905092915050565b60006020820190508181036000830152612d8e818461255a565b905092915050565b60006020820190508181036000830152612db081846125ed565b905092915050565b6000610160820190508181036000830152612dd3818e61265f565b90508181036020830152612de7818d61265f565b90508181036040830152612dfb818c61265f565b9050612e0a606083018b612d34565b8181036080830152612e1c818a61265f565b905081810360a0830152612e30818961265f565b9050612e3f60c0830188612d34565b612e4c60e08301876124d6565b612e5a610100830186612d34565b612e686101208301856124d6565b612e76610140830184612d34565b9c9b505050505050505050505050565b6000610140820190508181036000830152612ea1818d61265f565b90508181036020830152612eb5818c61265f565b90508181036040830152612ec9818b61265f565b9050612ed8606083018a612d34565b8181036080830152612eea818961265f565b905081810360a0830152612efe818861265f565b9050612f0d60c0830187612d34565b612f1a60e08301866124d6565b612f28610100830185612d34565b612f366101208301846125de565b9b9a5050505050505050505050565b60006020820190508181036000830152612f5e81612698565b9050919050565b60006020820190508181036000830152612f7e816126fe565b9050919050565b60006020820190508181036000830152612f9e81612764565b9050919050565b60006020820190508181036000830152612fbe816127ca565b9050919050565b60006020820190508181036000830152612fde81612830565b9050919050565b60006020820190508181036000830152612ffe81612896565b9050919050565b6000602082019050818103600083015261301e816128fc565b9050919050565b6000602082019050818103600083015261303e81612962565b9050919050565b6000602082019050818103600083015261305e816129c8565b9050919050565b6000602082019050818103600083015261307f8184612a2e565b905092915050565b600060208201905061309c6000830184612d43565b92915050565b6000604051905081810181811067ffffffffffffffff821117156130c557600080fd5b8060405250919050565b600067ffffffffffffffff8211156130e657600080fd5b601f19601f8301169050602081019050919050565b6000819050602082019050919050565b6000819050602082019050919050565b600081519050919050565b600081519050919050565b600081519050919050565b600081519050919050565b6000602082019050919050565b6000602082019050919050565b600082825260208201905092915050565b600082825260208201905092915050565b600082825260208201905092915050565b600082825260208201905092915050565b60006131b0826131d5565b9050919050565b60006131c2826131d5565b9050919050565b60008115159050919050565b600073ffffffffffffffffffffffffffffffffffffffff82169050919050565b6000819050919050565b600063ffffffff82169050919050565b82818337600083830152505050565b60005b8381101561323c578082015181840152602081019050613221565b8381111561324b576000848401525b50505050565b6000601f19601f8301169050919050565b61326b816131a5565b811461327657600080fd5b50565b613282816131b7565b811461328d57600080fd5b50565b613299816131f5565b81146132a457600080fd5b5056fea365627a7a72315820ecee14a649f2b90e5b059467f019916e1c24d76d82cae71250b223efc80aacd86c6578706572696d656e74616cf564736f6c63430005100040",
  "source": "pragma solidity >=0.4.21 <0.7.5;\r\npragma experimental ABIEncoderV2;\r\n\r\n//There is only one Jokerzon cotract\r\n//contains all the purchases that has been committed\r\ncontract Jokerzon {\r\n    uint256 count;\r\n    Product[] public products;\r\n    Purchase[] public purchases;\r\n    /**\r\n     * Product section\r\n     */\r\n    // The product seller is msg.sender\r\n    // The product is not yet sold\r\n    struct Product {\r\n        string sellerFullName;\r\n        string productName;\r\n        string description;\r\n        uint256 price;\r\n        string city;\r\n        string country;\r\n        uint256 estimatedDays;\r\n        address payable sellerAddress;\r\n        uint256 productID;\r\n        bool isSold;\r\n    }\r\n\r\n    constructor() public {\r\n        count = 0;\r\n    }\r\n\r\n    function addProduct(\r\n        string memory _sellerFullName,\r\n        string memory _productName,\r\n        string memory _description,\r\n        uint256 _price,\r\n        string memory _city,\r\n        string memory _country,\r\n        uint256 _estimatedDays\r\n    ) public returns (Product memory) {\r\n        // Validating that all the fields are valid\r\n        require(\r\n            bytes(_sellerFullName).length >= 4 &&\r\n                bytes(_sellerFullName).length <= 20\r\n        );\r\n        require(\r\n            bytes(_productName).length >= 3 && bytes(_productName).length <= 40\r\n        );\r\n        require(\r\n            bytes(_description).length >= 5 &&\r\n                bytes(_description).length <= 1000\r\n        );\r\n        require(bytes(_city).length > 0);\r\n        require(bytes(_country).length > 0);\r\n        require(_price > 0 && _price < 1000000);\r\n        require(_estimatedDays >= 1 && _estimatedDays <= 60);\r\n        // Creating the new product after being validated\r\n        Product memory newProduct;\r\n        newProduct.sellerFullName = _sellerFullName;\r\n        newProduct.productName = _productName;\r\n        newProduct.description = _description;\r\n        newProduct.price = _price;\r\n        newProduct.city = _city;\r\n        newProduct.country = _country;\r\n        newProduct.estimatedDays = _estimatedDays;\r\n        newProduct.sellerAddress = msg.sender;\r\n        newProduct.isSold = false;\r\n        newProduct.productID = count++;\r\n        products.push(newProduct);\r\n        return newProduct;\r\n    }\r\n\r\n    function totalProducts() public view returns (uint32) {\r\n        return (uint32)(products.length);\r\n    }\r\n\r\n    // Returns all the prouducts in the jokerzon contract\r\n    function getAllProducts() external view returns (Product[] memory) {\r\n        return products;\r\n    }\r\n\r\n    /**\r\n     * Product section\r\n     */\r\n    /**\r\n     * Purchase section\r\n     */\r\n    struct Purchase {\r\n        string sellerFullName;\r\n        string productName;\r\n        string description;\r\n        uint256 price;\r\n        string city;\r\n        string country;\r\n        uint256 estimatedDays;\r\n        address payable sellerAddress;\r\n        uint256 productID;\r\n        address payable buyerAddress;\r\n        uint256 dateOfPurchase;\r\n    }\r\n\r\n    function addPurchase(\r\n        string memory _sellerFullName,\r\n        string memory _productName,\r\n        string memory _description,\r\n        uint256 _price,\r\n        string memory _city,\r\n        string memory _country,\r\n        uint256 _estimatedDays,\r\n        address payable _sellerAddress,\r\n        uint256 _productID\r\n    ) public payable {\r\n        require(\r\n            !checkIfSold(_productID),\r\n            \"The product has already been purchased\"\r\n        );\r\n        // Validating that all the fields are valid\r\n        require(\r\n            bytes(_sellerFullName).length >= 4 &&\r\n                bytes(_sellerFullName).length <= 20,\r\n            \"Seller name must be at least 4 characters and at the most 20\"\r\n        );\r\n        require(\r\n            bytes(_productName).length >= 3 && bytes(_productName).length <= 40,\r\n            \"product name must be at least 3 characters and at the most 40\"\r\n        );\r\n        require(\r\n            bytes(_description).length >= 5 &&\r\n                bytes(_description).length <= 1000,\r\n            \"description must be at least 5 characters and at the most 1000\"\r\n        );\r\n        require(bytes(_city).length > 0, \"city must be at least 0 characters\");\r\n        require(\r\n            bytes(_country).length > 0,\r\n            \"country must be at least 0 characters\"\r\n        );\r\n        require(\r\n            _price > 0 && _price < 1000000,\r\n            \"price must be at least 0 and at the most 1000000\"\r\n        );\r\n        require(\r\n            _estimatedDays >= 1 && _estimatedDays <= 60,\r\n            \"Estimated daus must be at least 1 and at the most 60\"\r\n        );\r\n        //Checking if the buyer has enough money to commit for the TX\r\n        require(\r\n            msg.sender.balance >= _price,\r\n            \"You've not enough money bruhhh :(\"\r\n        );\r\n\r\n        Purchase memory newPurchase =\r\n            Purchase(\r\n                _sellerFullName,\r\n                _productName,\r\n                _description,\r\n                _price,\r\n                _city,\r\n                _country,\r\n                _estimatedDays,\r\n                _sellerAddress,\r\n                _productID,\r\n                msg.sender,\r\n                block.timestamp\r\n            );\r\n        setSoldById(_productID);\r\n        //The product sold for the buyer, then transfer money [Seller] -> [Buyer]\r\n        purchases.push(newPurchase);\r\n    }\r\n\r\n    function getAllPurchases() external view returns (Purchase[] memory) {\r\n        return purchases;\r\n    }\r\n\r\n    // Returning the product by the id in Jokerzon contract\r\n    function getProductById(uint256 index)\r\n        external\r\n        view\r\n        returns (Product memory)\r\n    {\r\n        require(index >= 0 && index <= products.length - 1);\r\n        return products[index];\r\n    }\r\n\r\n    function setSoldById(uint256 index) internal {\r\n        require(index >= 0 && index <= products.length - 1);\r\n        products[index].isSold = true;\r\n    }\r\n\r\n    function checkIfSold(uint256 index) internal view returns (bool) {\r\n        require(index >= 0 && index <= products.length - 1);\r\n        return products[index].isSold;\r\n    }\r\n\r\n    // Searching through all the products and checking if the given address is the seller address, if so, then returning\r\n    // the full name, otherwise - empty string returned\r\n    function getFullName(address _sellerAddress)\r\n        external\r\n        view\r\n        returns (string memory)\r\n    {\r\n        for (uint256 i = 0; i < products.length; i++) {\r\n            if (products[i].sellerAddress == _sellerAddress) {\r\n                return products[i].sellerFullName;\r\n            }\r\n        }\r\n        return \"\";\r\n    }\r\n}\r\n",
  "sourcePath": "C:/Users//Desktop/Blockchain/Jokerzon/contracts/Jokerzon.sol",
  "compiler": {
    "name": "solc",
    "version": "0.5.16+commit.9c3226ce.Emscripten.clang"
  },
  "schemaVersion": "3.3.3",
  "updatedAt": "2021-02-16T14:25:25.354Z",
  "networkType": "ethereum",
  "devdoc": {
    "methods": {}
  },
  "userdoc": {
    "methods": {}
  }
}