{
  "contractName": "Jokerzon",
  "abi": [
    {
      "inputs": [],
      "payable": false,
      "stateMutability": "nonpayable",
      "type": "constructor"
    },
    {
      "constant": true,
      "inputs": [
        {
          "internalType": "uint256",
          "name": "",
          "type": "uint256"
        }
      ],
      "name": "products",
      "outputs": [
        {
          "internalType": "contract Product",
          "name": "",
          "type": "address"
        }
      ],
      "payable": false,
      "stateMutability": "view",
      "type": "function"
    },
    {
      "constant": true,
      "inputs": [
        {
          "internalType": "uint256",
          "name": "",
          "type": "uint256"
        }
      ],
      "name": "purchases",
      "outputs": [
        {
          "internalType": "contract Purchase",
          "name": "",
          "type": "address"
        }
      ],
      "payable": false,
      "stateMutability": "view",
      "type": "function"
    },
    {
      "constant": false,
      "inputs": [
        {
          "internalType": "contract Product",
          "name": "_product",
          "type": "address"
        }
      ],
      "name": "addProduct",
      "outputs": [],
      "payable": false,
      "stateMutability": "nonpayable",
      "type": "function"
    },
    {
      "constant": false,
      "inputs": [
        {
          "internalType": "contract Purchase",
          "name": "_purchase",
          "type": "address"
        }
      ],
      "name": "addPurchase",
      "outputs": [],
      "payable": false,
      "stateMutability": "nonpayable",
      "type": "function"
    }
  ],
  "bytecode": "0x608060405234801561001057600080fd5b50610334806100206000396000f3fe608060405234801561001057600080fd5b506004361061004c5760003560e01c8063517807e4146100515780637acc0b20146100955780638392fe3114610103578063f44a6ca914610171575b600080fd5b6100936004803603602081101561006757600080fd5b81019080803573ffffffffffffffffffffffffffffffffffffffff1690602001909291905050506101b5565b005b6100c1600480360360208110156100ab57600080fd5b810190808035906020019092919050505061021e565b604051808273ffffffffffffffffffffffffffffffffffffffff1673ffffffffffffffffffffffffffffffffffffffff16815260200191505060405180910390f35b61012f6004803603602081101561011957600080fd5b810190808035906020019092919050505061025a565b604051808273ffffffffffffffffffffffffffffffffffffffff1673ffffffffffffffffffffffffffffffffffffffff16815260200191505060405180910390f35b6101b36004803603602081101561018757600080fd5b81019080803573ffffffffffffffffffffffffffffffffffffffff169060200190929190505050610296565b005b60008190806001815401808255809150509060018203906000526020600020016000909192909190916101000a81548173ffffffffffffffffffffffffffffffffffffffff021916908373ffffffffffffffffffffffffffffffffffffffff1602179055505050565b6001818154811061022b57fe5b906000526020600020016000915054906101000a900473ffffffffffffffffffffffffffffffffffffffff1681565b6000818154811061026757fe5b906000526020600020016000915054906101000a900473ffffffffffffffffffffffffffffffffffffffff1681565b60018190806001815401808255809150509060018203906000526020600020016000909192909190916101000a81548173ffffffffffffffffffffffffffffffffffffffff021916908373ffffffffffffffffffffffffffffffffffffffff160217905550505056fea265627a7a72315820cd06aa3f9698ce0216fc22f1f4a47ea3ae3032d8a0bde77665c808dd3a89b2ec64736f6c63430005100032",
  "source": "pragma solidity >=0.4.21 <0.7.5;\r\nimport \"./Purchase.sol\";\r\nimport \"./Product.sol\";\r\n\r\n//There is only one Jokerzon cotract\r\n//contains all the purchases that has been committed\r\ncontract Jokerzon {\r\n    Purchase[] public purchases;\r\n    Product[] public products;\r\n\r\n    constructor() public {\r\n    }\r\n\r\n    function addProduct(Product _product) public {\r\n        products.push(_product);\r\n    }\r\n\r\n    //Add the purchase receipt to the Purchase list\r\n    function addPurchase(Purchase _purchase) public {\r\n        purchases.push(_purchase);\r\n    }\r\n\r\n    // ToDo: return all the purchases of one customer\r\n    // ToDo: return all the sales of one seller\r\n}\r\n",
  "sourcePath": "C:/Users/אור/Desktop/Blockchain/Jokerzon/contracts/Jokerzon.sol",
  "compiler": {
    "name": "solc",
    "version": "0.5.16+commit.9c3226ce.Emscripten.clang"
  },
  "schemaVersion": "3.3.3",
  "updatedAt": "2021-02-08T18:47:19.388Z",
  "networkType": "ethereum",
  "devdoc": {
    "methods": {}
  },
  "userdoc": {
    "methods": {}
  }
}