{
  "contractName": "Jokerzon",
  "abi": [
    {
      "constant": true,
      "inputs": [
        {
          "internalType": "uint256",
          "name": "",
          "type": "uint256"
        }
      ],
      "name": "purchases",
      "outputs": [
        {
          "internalType": "contract Purchase",
          "name": "",
          "type": "address"
        }
      ],
      "payable": false,
      "stateMutability": "view",
      "type": "function"
    },
    {
      "constant": false,
      "inputs": [
        {
          "internalType": "contract Purchase",
          "name": "_purchase",
          "type": "address"
        }
      ],
      "name": "addPurchase",
      "outputs": [],
      "payable": false,
      "stateMutability": "nonpayable",
      "type": "function"
    },
    {
      "constant": true,
      "inputs": [
        {
          "internalType": "uint256",
          "name": "_index",
          "type": "uint256"
        }
      ],
      "name": "readPurchaseContract",
      "outputs": [
        {
          "internalType": "address payable",
          "name": "",
          "type": "address"
        },
        {
          "internalType": "contract Product",
          "name": "",
          "type": "address"
        }
      ],
      "payable": false,
      "stateMutability": "view",
      "type": "function"
    }
  ],
  "bytecode": "0x608060405234801561001057600080fd5b50610340806100206000396000f3fe608060405234801561001057600080fd5b50600436106100415760003560e01c8063517807e4146100465780638392fe311461008a578063f1311df0146100f8575b600080fd5b6100886004803603602081101561005c57600080fd5b81019080803573ffffffffffffffffffffffffffffffffffffffff169060200190929190505050610199565b005b6100b6600480360360208110156100a057600080fd5b8101908080359060200190929190505050610202565b604051808273ffffffffffffffffffffffffffffffffffffffff1673ffffffffffffffffffffffffffffffffffffffff16815260200191505060405180910390f35b6101246004803603602081101561010e57600080fd5b810190808035906020019092919050505061023e565b604051808373ffffffffffffffffffffffffffffffffffffffff1673ffffffffffffffffffffffffffffffffffffffff1681526020018273ffffffffffffffffffffffffffffffffffffffff1673ffffffffffffffffffffffffffffffffffffffff1681526020019250505060405180910390f35b60008190806001815401808255809150509060018203906000526020600020016000909192909190916101000a81548173ffffffffffffffffffffffffffffffffffffffff021916908373ffffffffffffffffffffffffffffffffffffffff1602179055505050565b6000818154811061020f57fe5b906000526020600020016000915054906101000a900473ffffffffffffffffffffffffffffffffffffffff1681565b6000806000838154811061024e57fe5b9060005260206000200160009054906101000a900473ffffffffffffffffffffffffffffffffffffffff1673ffffffffffffffffffffffffffffffffffffffff1663ebddbaf66040518163ffffffff1660e01b8152600401604080518083038186803b1580156102bd57600080fd5b505afa1580156102d1573d6000803e3d6000fd5b505050506040513d60408110156102e757600080fd5b8101908080519060200190929190805190602001909291905050509150915091509156fea265627a7a72315820e890f049f5b9692955cb5c2aaae7b8780c5d9312d9cd346ae8d49baab63722ce64736f6c63430005100032",
  "source": "pragma solidity >=0.4.21 <0.7.5;\r\nimport \"./Purchase.sol\";\r\n\r\n//contains all the purchases that has been committed\r\ncontract Jokerzon {\r\n    Purchase[] public purchases;\r\n\r\n    function addPurchase(Purchase _purchase) public {\r\n        purchases.push(_purchase);\r\n    }\r\n\r\n    function readPurchaseContract(uint256 _index)\r\n        public\r\n        view\r\n        returns (address payable, Product)\r\n    {\r\n        return Purchase(purchases[_index]).returnData();\r\n    }\r\n\r\n    // ToDo: return all the purchases of one customer\r\n    // ToDo: return all the sales of one seller\r\n}\r\n",
  "sourcePath": "C:/Users/אור/Desktop/Blockchain/Jokerzon/contracts/Jokerzon.sol",
  "compiler": {
    "name": "solc",
    "version": "0.5.16+commit.9c3226ce.Emscripten.clang"
  },
  "schemaVersion": "3.3.3",
  "updatedAt": "2021-02-04T14:59:05.366Z",
  "devdoc": {
    "methods": {}
  },
  "userdoc": {
    "methods": {}
  }
}