{
  "contractName": "Jokerzon",
  "abi": [
    {
      "inputs": [],
      "payable": false,
      "stateMutability": "nonpayable",
      "type": "constructor"
    },
    {
      "constant": true,
      "inputs": [
        {
          "internalType": "uint256",
          "name": "",
          "type": "uint256"
        }
      ],
      "name": "products",
      "outputs": [
        {
          "internalType": "string",
          "name": "sellerFullName",
          "type": "string"
        },
        {
          "internalType": "string",
          "name": "productName",
          "type": "string"
        },
        {
          "internalType": "string",
          "name": "description",
          "type": "string"
        },
        {
          "internalType": "uint256",
          "name": "price",
          "type": "uint256"
        },
        {
          "internalType": "string",
          "name": "city",
          "type": "string"
        },
        {
          "internalType": "string",
          "name": "country",
          "type": "string"
        },
        {
          "internalType": "uint256",
          "name": "estimatedDays",
          "type": "uint256"
        },
        {
          "internalType": "address payable",
          "name": "sellerAddress",
          "type": "address"
        },
        {
          "internalType": "bool",
          "name": "isSold",
          "type": "bool"
        }
      ],
      "payable": false,
      "stateMutability": "view",
      "type": "function"
    },
    {
      "constant": false,
      "inputs": [
        {
          "internalType": "string",
          "name": "_sellerFullName",
          "type": "string"
        },
        {
          "internalType": "string",
          "name": "_productName",
          "type": "string"
        },
        {
          "internalType": "string",
          "name": "_description",
          "type": "string"
        },
        {
          "internalType": "uint256",
          "name": "_price",
          "type": "uint256"
        },
        {
          "internalType": "string",
          "name": "_city",
          "type": "string"
        },
        {
          "internalType": "string",
          "name": "_country",
          "type": "string"
        },
        {
          "internalType": "uint256",
          "name": "_estimatedDays",
          "type": "uint256"
        }
      ],
      "name": "addProduct",
      "outputs": [
        {
          "components": [
            {
              "internalType": "string",
              "name": "sellerFullName",
              "type": "string"
            },
            {
              "internalType": "string",
              "name": "productName",
              "type": "string"
            },
            {
              "internalType": "string",
              "name": "description",
              "type": "string"
            },
            {
              "internalType": "uint256",
              "name": "price",
              "type": "uint256"
            },
            {
              "internalType": "string",
              "name": "city",
              "type": "string"
            },
            {
              "internalType": "string",
              "name": "country",
              "type": "string"
            },
            {
              "internalType": "uint256",
              "name": "estimatedDays",
              "type": "uint256"
            },
            {
              "internalType": "address payable",
              "name": "sellerAddress",
              "type": "address"
            },
            {
              "internalType": "bool",
              "name": "isSold",
              "type": "bool"
            }
          ],
          "internalType": "struct Jokerzon.Product",
          "name": "",
          "type": "tuple"
        }
      ],
      "payable": false,
      "stateMutability": "nonpayable",
      "type": "function"
    },
    {
      "constant": true,
      "inputs": [],
      "name": "totalProducts",
      "outputs": [
        {
          "internalType": "uint32",
          "name": "",
          "type": "uint32"
        }
      ],
      "payable": false,
      "stateMutability": "view",
      "type": "function"
    },
    {
      "constant": true,
      "inputs": [],
      "name": "getAllProducts",
      "outputs": [
        {
          "components": [
            {
              "internalType": "string",
              "name": "sellerFullName",
              "type": "string"
            },
            {
              "internalType": "string",
              "name": "productName",
              "type": "string"
            },
            {
              "internalType": "string",
              "name": "description",
              "type": "string"
            },
            {
              "internalType": "uint256",
              "name": "price",
              "type": "uint256"
            },
            {
              "internalType": "string",
              "name": "city",
              "type": "string"
            },
            {
              "internalType": "string",
              "name": "country",
              "type": "string"
            },
            {
              "internalType": "uint256",
              "name": "estimatedDays",
              "type": "uint256"
            },
            {
              "internalType": "address payable",
              "name": "sellerAddress",
              "type": "address"
            },
            {
              "internalType": "bool",
              "name": "isSold",
              "type": "bool"
            }
          ],
          "internalType": "struct Jokerzon.Product[]",
          "name": "",
          "type": "tuple[]"
        }
      ],
      "payable": false,
      "stateMutability": "view",
      "type": "function"
    }
  ],
  "bytecode": "0x608060405234801561001057600080fd5b506113cc806100206000396000f3fe608060405234801561001057600080fd5b506004361061004c5760003560e01c806302ee3a52146100515780632bbbe5721461006f5780637acc0b201461009f5780639b9d326d146100d7575b600080fd5b6100596100f5565b60405161006691906110f9565b60405180910390f35b61008960048036036100849190810190610c94565b610504565b60405161009691906111cb565b60405180910390f35b6100b960048036036100b49190810190610daa565b610796565b6040516100ce9998979695949392919061111b565b60405180910390f35b6100df610b16565b6040516100ec91906111ed565b60405180910390f35b60606000805480602002602001604051908101604052809291908181526020016000905b828210156104fb578382906000526020600020906008020160405180610120016040529081600082018054600181600116156101000203166002900480601f0160208091040260200160405190810160405280929190818152602001828054600181600116156101000203166002900480156101d65780601f106101ab576101008083540402835291602001916101d6565b820191906000526020600020905b8154815290600101906020018083116101b957829003601f168201915b50505050508152602001600182018054600181600116156101000203166002900480601f0160208091040260200160405190810160405280929190818152602001828054600181600116156101000203166002900480156102785780601f1061024d57610100808354040283529160200191610278565b820191906000526020600020905b81548152906001019060200180831161025b57829003601f168201915b50505050508152602001600282018054600181600116156101000203166002900480601f01602080910402602001604051908101604052809291908181526020018280546001816001161561010002031660029004801561031a5780601f106102ef5761010080835404028352916020019161031a565b820191906000526020600020905b8154815290600101906020018083116102fd57829003601f168201915b5050505050815260200160038201548152602001600482018054600181600116156101000203166002900480601f0160208091040260200160405190810160405280929190818152602001828054600181600116156101000203166002900480156103c65780601f1061039b576101008083540402835291602001916103c6565b820191906000526020600020905b8154815290600101906020018083116103a957829003601f168201915b50505050508152602001600582018054600181600116156101000203166002900480601f0160208091040260200160405190810160405280929190818152602001828054600181600116156101000203166002900480156104685780601f1061043d57610100808354040283529160200191610468565b820191906000526020600020905b81548152906001019060200180831161044b57829003601f168201915b50505050508152602001600682015481526020016007820160009054906101000a900473ffffffffffffffffffffffffffffffffffffffff1673ffffffffffffffffffffffffffffffffffffffff1673ffffffffffffffffffffffffffffffffffffffff1681526020016007820160149054906101000a900460ff16151515158152505081526020019060010190610119565b50505050905090565b61050c610b22565b600488511015801561052057506014885111155b61052957600080fd5b600387511015801561053d57506028875111155b61054657600080fd5b600586511015801561055b57506103e8865111155b61056457600080fd5b600084511161057257600080fd5b600083511161058057600080fd5b6000851180156105925750620f424085105b61059b57600080fd5b600182101580156105ad5750603c8211155b6105b657600080fd5b6105be610b22565b88816000018190525087816020018190525086816040018190525085816060018181525050848160800181905250838160a00181905250828160c0018181525050338160e0019073ffffffffffffffffffffffffffffffffffffffff16908173ffffffffffffffffffffffffffffffffffffffff1681525050600081610100019015159081151581525050600081908060018154018082558091505090600182039060005260206000209060080201600090919290919091506000820151816000019080519060200190610693929190610b86565b5060208201518160010190805190602001906106b0929190610b86565b5060408201518160020190805190602001906106cd929190610b86565b506060820151816003015560808201518160040190805190602001906106f4929190610b86565b5060a0820151816005019080519060200190610711929190610b86565b5060c0820151816006015560e08201518160070160006101000a81548173ffffffffffffffffffffffffffffffffffffffff021916908373ffffffffffffffffffffffffffffffffffffffff1602179055506101008201518160070160146101000a81548160ff02191690831515021790555050505080915050979650505050505050565b600081815481106107a357fe5b9060005260206000209060080201600091509050806000018054600181600116156101000203166002900480601f01602080910402602001604051908101604052809291908181526020018280546001816001161561010002031660029004801561084f5780601f106108245761010080835404028352916020019161084f565b820191906000526020600020905b81548152906001019060200180831161083257829003601f168201915b505050505090806001018054600181600116156101000203166002900480601f0160208091040260200160405190810160405280929190818152602001828054600181600116156101000203166002900480156108ed5780601f106108c2576101008083540402835291602001916108ed565b820191906000526020600020905b8154815290600101906020018083116108d057829003601f168201915b505050505090806002018054600181600116156101000203166002900480601f01602080910402602001604051908101604052809291908181526020018280546001816001161561010002031660029004801561098b5780601f106109605761010080835404028352916020019161098b565b820191906000526020600020905b81548152906001019060200180831161096e57829003601f168201915b505050505090806003015490806004018054600181600116156101000203166002900480601f016020809104026020016040519081016040528092919081815260200182805460018160011615610100020316600290048015610a2f5780601f10610a0457610100808354040283529160200191610a2f565b820191906000526020600020905b815481529060010190602001808311610a1257829003601f168201915b505050505090806005018054600181600116156101000203166002900480601f016020809104026020016040519081016040528092919081815260200182805460018160011615610100020316600290048015610acd5780601f10610aa257610100808354040283529160200191610acd565b820191906000526020600020905b815481529060010190602001808311610ab057829003601f168201915b5050505050908060060154908060070160009054906101000a900473ffffffffffffffffffffffffffffffffffffffff16908060070160149054906101000a900460ff16905089565b60008080549050905090565b60405180610120016040528060608152602001606081526020016060815260200160008152602001606081526020016060815260200160008152602001600073ffffffffffffffffffffffffffffffffffffffff1681526020016000151581525090565b828054600181600116156101000203166002900490600052602060002090601f016020900481019282601f10610bc757805160ff1916838001178555610bf5565b82800160010185558215610bf5579182015b82811115610bf4578251825591602001919060010190610bd9565b5b509050610c029190610c06565b5090565b610c2891905b80821115610c24576000816000905550600101610c0c565b5090565b90565b600082601f830112610c3c57600080fd5b8135610c4f610c4a82611235565b611208565b91508082526020830160208301858383011115610c6b57600080fd5b610c7683828461131f565b50505092915050565b600081359050610c8e81611372565b92915050565b600080600080600080600060e0888a031215610caf57600080fd5b600088013567ffffffffffffffff811115610cc957600080fd5b610cd58a828b01610c2b565b975050602088013567ffffffffffffffff811115610cf257600080fd5b610cfe8a828b01610c2b565b965050604088013567ffffffffffffffff811115610d1b57600080fd5b610d278a828b01610c2b565b9550506060610d388a828b01610c7f565b945050608088013567ffffffffffffffff811115610d5557600080fd5b610d618a828b01610c2b565b93505060a088013567ffffffffffffffff811115610d7e57600080fd5b610d8a8a828b01610c2b565b92505060c0610d9b8a828b01610c7f565b91505092959891949750929550565b600060208284031215610dbc57600080fd5b6000610dca84828501610c7f565b91505092915050565b6000610ddf8383610feb565b905092915050565b610df0816112c7565b82525050565b610dff816112c7565b82525050565b6000610e1082611271565b610e1a8185611294565b935083602082028501610e2c85611261565b8060005b85811015610e685784840389528151610e498582610dd3565b9450610e5483611287565b925060208a01995050600181019050610e30565b50829750879550505050505092915050565b610e83816112d9565b82525050565b610e92816112d9565b82525050565b6000610ea38261127c565b610ead81856112a5565b9350610ebd81856020860161132e565b610ec681611361565b840191505092915050565b6000610edc8261127c565b610ee681856112b6565b9350610ef681856020860161132e565b610eff81611361565b840191505092915050565b6000610120830160008301518482036000860152610f288282610e98565b91505060208301518482036020860152610f428282610e98565b91505060408301518482036040860152610f5c8282610e98565b9150506060830151610f7160608601826110cc565b5060808301518482036080860152610f898282610e98565b91505060a083015184820360a0860152610fa38282610e98565b91505060c0830151610fb860c08601826110cc565b5060e0830151610fcb60e0860182610de7565b50610100830151610fe0610100860182610e7a565b508091505092915050565b60006101208301600083015184820360008601526110098282610e98565b915050602083015184820360208601526110238282610e98565b9150506040830151848203604086015261103d8282610e98565b915050606083015161105260608601826110cc565b506080830151848203608086015261106a8282610e98565b91505060a083015184820360a08601526110848282610e98565b91505060c083015161109960c08601826110cc565b5060e08301516110ac60e0860182610de7565b506101008301516110c1610100860182610e7a565b508091505092915050565b6110d581611305565b82525050565b6110e481611305565b82525050565b6110f38161130f565b82525050565b600060208201905081810360008301526111138184610e05565b905092915050565b6000610120820190508181036000830152611136818c610ed1565b9050818103602083015261114a818b610ed1565b9050818103604083015261115e818a610ed1565b905061116d60608301896110db565b818103608083015261117f8188610ed1565b905081810360a08301526111938187610ed1565b90506111a260c08301866110db565b6111af60e0830185610df6565b6111bd610100830184610e89565b9a9950505050505050505050565b600060208201905081810360008301526111e58184610f0a565b905092915050565b600060208201905061120260008301846110ea565b92915050565b6000604051905081810181811067ffffffffffffffff8211171561122b57600080fd5b8060405250919050565b600067ffffffffffffffff82111561124c57600080fd5b601f19601f8301169050602081019050919050565b6000819050602082019050919050565b600081519050919050565b600081519050919050565b6000602082019050919050565b600082825260208201905092915050565b600082825260208201905092915050565b600082825260208201905092915050565b60006112d2826112e5565b9050919050565b60008115159050919050565b600073ffffffffffffffffffffffffffffffffffffffff82169050919050565b6000819050919050565b600063ffffffff82169050919050565b82818337600083830152505050565b60005b8381101561134c578082015181840152602081019050611331565b8381111561135b576000848401525b50505050565b6000601f19601f8301169050919050565b61137b81611305565b811461138657600080fd5b5056fea365627a7a7231582059458c370cf9169ac54dfcc6a95ad452e437461291e6f522f65b77c663a9dfc46c6578706572696d656e74616cf564736f6c63430005100040",
  "source": "pragma solidity >=0.4.21 <0.7.5;\r\npragma experimental ABIEncoderV2;\r\n\r\n//There is only one Jokerzon cotract\r\n//contains all the purchases that has been committed\r\ncontract Jokerzon {\r\n    /**\r\n     * Product section\r\n     */\r\n    // The product seller is msg.sender\r\n    // The product is not yet sold\r\n    struct Product {\r\n        string sellerFullName;\r\n        string productName;\r\n        string description;\r\n        uint256 price;\r\n        string city;\r\n        string country;\r\n        uint256 estimatedDays;\r\n        address payable sellerAddress;\r\n        bool isSold;\r\n    }\r\n\r\n    Product[] public products;\r\n\r\n    constructor() public {}\r\n\r\n    function addProduct(\r\n        string memory _sellerFullName,\r\n        string memory _productName,\r\n        string memory _description,\r\n        uint256 _price,\r\n        string memory _city,\r\n        string memory _country,\r\n        uint256 _estimatedDays\r\n    ) public returns (Product memory) {\r\n        // Validating that all the fields are valid\r\n        require(\r\n            bytes(_sellerFullName).length >= 4 &&\r\n                bytes(_sellerFullName).length <= 20\r\n        );\r\n        require(\r\n            bytes(_productName).length >= 3 && bytes(_productName).length <= 40\r\n        );\r\n        require(\r\n            bytes(_description).length >= 5 &&\r\n                bytes(_description).length <= 1000\r\n        );\r\n        require(bytes(_city).length > 0);\r\n        require(bytes(_country).length > 0);\r\n        require(_price > 0 && _price < 1000000);\r\n        require(_estimatedDays >= 1 && _estimatedDays <= 60);\r\n        Product memory newProduct;\r\n        newProduct.sellerFullName = _sellerFullName;\r\n        newProduct.productName = _productName;\r\n        newProduct.description = _description;\r\n        newProduct.price = _price;\r\n        newProduct.city = _city;\r\n        newProduct.country = _country;\r\n        newProduct.estimatedDays = _estimatedDays;\r\n        newProduct.sellerAddress = msg.sender;\r\n        newProduct.isSold = false;\r\n        products.push(newProduct);\r\n        return newProduct;\r\n    }\r\n\r\n    function totalProducts() public view returns (uint32) {\r\n        return (uint32)(products.length);\r\n    }\r\n\r\n    // Returns all the prouducts in the jokerzon contract\r\n    function getAllProducts() external view returns (Product[] memory) {\r\n        return products;\r\n    }\r\n\r\n    /**\r\n     * Product section\r\n     */\r\n}\r\n",
  "sourcePath": "C:/Users/אור/Desktop/Blockchain/Jokerzon/contracts/Jokerzon.sol",
  "compiler": {
    "name": "solc",
    "version": "0.5.16+commit.9c3226ce.Emscripten.clang"
  },
  "schemaVersion": "3.3.3",
  "updatedAt": "2021-02-13T16:53:33.593Z",
  "networkType": "ethereum",
  "devdoc": {
    "methods": {}
  },
  "userdoc": {
    "methods": {}
  }
}