{
  "contractName": "Product",
  "abi": [
    {
      "inputs": [
        {
          "internalType": "string",
          "name": "_sellerFullName",
          "type": "string"
        },
        {
          "internalType": "string",
          "name": "_productName",
          "type": "string"
        },
        {
          "internalType": "string",
          "name": "_description",
          "type": "string"
        },
        {
          "internalType": "uint256",
          "name": "_price",
          "type": "uint256"
        },
        {
          "internalType": "string",
          "name": "_city",
          "type": "string"
        },
        {
          "internalType": "string",
          "name": "_country",
          "type": "string"
        },
        {
          "internalType": "uint256",
          "name": "_estimatedDays",
          "type": "uint256"
        }
      ],
      "payable": false,
      "stateMutability": "nonpayable",
      "type": "constructor"
    },
    {
      "constant": true,
      "inputs": [],
      "name": "city",
      "outputs": [
        {
          "internalType": "string",
          "name": "",
          "type": "string"
        }
      ],
      "payable": false,
      "stateMutability": "view",
      "type": "function"
    },
    {
      "constant": true,
      "inputs": [],
      "name": "country",
      "outputs": [
        {
          "internalType": "string",
          "name": "",
          "type": "string"
        }
      ],
      "payable": false,
      "stateMutability": "view",
      "type": "function"
    },
    {
      "constant": true,
      "inputs": [],
      "name": "description",
      "outputs": [
        {
          "internalType": "string",
          "name": "",
          "type": "string"
        }
      ],
      "payable": false,
      "stateMutability": "view",
      "type": "function"
    },
    {
      "constant": true,
      "inputs": [],
      "name": "estimatedDays",
      "outputs": [
        {
          "internalType": "uint256",
          "name": "",
          "type": "uint256"
        }
      ],
      "payable": false,
      "stateMutability": "view",
      "type": "function"
    },
    {
      "constant": true,
      "inputs": [],
      "name": "isSold",
      "outputs": [
        {
          "internalType": "bool",
          "name": "",
          "type": "bool"
        }
      ],
      "payable": false,
      "stateMutability": "view",
      "type": "function"
    },
    {
      "constant": true,
      "inputs": [],
      "name": "price",
      "outputs": [
        {
          "internalType": "uint256",
          "name": "",
          "type": "uint256"
        }
      ],
      "payable": false,
      "stateMutability": "view",
      "type": "function"
    },
    {
      "constant": true,
      "inputs": [],
      "name": "productName",
      "outputs": [
        {
          "internalType": "string",
          "name": "",
          "type": "string"
        }
      ],
      "payable": false,
      "stateMutability": "view",
      "type": "function"
    },
    {
      "constant": true,
      "inputs": [],
      "name": "sellerAddress",
      "outputs": [
        {
          "internalType": "address payable",
          "name": "",
          "type": "address"
        }
      ],
      "payable": false,
      "stateMutability": "view",
      "type": "function"
    },
    {
      "constant": true,
      "inputs": [],
      "name": "sellerFullName",
      "outputs": [
        {
          "internalType": "string",
          "name": "",
          "type": "string"
        }
      ],
      "payable": false,
      "stateMutability": "view",
      "type": "function"
    },
    {
      "constant": true,
      "inputs": [
        {
          "internalType": "string",
          "name": "_sellerFullName",
          "type": "string"
        },
        {
          "internalType": "string",
          "name": "_productName",
          "type": "string"
        },
        {
          "internalType": "string",
          "name": "_description",
          "type": "string"
        },
        {
          "internalType": "uint256",
          "name": "_price",
          "type": "uint256"
        },
        {
          "internalType": "string",
          "name": "_city",
          "type": "string"
        },
        {
          "internalType": "string",
          "name": "_country",
          "type": "string"
        },
        {
          "internalType": "uint256",
          "name": "_estimatedDays",
          "type": "uint256"
        }
      ],
      "name": "requireAllFields",
      "outputs": [],
      "payable": false,
      "stateMutability": "pure",
      "type": "function"
    },
    {
      "constant": false,
      "inputs": [],
      "name": "setIsSold",
      "outputs": [],
      "payable": false,
      "stateMutability": "nonpayable",
      "type": "function"
    },
    {
      "constant": false,
      "inputs": [
        {
          "internalType": "string",
          "name": "_city",
          "type": "string"
        }
      ],
      "name": "setCity",
      "outputs": [],
      "payable": false,
      "stateMutability": "nonpayable",
      "type": "function"
    },
    {
      "constant": false,
      "inputs": [
        {
          "internalType": "string",
          "name": "_country",
          "type": "string"
        }
      ],
      "name": "setCountry",
      "outputs": [],
      "payable": false,
      "stateMutability": "nonpayable",
      "type": "function"
    },
    {
      "constant": false,
      "inputs": [
        {
          "internalType": "uint256",
          "name": "_price",
          "type": "uint256"
        }
      ],
      "name": "setPrice",
      "outputs": [],
      "payable": false,
      "stateMutability": "nonpayable",
      "type": "function"
    },
    {
      "constant": false,
      "inputs": [
        {
          "internalType": "uint256",
          "name": "_estimatedDays",
          "type": "uint256"
        }
      ],
      "name": "setEstimatedDays",
      "outputs": [],
      "payable": false,
      "stateMutability": "nonpayable",
      "type": "function"
    }
  ],
  "bytecode": "0x60806040523480156200001157600080fd5b50604051620011393803806200113983398181016040526200003791908101906200033e565b6200004e878787878787876200014260201b60201c565b8660009080519060200190620000669291906200021c565b5085600190805190602001906200007f9291906200021c565b508460029080519060200190620000989291906200021c565b50836003819055508260049080519060200190620000b89291906200021c565b508160059080519060200190620000d19291906200021c565b508060068190555033600760006101000a81548173ffffffffffffffffffffffffffffffffffffffff021916908373ffffffffffffffffffffffffffffffffffffffff1602179055506000600760146101000a81548160ff021916908315150217905550505050505050506200051d565b6000875190506000875190506000875190506000865190506000865190506004851015801562000173575060148511155b6200017d57600080fd5b6003841015801562000190575060288411155b6200019a57600080fd5b60058310158015620001ae57506103e88311155b620001b857600080fd5b60008211620001c657600080fd5b60008111620001d457600080fd5b600089118015620001e75750620f424089105b620001f157600080fd5b60018610158015620002045750603c8611155b6200020e57600080fd5b505050505050505050505050565b828054600181600116156101000203166002900490600052602060002090601f016020900481019282601f106200025f57805160ff191683800117855562000290565b8280016001018555821562000290579182015b828111156200028f57825182559160200191906001019062000272565b5b5090506200029f9190620002a3565b5090565b620002c891905b80821115620002c4576000816000905550600101620002aa565b5090565b90565b600082601f830112620002dd57600080fd5b8151620002f4620002ee8262000496565b62000468565b915080825260208301602083018583830111156200031157600080fd5b6200031e838284620004cd565b50505092915050565b600081519050620003388162000503565b92915050565b600080600080600080600060e0888a0312156200035a57600080fd5b600088015167ffffffffffffffff8111156200037557600080fd5b620003838a828b01620002cb565b975050602088015167ffffffffffffffff811115620003a157600080fd5b620003af8a828b01620002cb565b965050604088015167ffffffffffffffff811115620003cd57600080fd5b620003db8a828b01620002cb565b9550506060620003ee8a828b0162000327565b945050608088015167ffffffffffffffff8111156200040c57600080fd5b6200041a8a828b01620002cb565b93505060a088015167ffffffffffffffff8111156200043857600080fd5b620004468a828b01620002cb565b92505060c0620004598a828b0162000327565b91505092959891949750929550565b6000604051905081810181811067ffffffffffffffff821117156200048c57600080fd5b8060405250919050565b600067ffffffffffffffff821115620004ae57600080fd5b601f19601f8301169050602081019050919050565b6000819050919050565b60005b83811015620004ed578082015181840152602081019050620004d0565b83811115620004fd576000848401525b50505050565b6200050e81620004c3565b81146200051a57600080fd5b50565b610c0c806200052d6000396000f3fe608060405234801561001057600080fd5b50600436106100f55760003560e01c806391b7f5ed11610097578063d8b0b49911610066578063d8b0b49914610228578063e852e74114610246578063f07513eb14610264578063fd0160fe14610280576100f5565b806391b7f5ed146101b6578063a035b1fe146101d2578063c1b9f104146101f0578063d1ad6efe1461020c576100f5565b806344b70ec8116100d357806344b70ec8146101405780634f7316ba1461015e5780637284e4161461017a5780637f7650eb14610198576100f5565b80632db4a21f146100fa5780633d9b2ae6146101045780633e74221914610122575b600080fd5b61010261029e565b005b61010c6102ca565b6040516101199190610a2f565b60405180910390f35b61012a6102f0565b6040516101379190610a87565b60405180910390f35b6101486102f6565b6040516101559190610a65565b60405180910390f35b6101786004803603610173919081019061088a565b610394565b005b610182610462565b60405161018f9190610a65565b60405180910390f35b6101a0610500565b6040516101ad9190610a65565b60405180910390f35b6101d060048036036101cb91908101906109a0565b61059e565b005b6101da6105a8565b6040516101e79190610a87565b60405180910390f35b61020a600480360361020591908101906109a0565b6105ae565b005b61022660048036036102219190810190610849565b6105b8565b005b6102306105d2565b60405161023d9190610a65565b60405180910390f35b61024e610670565b60405161025b9190610a4a565b60405180910390f35b61027e60048036036102799190810190610849565b610683565b005b61028861069d565b6040516102959190610a65565b60405180910390f35b600760149054906101000a900460ff1615600760146101000a81548160ff021916908315150217905550565b600760009054906101000a900473ffffffffffffffffffffffffffffffffffffffff1681565b60065481565b60008054600181600116156101000203166002900480601f01602080910402602001604051908101604052809291908181526020018280546001816001161561010002031660029004801561038c5780601f106103615761010080835404028352916020019161038c565b820191906000526020600020905b81548152906001019060200180831161036f57829003601f168201915b505050505081565b600087519050600087519050600087519050600086519050600086519050600485101580156103c4575060148511155b6103cd57600080fd5b600384101580156103df575060288411155b6103e857600080fd5b600583101580156103fb57506103e88311155b61040457600080fd5b6000821161041157600080fd5b6000811161041e57600080fd5b6000891180156104305750620f424089105b61043957600080fd5b6001861015801561044b5750603c8611155b61045457600080fd5b505050505050505050505050565b60028054600181600116156101000203166002900480601f0160208091040260200160405190810160405280929190818152602001828054600181600116156101000203166002900480156104f85780601f106104cd576101008083540402835291602001916104f8565b820191906000526020600020905b8154815290600101906020018083116104db57829003601f168201915b505050505081565b60018054600181600116156101000203166002900480601f0160208091040260200160405190810160405280929190818152602001828054600181600116156101000203166002900480156105965780601f1061056b57610100808354040283529160200191610596565b820191906000526020600020905b81548152906001019060200180831161057957829003601f168201915b505050505081565b8060038190555050565b60035481565b8060068190555050565b80600590805190602001906105ce92919061073b565b5050565b60058054600181600116156101000203166002900480601f0160208091040260200160405190810160405280929190818152602001828054600181600116156101000203166002900480156106685780601f1061063d57610100808354040283529160200191610668565b820191906000526020600020905b81548152906001019060200180831161064b57829003601f168201915b505050505081565b600760149054906101000a900460ff1681565b806004908051906020019061069992919061073b565b5050565b60048054600181600116156101000203166002900480601f0160208091040260200160405190810160405280929190818152602001828054600181600116156101000203166002900480156107335780601f1061070857610100808354040283529160200191610733565b820191906000526020600020905b81548152906001019060200180831161071657829003601f168201915b505050505081565b828054600181600116156101000203166002900490600052602060002090601f016020900481019282601f1061077c57805160ff19168380011785556107aa565b828001600101855582156107aa579182015b828111156107a957825182559160200191906001019061078e565b5b5090506107b791906107bb565b5090565b6107dd91905b808211156107d95760008160009055506001016107c1565b5090565b90565b600082601f8301126107f157600080fd5b81356108046107ff82610acf565b610aa2565b9150808252602083016020830185838301111561082057600080fd5b61082b838284610b5f565b50505092915050565b60008135905061084381610bb2565b92915050565b60006020828403121561085b57600080fd5b600082013567ffffffffffffffff81111561087557600080fd5b610881848285016107e0565b91505092915050565b600080600080600080600060e0888a0312156108a557600080fd5b600088013567ffffffffffffffff8111156108bf57600080fd5b6108cb8a828b016107e0565b975050602088013567ffffffffffffffff8111156108e857600080fd5b6108f48a828b016107e0565b965050604088013567ffffffffffffffff81111561091157600080fd5b61091d8a828b016107e0565b955050606061092e8a828b01610834565b945050608088013567ffffffffffffffff81111561094b57600080fd5b6109578a828b016107e0565b93505060a088013567ffffffffffffffff81111561097457600080fd5b6109808a828b016107e0565b92505060c06109918a828b01610834565b91505092959891949750929550565b6000602082840312156109b257600080fd5b60006109c084828501610834565b91505092915050565b6109d281610b17565b82525050565b6109e181610b29565b82525050565b60006109f282610afb565b6109fc8185610b06565b9350610a0c818560208601610b6e565b610a1581610ba1565b840191505092915050565b610a2981610b55565b82525050565b6000602082019050610a4460008301846109c9565b92915050565b6000602082019050610a5f60008301846109d8565b92915050565b60006020820190508181036000830152610a7f81846109e7565b905092915050565b6000602082019050610a9c6000830184610a20565b92915050565b6000604051905081810181811067ffffffffffffffff82111715610ac557600080fd5b8060405250919050565b600067ffffffffffffffff821115610ae657600080fd5b601f19601f8301169050602081019050919050565b600081519050919050565b600082825260208201905092915050565b6000610b2282610b35565b9050919050565b60008115159050919050565b600073ffffffffffffffffffffffffffffffffffffffff82169050919050565b6000819050919050565b82818337600083830152505050565b60005b83811015610b8c578082015181840152602081019050610b71565b83811115610b9b576000848401525b50505050565b6000601f19601f8301169050919050565b610bbb81610b55565b8114610bc657600080fd5b5056fea365627a7a72315820a187fae2839e72dfa12db33d96d208e659a3be2bf160a5ea801cce2e304e0f6e6c6578706572696d656e74616cf564736f6c63430005100040",
  "source": "pragma solidity >=0.4.21 <=0.7.4;\r\npragma experimental ABIEncoderV2;\r\n\r\n/**\r\n    Product contract is created when the seller offers it for sale\r\n */\r\ncontract Product {\r\n    string public sellerFullName;\r\n    string public productName;\r\n    string public description;\r\n    uint256 public price;\r\n    string public city;\r\n    string public country;\r\n    uint256 public estimatedDays;\r\n\r\n    address payable public sellerAddress;\r\n    bool public isSold;\r\n\r\n    constructor(\r\n        string memory _sellerFullName,\r\n        string memory _productName,\r\n        string memory _description,\r\n        uint256 _price,\r\n        string memory _city,\r\n        string memory _country,\r\n        uint256 _estimatedDays\r\n    ) public {\r\n        requireAllFields(\r\n            _sellerFullName,\r\n            _productName,\r\n            _description,\r\n            _price,\r\n            _city,\r\n            _country,\r\n            _estimatedDays\r\n        );\r\n        sellerFullName = _sellerFullName;\r\n        productName = _productName;\r\n        description = _description;\r\n        price = _price;\r\n        city = _city;\r\n        country = _country;\r\n        estimatedDays = _estimatedDays;\r\n        sellerAddress = msg.sender;\r\n        isSold = false;\r\n    }\r\n\r\n    function requireAllFields(\r\n        string memory _sellerFullName,\r\n        string memory _productName,\r\n        string memory _description,\r\n        uint256 _price,\r\n        string memory _city,\r\n        string memory _country,\r\n        uint256 _estimatedDays\r\n    ) public pure {\r\n        uint256 sellerFullNameLength = bytes(_sellerFullName).length;\r\n        uint256 productNameLength = bytes(_productName).length;\r\n        uint256 descriptionLength = bytes(_description).length;\r\n        uint256 cityLength = bytes(_city).length;\r\n        uint256 countryLength = bytes(_country).length;\r\n        require(sellerFullNameLength >= 4 && sellerFullNameLength <= 20);\r\n        require(productNameLength >= 3 && productNameLength <= 40);\r\n        require(descriptionLength >= 5 && descriptionLength <= 1000);\r\n        require(cityLength > 0);\r\n        require(countryLength > 0);\r\n        require(_price > 0 && _price < 1000000);\r\n        require(_estimatedDays >= 1 && _estimatedDays <= 60);\r\n    }\r\n\r\n    function setIsSold() public {\r\n        isSold = !isSold;\r\n    }\r\n\r\n    function setCity(string memory _city) public {\r\n        city = _city;\r\n    }\r\n\r\n    function setCountry(string memory _country) public {\r\n        country = _country;\r\n    }\r\n\r\n    function setPrice(uint256 _price) public {\r\n        price = _price;\r\n    }\r\n\r\n    function setEstimatedDays(uint256 _estimatedDays) public {\r\n        estimatedDays = _estimatedDays;\r\n    }\r\n}\r\n",
  "sourcePath": "C:\\Users\\אור\\Desktop\\Blockchain\\Jokerzon\\contracts\\Product.sol",
  "compiler": {
    "name": "solc",
    "version": "0.5.16+commit.9c3226ce.Emscripten.clang"
  },
  "schemaVersion": "3.3.3",
  "updatedAt": "2021-02-11T12:32:07.544Z",
  "devdoc": {
    "methods": {}
  },
  "userdoc": {
    "methods": {},
    "notice": "Product contract is created when the seller offers it for sale"
  }
}