{
  "contractName": "Product",
  "abi": [
    {
      "inputs": [
        {
          "internalType": "string",
          "name": "_sellerFullName",
          "type": "string"
        },
        {
          "internalType": "string",
          "name": "_productName",
          "type": "string"
        },
        {
          "internalType": "string",
          "name": "_description",
          "type": "string"
        },
        {
          "internalType": "uint256",
          "name": "_price",
          "type": "uint256"
        },
        {
          "internalType": "string",
          "name": "_city",
          "type": "string"
        },
        {
          "internalType": "string",
          "name": "_country",
          "type": "string"
        },
        {
          "internalType": "uint256",
          "name": "_estimatedDays",
          "type": "uint256"
        }
      ],
      "payable": false,
      "stateMutability": "nonpayable",
      "type": "constructor"
    },
    {
      "constant": true,
      "inputs": [],
      "name": "city",
      "outputs": [
        {
          "internalType": "string",
          "name": "",
          "type": "string"
        }
      ],
      "payable": false,
      "stateMutability": "view",
      "type": "function"
    },
    {
      "constant": true,
      "inputs": [],
      "name": "country",
      "outputs": [
        {
          "internalType": "string",
          "name": "",
          "type": "string"
        }
      ],
      "payable": false,
      "stateMutability": "view",
      "type": "function"
    },
    {
      "constant": true,
      "inputs": [],
      "name": "description",
      "outputs": [
        {
          "internalType": "string",
          "name": "",
          "type": "string"
        }
      ],
      "payable": false,
      "stateMutability": "view",
      "type": "function"
    },
    {
      "constant": true,
      "inputs": [],
      "name": "estimatedDays",
      "outputs": [
        {
          "internalType": "uint256",
          "name": "",
          "type": "uint256"
        }
      ],
      "payable": false,
      "stateMutability": "view",
      "type": "function"
    },
    {
      "constant": true,
      "inputs": [],
      "name": "isSold",
      "outputs": [
        {
          "internalType": "bool",
          "name": "",
          "type": "bool"
        }
      ],
      "payable": false,
      "stateMutability": "view",
      "type": "function"
    },
    {
      "constant": true,
      "inputs": [],
      "name": "price",
      "outputs": [
        {
          "internalType": "uint256",
          "name": "",
          "type": "uint256"
        }
      ],
      "payable": false,
      "stateMutability": "view",
      "type": "function"
    },
    {
      "constant": true,
      "inputs": [],
      "name": "productName",
      "outputs": [
        {
          "internalType": "string",
          "name": "",
          "type": "string"
        }
      ],
      "payable": false,
      "stateMutability": "view",
      "type": "function"
    },
    {
      "constant": true,
      "inputs": [],
      "name": "sellerAddress",
      "outputs": [
        {
          "internalType": "address payable",
          "name": "",
          "type": "address"
        }
      ],
      "payable": false,
      "stateMutability": "view",
      "type": "function"
    },
    {
      "constant": true,
      "inputs": [],
      "name": "sellerFullName",
      "outputs": [
        {
          "internalType": "string",
          "name": "",
          "type": "string"
        }
      ],
      "payable": false,
      "stateMutability": "view",
      "type": "function"
    },
    {
      "constant": true,
      "inputs": [
        {
          "internalType": "string",
          "name": "_sellerFullName",
          "type": "string"
        },
        {
          "internalType": "string",
          "name": "_productName",
          "type": "string"
        },
        {
          "internalType": "string",
          "name": "_description",
          "type": "string"
        },
        {
          "internalType": "uint256",
          "name": "_price",
          "type": "uint256"
        },
        {
          "internalType": "string",
          "name": "_city",
          "type": "string"
        },
        {
          "internalType": "string",
          "name": "_country",
          "type": "string"
        },
        {
          "internalType": "uint256",
          "name": "_estimatedDays",
          "type": "uint256"
        }
      ],
      "name": "requireAllFields",
      "outputs": [],
      "payable": false,
      "stateMutability": "pure",
      "type": "function"
    },
    {
      "constant": false,
      "inputs": [],
      "name": "setIsSold",
      "outputs": [],
      "payable": false,
      "stateMutability": "nonpayable",
      "type": "function"
    }
  ],
  "bytecode": "0x60806040523480156200001157600080fd5b5060405162000f2638038062000f2683398181016040526200003791908101906200033e565b6200004e878787878787876200014260201b60201c565b8660009080519060200190620000669291906200021c565b5085600190805190602001906200007f9291906200021c565b508460029080519060200190620000989291906200021c565b50836003819055508260049080519060200190620000b89291906200021c565b508160059080519060200190620000d19291906200021c565b508060068190555033600760006101000a81548173ffffffffffffffffffffffffffffffffffffffff021916908373ffffffffffffffffffffffffffffffffffffffff1602179055506000600760146101000a81548160ff021916908315150217905550505050505050506200051d565b6000875190506000875190506000875190506000865190506000865190506004851015801562000173575060148511155b6200017d57600080fd5b6003841015801562000190575060288411155b6200019a57600080fd5b60058310158015620001ae57506103e88311155b620001b857600080fd5b60008211620001c657600080fd5b60008111620001d457600080fd5b600089118015620001e75750620f424089105b620001f157600080fd5b60018610158015620002045750603c8611155b6200020e57600080fd5b505050505050505050505050565b828054600181600116156101000203166002900490600052602060002090601f016020900481019282601f106200025f57805160ff191683800117855562000290565b8280016001018555821562000290579182015b828111156200028f57825182559160200191906001019062000272565b5b5090506200029f9190620002a3565b5090565b620002c891905b80821115620002c4576000816000905550600101620002aa565b5090565b90565b600082601f830112620002dd57600080fd5b8151620002f4620002ee8262000496565b62000468565b915080825260208301602083018583830111156200031157600080fd5b6200031e838284620004cd565b50505092915050565b600081519050620003388162000503565b92915050565b600080600080600080600060e0888a0312156200035a57600080fd5b600088015167ffffffffffffffff8111156200037557600080fd5b620003838a828b01620002cb565b975050602088015167ffffffffffffffff811115620003a157600080fd5b620003af8a828b01620002cb565b965050604088015167ffffffffffffffff811115620003cd57600080fd5b620003db8a828b01620002cb565b9550506060620003ee8a828b0162000327565b945050608088015167ffffffffffffffff8111156200040c57600080fd5b6200041a8a828b01620002cb565b93505060a088015167ffffffffffffffff8111156200043857600080fd5b620004468a828b01620002cb565b92505060c0620004598a828b0162000327565b91505092959891949750929550565b6000604051905081810181811067ffffffffffffffff821117156200048c57600080fd5b8060405250919050565b600067ffffffffffffffff821115620004ae57600080fd5b601f19601f8301169050602081019050919050565b6000819050919050565b60005b83811015620004ed578082015181840152602081019050620004d0565b83811115620004fd576000848401525b50505050565b6200050e81620004c3565b81146200051a57600080fd5b50565b6109f9806200052d6000396000f3fe608060405234801561001057600080fd5b50600436106100a95760003560e01c80637284e416116100715780637284e4161461012e5780637f7650eb1461014c578063a035b1fe1461016a578063d8b0b49914610188578063e852e741146101a6578063fd0160fe146101c4576100a9565b80632db4a21f146100ae5780633d9b2ae6146100b85780633e742219146100d657806344b70ec8146100f45780634f7316ba14610112575b600080fd5b6100b66101e2565b005b6100c061020e565b6040516100cd919061081c565b60405180910390f35b6100de610234565b6040516100eb9190610874565b60405180910390f35b6100fc61023a565b6040516101099190610852565b60405180910390f35b61012c600480360361012791908101906106a0565b6102d8565b005b6101366103a6565b6040516101439190610852565b60405180910390f35b610154610444565b6040516101619190610852565b60405180910390f35b6101726104e2565b60405161017f9190610874565b60405180910390f35b6101906104e8565b60405161019d9190610852565b60405180910390f35b6101ae610586565b6040516101bb9190610837565b60405180910390f35b6101cc610599565b6040516101d99190610852565b60405180910390f35b600760149054906101000a900460ff1615600760146101000a81548160ff021916908315150217905550565b600760009054906101000a900473ffffffffffffffffffffffffffffffffffffffff1681565b60065481565b60008054600181600116156101000203166002900480601f0160208091040260200160405190810160405280929190818152602001828054600181600116156101000203166002900480156102d05780601f106102a5576101008083540402835291602001916102d0565b820191906000526020600020905b8154815290600101906020018083116102b357829003601f168201915b505050505081565b60008751905060008751905060008751905060008651905060008651905060048510158015610308575060148511155b61031157600080fd5b60038410158015610323575060288411155b61032c57600080fd5b6005831015801561033f57506103e88311155b61034857600080fd5b6000821161035557600080fd5b6000811161036257600080fd5b6000891180156103745750620f424089105b61037d57600080fd5b6001861015801561038f5750603c8611155b61039857600080fd5b505050505050505050505050565b60028054600181600116156101000203166002900480601f01602080910402602001604051908101604052809291908181526020018280546001816001161561010002031660029004801561043c5780601f106104115761010080835404028352916020019161043c565b820191906000526020600020905b81548152906001019060200180831161041f57829003601f168201915b505050505081565b60018054600181600116156101000203166002900480601f0160208091040260200160405190810160405280929190818152602001828054600181600116156101000203166002900480156104da5780601f106104af576101008083540402835291602001916104da565b820191906000526020600020905b8154815290600101906020018083116104bd57829003601f168201915b505050505081565b60035481565b60058054600181600116156101000203166002900480601f01602080910402602001604051908101604052809291908181526020018280546001816001161561010002031660029004801561057e5780601f106105535761010080835404028352916020019161057e565b820191906000526020600020905b81548152906001019060200180831161056157829003601f168201915b505050505081565b600760149054906101000a900460ff1681565b60048054600181600116156101000203166002900480601f01602080910402602001604051908101604052809291908181526020018280546001816001161561010002031660029004801561062f5780601f106106045761010080835404028352916020019161062f565b820191906000526020600020905b81548152906001019060200180831161061257829003601f168201915b505050505081565b600082601f83011261064857600080fd5b813561065b610656826108bc565b61088f565b9150808252602083016020830185838301111561067757600080fd5b61068283828461094c565b50505092915050565b60008135905061069a8161099f565b92915050565b600080600080600080600060e0888a0312156106bb57600080fd5b600088013567ffffffffffffffff8111156106d557600080fd5b6106e18a828b01610637565b975050602088013567ffffffffffffffff8111156106fe57600080fd5b61070a8a828b01610637565b965050604088013567ffffffffffffffff81111561072757600080fd5b6107338a828b01610637565b95505060606107448a828b0161068b565b945050608088013567ffffffffffffffff81111561076157600080fd5b61076d8a828b01610637565b93505060a088013567ffffffffffffffff81111561078a57600080fd5b6107968a828b01610637565b92505060c06107a78a828b0161068b565b91505092959891949750929550565b6107bf81610904565b82525050565b6107ce81610916565b82525050565b60006107df826108e8565b6107e981856108f3565b93506107f981856020860161095b565b6108028161098e565b840191505092915050565b61081681610942565b82525050565b600060208201905061083160008301846107b6565b92915050565b600060208201905061084c60008301846107c5565b92915050565b6000602082019050818103600083015261086c81846107d4565b905092915050565b6000602082019050610889600083018461080d565b92915050565b6000604051905081810181811067ffffffffffffffff821117156108b257600080fd5b8060405250919050565b600067ffffffffffffffff8211156108d357600080fd5b601f19601f8301169050602081019050919050565b600081519050919050565b600082825260208201905092915050565b600061090f82610922565b9050919050565b60008115159050919050565b600073ffffffffffffffffffffffffffffffffffffffff82169050919050565b6000819050919050565b82818337600083830152505050565b60005b8381101561097957808201518184015260208101905061095e565b83811115610988576000848401525b50505050565b6000601f19601f8301169050919050565b6109a881610942565b81146109b357600080fd5b5056fea365627a7a7231582025bd8347ba69a1a698a25eb4be51f9472929e229f285fb78af042bc74c99a6776c6578706572696d656e74616cf564736f6c63430005100040",
  "source": "pragma solidity >=0.4.21 <=0.7.4;\r\npragma experimental ABIEncoderV2;\r\n\r\n/**\r\n    Product contract is created when the seller offers it for sale\r\n */\r\n\r\ncontract Product {\r\n    string public sellerFullName;\r\n    string public productName;\r\n    string public description;\r\n    uint256 public price;\r\n    string public city;\r\n    string public country;\r\n    uint256 public estimatedDays;\r\n\r\n    address payable public sellerAddress;\r\n    bool public isSold;\r\n\r\n    constructor(\r\n        string memory _sellerFullName,\r\n        string memory _productName,\r\n        string memory _description,\r\n        uint256 _price,\r\n        string memory _city,\r\n        string memory _country,\r\n        uint256 _estimatedDays\r\n    ) public {\r\n        requireAllFields(\r\n            _sellerFullName,\r\n            _productName,\r\n            _description,\r\n            _price,\r\n            _city,\r\n            _country,\r\n            _estimatedDays\r\n        );\r\n        sellerFullName = _sellerFullName;\r\n        productName = _productName;\r\n        description = _description;\r\n        price = _price;\r\n        city = _city;\r\n        country = _country;\r\n        estimatedDays = _estimatedDays;\r\n        sellerAddress = msg.sender;\r\n        isSold = false;\r\n    }\r\n\r\n    function requireAllFields(\r\n        string memory _sellerFullName,\r\n        string memory _productName,\r\n        string memory _description,\r\n        uint256 _price,\r\n        string memory _city,\r\n        string memory _country,\r\n        uint256 _estimatedDays\r\n    ) public pure {\r\n        uint256 sellerFullNameLength = bytes(_sellerFullName).length;\r\n        uint256 productNameLength = bytes(_productName).length;\r\n        uint256 descriptionLength = bytes(_description).length;\r\n        uint256 cityLength = bytes(_city).length;\r\n        uint256 countryLength = bytes(_country).length;\r\n        require(sellerFullNameLength >= 4 && sellerFullNameLength <= 20);\r\n        require(productNameLength >= 3 && productNameLength <= 40);\r\n        require(descriptionLength >= 5 && descriptionLength <= 1000);\r\n        require(cityLength > 0);\r\n        require(countryLength > 0);\r\n        require(_price > 0 && _price < 1000000);\r\n        require(_estimatedDays >= 1 && _estimatedDays <= 60);\r\n    }\r\n\r\n    function setIsSold() public {\r\n        isSold = !isSold;\r\n    }\r\n}\r\n",
  "sourcePath": "C:/Users/אור/Desktop/Blockchain/Jokerzon/contracts/Product.sol",
  "compiler": {
    "name": "solc",
    "version": "0.5.16+commit.9c3226ce.Emscripten.clang"
  },
  "schemaVersion": "3.3.3",
  "updatedAt": "2021-02-08T17:36:15.435Z",
  "networkType": "ethereum",
  "devdoc": {
    "methods": {}
  },
  "userdoc": {
    "methods": {},
    "notice": "Product contract is created when the seller offers it for sale"
  }
}