{
  "contractName": "Product",
  "abi": [
    {
      "inputs": [
        {
          "internalType": "string",
          "name": "_name",
          "type": "string"
        },
        {
          "internalType": "string",
          "name": "_description",
          "type": "string"
        },
        {
          "internalType": "uint256",
          "name": "_price",
          "type": "uint256"
        }
      ],
      "payable": false,
      "stateMutability": "nonpayable",
      "type": "constructor"
    },
    {
      "constant": true,
      "inputs": [],
      "name": "item",
      "outputs": [
        {
          "internalType": "string",
          "name": "name",
          "type": "string"
        },
        {
          "internalType": "string",
          "name": "description",
          "type": "string"
        },
        {
          "internalType": "uint256",
          "name": "publishedDate",
          "type": "uint256"
        },
        {
          "internalType": "uint256",
          "name": "price",
          "type": "uint256"
        }
      ],
      "payable": false,
      "stateMutability": "view",
      "type": "function"
    },
    {
      "constant": true,
      "inputs": [],
      "name": "seller",
      "outputs": [
        {
          "internalType": "address payable",
          "name": "",
          "type": "address"
        }
      ],
      "payable": false,
      "stateMutability": "view",
      "type": "function"
    },
    {
      "constant": true,
      "inputs": [
        {
          "internalType": "string",
          "name": "_name",
          "type": "string"
        },
        {
          "internalType": "string",
          "name": "_description",
          "type": "string"
        },
        {
          "internalType": "uint256",
          "name": "price",
          "type": "uint256"
        }
      ],
      "name": "requireAll",
      "outputs": [],
      "payable": false,
      "stateMutability": "pure",
      "type": "function"
    },
    {
      "constant": true,
      "inputs": [],
      "name": "getPrice",
      "outputs": [
        {
          "internalType": "uint256",
          "name": "",
          "type": "uint256"
        }
      ],
      "payable": false,
      "stateMutability": "view",
      "type": "function"
    },
    {
      "constant": true,
      "inputs": [],
      "name": "getSellerAddress",
      "outputs": [
        {
          "internalType": "address payable",
          "name": "",
          "type": "address"
        }
      ],
      "payable": false,
      "stateMutability": "view",
      "type": "function"
    },
    {
      "constant": true,
      "inputs": [],
      "name": "getName",
      "outputs": [
        {
          "internalType": "string",
          "name": "",
          "type": "string"
        }
      ],
      "payable": false,
      "stateMutability": "view",
      "type": "function"
    },
    {
      "constant": true,
      "inputs": [],
      "name": "getDescription",
      "outputs": [
        {
          "internalType": "string",
          "name": "",
          "type": "string"
        }
      ],
      "payable": false,
      "stateMutability": "view",
      "type": "function"
    },
    {
      "constant": true,
      "inputs": [],
      "name": "getItem",
      "outputs": [
        {
          "components": [
            {
              "internalType": "string",
              "name": "name",
              "type": "string"
            },
            {
              "internalType": "string",
              "name": "description",
              "type": "string"
            },
            {
              "internalType": "uint256",
              "name": "publishedDate",
              "type": "uint256"
            },
            {
              "internalType": "uint256",
              "name": "price",
              "type": "uint256"
            }
          ],
          "internalType": "struct Product.Item",
          "name": "",
          "type": "tuple"
        }
      ],
      "payable": false,
      "stateMutability": "view",
      "type": "function"
    }
  ],
  "bytecode": "0x60806040523480156200001157600080fd5b5060405162000e5938038062000e59833981810160405262000037919081019062000260565b6200004a8383836200010b60201b60201c565b6040518060800160405280848152602001838152602001428152602001828152506000808201518160000190805190602001906200008a9291906200013e565b506020820151816001019080519060200190620000a99291906200013e565b50604082015181600201556060820151816003015590505033600460006101000a81548173ffffffffffffffffffffffffffffffffffffffff021916908373ffffffffffffffffffffffffffffffffffffffff1602179055505050506200039d565b6000835114156200011b57600080fd5b6000825114156200012b57600080fd5b600081116200013957600080fd5b505050565b828054600181600116156101000203166002900490600052602060002090601f016020900481019282601f106200018157805160ff1916838001178555620001b2565b82800160010185558215620001b2579182015b82811115620001b157825182559160200191906001019062000194565b5b509050620001c19190620001c5565b5090565b620001ea91905b80821115620001e6576000816000905550600101620001cc565b5090565b90565b600082601f830112620001ff57600080fd5b815162000216620002108262000316565b620002e8565b915080825260208301602083018583830111156200023357600080fd5b620002408382846200034d565b50505092915050565b6000815190506200025a8162000383565b92915050565b6000806000606084860312156200027657600080fd5b600084015167ffffffffffffffff8111156200029157600080fd5b6200029f86828701620001ed565b935050602084015167ffffffffffffffff811115620002bd57600080fd5b620002cb86828701620001ed565b9250506040620002de8682870162000249565b9150509250925092565b6000604051905081810181811067ffffffffffffffff821117156200030c57600080fd5b8060405250919050565b600067ffffffffffffffff8211156200032e57600080fd5b601f19601f8301169050602081019050919050565b6000819050919050565b60005b838110156200036d57808201518184015260208101905062000350565b838111156200037d576000848401525b50505050565b6200038e8162000343565b81146200039a57600080fd5b50565b610aac80620003ad6000396000f3fe608060405234801561001057600080fd5b50600436106100885760003560e01c80638e59fb4f1161005b5780638e59fb4f1461010557806398d5fdca14610121578063c412eaba1461013f578063f2a4a82e1461015d57610088565b806308551a531461008d57806317d7de7c146100ab5780631a092541146100c957806384b09e86146100e7575b600080fd5b61009561017e565b6040516100a29190610865565b60405180910390f35b6100b36101a4565b6040516100c09190610880565b60405180910390f35b6100d1610248565b6040516100de9190610880565b60405180910390f35b6100ef6102ed565b6040516100fc9190610865565b60405180910390f35b61011f600480360361011a91908101906106a4565b610317565b005b610129610347565b6040516101369190610917565b60405180910390f35b610147610353565b60405161015491906108f5565b60405180910390f35b6101656104c5565b60405161017594939291906108a2565b60405180910390f35b600460009054906101000a900473ffffffffffffffffffffffffffffffffffffffff1681565b6060600080018054600181600116156101000203166002900480601f01602080910402602001604051908101604052809291908181526020018280546001816001161561010002031660029004801561023e5780601f106102135761010080835404028352916020019161023e565b820191906000526020600020905b81548152906001019060200180831161022157829003601f168201915b5050505050905090565b606060006001018054600181600116156101000203166002900480601f0160208091040260200160405190810160405280929190818152602001828054600181600116156101000203166002900480156102e35780601f106102b8576101008083540402835291602001916102e3565b820191906000526020600020905b8154815290600101906020018083116102c657829003601f168201915b5050505050905090565b6000600460009054906101000a900473ffffffffffffffffffffffffffffffffffffffff16905090565b60008351141561032657600080fd5b60008251141561033557600080fd5b6000811161034257600080fd5b505050565b60008060030154905090565b61035b610613565b6000604051806080016040529081600082018054600181600116156101000203166002900480601f0160208091040260200160405190810160405280929190818152602001828054600181600116156101000203166002900480156104015780601f106103d657610100808354040283529160200191610401565b820191906000526020600020905b8154815290600101906020018083116103e457829003601f168201915b50505050508152602001600182018054600181600116156101000203166002900480601f0160208091040260200160405190810160405280929190818152602001828054600181600116156101000203166002900480156104a35780601f10610478576101008083540402835291602001916104a3565b820191906000526020600020905b81548152906001019060200180831161048657829003601f168201915b5050505050815260200160028201548152602001600382015481525050905090565b6000806000018054600181600116156101000203166002900480601f01602080910402602001604051908101604052809291908181526020018280546001816001161561010002031660029004801561055f5780601f106105345761010080835404028352916020019161055f565b820191906000526020600020905b81548152906001019060200180831161054257829003601f168201915b505050505090806001018054600181600116156101000203166002900480601f0160208091040260200160405190810160405280929190818152602001828054600181600116156101000203166002900480156105fd5780601f106105d2576101008083540402835291602001916105fd565b820191906000526020600020905b8154815290600101906020018083116105e057829003601f168201915b5050505050908060020154908060030154905084565b6040518060800160405280606081526020016060815260200160008152602001600081525090565b600082601f83011261064c57600080fd5b813561065f61065a8261095f565b610932565b9150808252602083016020830185838301111561067b57600080fd5b6106868382846109ff565b50505092915050565b60008135905061069e81610a52565b92915050565b6000806000606084860312156106b957600080fd5b600084013567ffffffffffffffff8111156106d357600080fd5b6106df8682870161063b565b935050602084013567ffffffffffffffff8111156106fc57600080fd5b6107088682870161063b565b92505060406107198682870161068f565b9150509250925092565b61072c816109c3565b82525050565b600061073d82610996565b61074781856109b2565b9350610757818560208601610a0e565b61076081610a41565b840191505092915050565b60006107768261098b565b61078081856109a1565b9350610790818560208601610a0e565b61079981610a41565b840191505092915050565b60006107af8261098b565b6107b981856109b2565b93506107c9818560208601610a0e565b6107d281610a41565b840191505092915050565b600060808301600083015184820360008601526107fa828261076b565b91505060208301518482036020860152610814828261076b565b91505060408301516108296040860182610847565b50606083015161083c6060860182610847565b508091505092915050565b610850816109f5565b82525050565b61085f816109f5565b82525050565b600060208201905061087a6000830184610723565b92915050565b6000602082019050818103600083015261089a8184610732565b905092915050565b600060808201905081810360008301526108bc81876107a4565b905081810360208301526108d081866107a4565b90506108df6040830185610856565b6108ec6060830184610856565b95945050505050565b6000602082019050818103600083015261090f81846107dd565b905092915050565b600060208201905061092c6000830184610856565b92915050565b6000604051905081810181811067ffffffffffffffff8211171561095557600080fd5b8060405250919050565b600067ffffffffffffffff82111561097657600080fd5b601f19601f8301169050602081019050919050565b600081519050919050565b600081519050919050565b600082825260208201905092915050565b600082825260208201905092915050565b60006109ce826109d5565b9050919050565b600073ffffffffffffffffffffffffffffffffffffffff82169050919050565b6000819050919050565b82818337600083830152505050565b60005b83811015610a2c578082015181840152602081019050610a11565b83811115610a3b576000848401525b50505050565b6000601f19601f8301169050919050565b610a5b816109f5565b8114610a6657600080fd5b5056fea365627a7a72315820121389b0d47956ebc0ee7cc59c025e54a6225543f095ce6c9acdeb0464a70ef46c6578706572696d656e74616cf564736f6c63430005100040",
  "source": "pragma solidity >=0.4.21 <=0.7.4;\r\npragma experimental ABIEncoderV2;\r\n\r\n/**\r\n    Product contract is created when the seller offers it for sale\r\n */\r\n\r\ncontract Product {\r\n    struct Item {\r\n        string name;\r\n        string description;\r\n        uint256 publishedDate;\r\n        uint256 price;\r\n    }\r\n    Item public item;\r\n\r\n    address payable public seller;\r\n\r\n    //Date is given right after the contract has been created\r\n    constructor(\r\n        string memory _name,\r\n        string memory _description,\r\n        uint256 _price\r\n    ) public {\r\n        requireAll(_name, _description, _price);\r\n        item = Item(_name, _description, block.timestamp, _price);\r\n        seller = msg.sender;\r\n    }\r\n\r\n    //Saving smell code, all the fields must be validated, so I created a function :-)\r\n    function requireAll(\r\n        string memory _name,\r\n        string memory _description,\r\n        uint256 price\r\n    ) public pure {\r\n        require(bytes(_name).length != 0);\r\n        require(bytes(_description).length != 0);\r\n        require(price > 0);\r\n    }\r\n\r\n    function getPrice() public view returns (uint256) {\r\n        return item.price;\r\n    }\r\n\r\n    function getSellerAddress() public view returns (address payable) {\r\n        return seller;\r\n    }\r\n\r\n    function getName() public view returns (string memory) {\r\n        return item.name;\r\n    }\r\n\r\n    function getDescription() public view returns (string memory) {\r\n        return item.description;\r\n    }\r\n\r\n    function getItem() public view returns (Item memory) {\r\n        return item;\r\n    }\r\n}\r\n",
  "sourcePath": "C:/Users/אור/Desktop/Blockchain/Jokerzon/contracts/Product.sol",
  "compiler": {
    "name": "solc",
    "version": "0.5.16+commit.9c3226ce.Emscripten.clang"
  },
  "schemaVersion": "3.3.3",
  "updatedAt": "2021-02-05T20:44:54.775Z",
  "devdoc": {
    "methods": {}
  },
  "userdoc": {
    "methods": {},
    "notice": "Product contract is created when the seller offers it for sale"
  }
}