{
  "contractName": "Product",
  "abi": [
    {
      "inputs": [
        {
          "internalType": "string",
          "name": "_sellerFullName",
          "type": "string"
        },
        {
          "internalType": "string",
          "name": "_productName",
          "type": "string"
        },
        {
          "internalType": "string",
          "name": "_description",
          "type": "string"
        },
        {
          "internalType": "uint256",
          "name": "_price",
          "type": "uint256"
        },
        {
          "internalType": "string",
          "name": "_city",
          "type": "string"
        },
        {
          "internalType": "string",
          "name": "_country",
          "type": "string"
        },
        {
          "internalType": "uint256",
          "name": "_estimatedDays",
          "type": "uint256"
        }
      ],
      "payable": false,
      "stateMutability": "nonpayable",
      "type": "constructor"
    },
    {
      "constant": true,
      "inputs": [
        {
          "internalType": "string",
          "name": "_sellerFullName",
          "type": "string"
        },
        {
          "internalType": "string",
          "name": "_productName",
          "type": "string"
        },
        {
          "internalType": "string",
          "name": "_description",
          "type": "string"
        },
        {
          "internalType": "uint256",
          "name": "_price",
          "type": "uint256"
        },
        {
          "internalType": "string",
          "name": "_city",
          "type": "string"
        },
        {
          "internalType": "string",
          "name": "_country",
          "type": "string"
        },
        {
          "internalType": "uint256",
          "name": "_estimatedDays",
          "type": "uint256"
        }
      ],
      "name": "requireAllFields",
      "outputs": [],
      "payable": false,
      "stateMutability": "pure",
      "type": "function"
    }
  ],
  "bytecode": "0x608060405234801561001057600080fd5b506040516108433803806108438339818101604052610032919081019061030c565b6100478787878787878761013060201b60201c565b866000908051906020019061005d9291906101fe565b5085600190805190602001906100749291906101fe565b50846002908051906020019061008b9291906101fe565b508360038190555082600490805190602001906100a99291906101fe565b5081600590805190602001906100c09291906101fe565b508060068190555033600760006101000a81548173ffffffffffffffffffffffffffffffffffffffff021916908373ffffffffffffffffffffffffffffffffffffffff1602179055506000600760146101000a81548160ff021916908315150217905550505050505050506104cf565b60008751905060008751905060008751905060008651905060008651905060048510158015610160575060148511155b61016957600080fd5b6003841015801561017b575060288411155b61018457600080fd5b6005831015801561019757506103e88311155b6101a057600080fd5b600082116101ad57600080fd5b600081116101ba57600080fd5b6000891180156101cc5750620f424089105b6101d557600080fd5b600186101580156101e75750603c8611155b6101f057600080fd5b505050505050505050505050565b828054600181600116156101000203166002900490600052602060002090601f016020900481019282601f1061023f57805160ff191683800117855561026d565b8280016001018555821561026d579182015b8281111561026c578251825591602001919060010190610251565b5b50905061027a919061027e565b5090565b6102a091905b8082111561029c576000816000905550600101610284565b5090565b90565b600082601f8301126102b457600080fd5b81516102c76102c28261044f565b610422565b915080825260208301602083018583830111156102e357600080fd5b6102ee838284610485565b50505092915050565b600081519050610306816104b8565b92915050565b600080600080600080600060e0888a03121561032757600080fd5b600088015167ffffffffffffffff81111561034157600080fd5b61034d8a828b016102a3565b975050602088015167ffffffffffffffff81111561036a57600080fd5b6103768a828b016102a3565b965050604088015167ffffffffffffffff81111561039357600080fd5b61039f8a828b016102a3565b95505060606103b08a828b016102f7565b945050608088015167ffffffffffffffff8111156103cd57600080fd5b6103d98a828b016102a3565b93505060a088015167ffffffffffffffff8111156103f657600080fd5b6104028a828b016102a3565b92505060c06104138a828b016102f7565b91505092959891949750929550565b6000604051905081810181811067ffffffffffffffff8211171561044557600080fd5b8060405250919050565b600067ffffffffffffffff82111561046657600080fd5b601f19601f8301169050602081019050919050565b6000819050919050565b60005b838110156104a3578082015181840152602081019050610488565b838111156104b2576000848401525b50505050565b6104c18161047b565b81146104cc57600080fd5b50565b610365806104de6000396000f3fe608060405234801561001057600080fd5b506004361061002b5760003560e01c80634f7316ba14610030575b600080fd5b61004a60048036036100459190810190610183565b61004c565b005b6000875190506000875190506000875190506000865190506000865190506004851015801561007c575060148511155b61008557600080fd5b60038410158015610097575060288411155b6100a057600080fd5b600583101580156100b357506103e88311155b6100bc57600080fd5b600082116100c957600080fd5b600081116100d657600080fd5b6000891180156100e85750620f424089105b6100f157600080fd5b600186101580156101035750603c8611155b61010c57600080fd5b505050505050505050505050565b600082601f83011261012b57600080fd5b813561013e610139826102c6565b610299565b9150808252602083016020830185838301111561015a57600080fd5b6101658382846102fc565b50505092915050565b60008135905061017d8161030b565b92915050565b600080600080600080600060e0888a03121561019e57600080fd5b600088013567ffffffffffffffff8111156101b857600080fd5b6101c48a828b0161011a565b975050602088013567ffffffffffffffff8111156101e157600080fd5b6101ed8a828b0161011a565b965050604088013567ffffffffffffffff81111561020a57600080fd5b6102168a828b0161011a565b95505060606102278a828b0161016e565b945050608088013567ffffffffffffffff81111561024457600080fd5b6102508a828b0161011a565b93505060a088013567ffffffffffffffff81111561026d57600080fd5b6102798a828b0161011a565b92505060c061028a8a828b0161016e565b91505092959891949750929550565b6000604051905081810181811067ffffffffffffffff821117156102bc57600080fd5b8060405250919050565b600067ffffffffffffffff8211156102dd57600080fd5b601f19601f8301169050602081019050919050565b6000819050919050565b82818337600083830152505050565b610314816102f2565b811461031f57600080fd5b5056fea365627a7a723158207e065d52ae97227f9321a31b9a77f0615b3f02ab8a7e8aa40ce08bc9cafd57cf6c6578706572696d656e74616cf564736f6c63430005100040",
  "source": "pragma solidity >=0.4.21 <=0.7.4;\r\npragma experimental ABIEncoderV2;\r\n\r\n/**\r\n    Product contract is created when the seller offers it for sale\r\n */\r\n\r\ncontract Product {\r\n    string sellerFullName;\r\n    string productName;\r\n    string description;\r\n    uint256 price;\r\n    string city;\r\n    string country;\r\n    uint256 estimatedDays;\r\n\r\n    address payable sellerAddress;\r\n    bool isSold;\r\n\r\n    constructor(\r\n        string memory _sellerFullName,\r\n        string memory _productName,\r\n        string memory _description,\r\n        uint256 _price,\r\n        string memory _city,\r\n        string memory _country,\r\n        uint256 _estimatedDays\r\n    ) public {\r\n        requireAllFields(\r\n            _sellerFullName,\r\n            _productName,\r\n            _description,\r\n            _price,\r\n            _city,\r\n            _country,\r\n            _estimatedDays\r\n        );\r\n        sellerFullName = _sellerFullName;\r\n        productName = _productName;\r\n        description = _description;\r\n        price = _price;\r\n        city = _city;\r\n        country = _country;\r\n        estimatedDays = _estimatedDays;\r\n        sellerAddress = msg.sender;\r\n        isSold = false;\r\n    }\r\n\r\n    function requireAllFields(\r\n        string memory _sellerFullName,\r\n        string memory _productName,\r\n        string memory _description,\r\n        uint256 _price,\r\n        string memory _city,\r\n        string memory _country,\r\n        uint256 _estimatedDays\r\n    ) public pure {\r\n        uint256 sellerFullNameLength = bytes(_sellerFullName).length;\r\n        uint256 productNameLength = bytes(_productName).length;\r\n        uint256 descriptionLength = bytes(_description).length;\r\n        uint256 cityLength = bytes(_city).length;\r\n        uint256 countryLength = bytes(_country).length;\r\n        require(sellerFullNameLength >= 4 && sellerFullNameLength <= 20);\r\n        require(productNameLength >= 3 && productNameLength <= 40);\r\n        require(descriptionLength >= 5 && descriptionLength <= 1000);\r\n        require(cityLength > 0);\r\n        require(countryLength > 0);\r\n        require(_price > 0 && _price < 1000000);\r\n        require(_estimatedDays >= 1 && _estimatedDays <= 60);\r\n    }\r\n}\r\n",
  "sourcePath": "C:/Users/אור/Desktop/Blockchain/Jokerzon/contracts/Product.sol",
  "compiler": {
    "name": "solc",
    "version": "0.5.16+commit.9c3226ce.Emscripten.clang"
  },
  "schemaVersion": "3.3.3",
  "updatedAt": "2021-02-07T17:42:00.334Z",
  "devdoc": {
    "methods": {}
  },
  "userdoc": {
    "methods": {},
    "notice": "Product contract is created when the seller offers it for sale"
  }
}