{
  "contractName": "Purchase",
  "abi": [
    {
      "inputs": [
        {
          "internalType": "contract Product",
          "name": "_product",
          "type": "address"
        }
      ],
      "payable": false,
      "stateMutability": "nonpayable",
      "type": "constructor"
    },
    {
      "constant": true,
      "inputs": [],
      "name": "buyer",
      "outputs": [
        {
          "internalType": "address payable",
          "name": "",
          "type": "address"
        }
      ],
      "payable": false,
      "stateMutability": "view",
      "type": "function"
    },
    {
      "constant": true,
      "inputs": [],
      "name": "product",
      "outputs": [
        {
          "internalType": "contract Product",
          "name": "",
          "type": "address"
        }
      ],
      "payable": false,
      "stateMutability": "view",
      "type": "function"
    },
    {
      "constant": false,
      "inputs": [],
      "name": "commitPurchase",
      "outputs": [],
      "payable": false,
      "stateMutability": "nonpayable",
      "type": "function"
    },
    {
      "constant": true,
      "inputs": [],
      "name": "returnData",
      "outputs": [
        {
          "internalType": "bool",
          "name": "",
          "type": "bool"
        }
      ],
      "payable": false,
      "stateMutability": "view",
      "type": "function"
    }
  ],
  "bytecode": "0x608060405234801561001057600080fd5b506040516103fa3803806103fa8339818101604052602081101561003357600080fd5b8101908080519060200190929190505050806000806101000a81548173ffffffffffffffffffffffffffffffffffffffff021916908373ffffffffffffffffffffffffffffffffffffffff16021790555033600160006101000a81548173ffffffffffffffffffffffffffffffffffffffff021916908373ffffffffffffffffffffffffffffffffffffffff16021790555050610325806100d56000396000f3fe608060405234801561001057600080fd5b506004361061004c5760003560e01c806320992bfa146100515780637150d8ae1461005b578063bf9ce952146100a5578063ebddbaf6146100ef575b600080fd5b610059610111565b005b61006361029c565b604051808273ffffffffffffffffffffffffffffffffffffffff1673ffffffffffffffffffffffffffffffffffffffff16815260200191505060405180910390f35b6100ad6102c2565b604051808273ffffffffffffffffffffffffffffffffffffffff1673ffffffffffffffffffffffffffffffffffffffff16815260200191505060405180910390f35b6100f76102e7565b604051808215151515815260200191505060405180910390f35b6000809054906101000a900473ffffffffffffffffffffffffffffffffffffffff1673ffffffffffffffffffffffffffffffffffffffff166384b09e866040518163ffffffff1660e01b815260040160206040518083038186803b15801561017857600080fd5b505afa15801561018c573d6000803e3d6000fd5b505050506040513d60208110156101a257600080fd5b810190808051906020019092919050505073ffffffffffffffffffffffffffffffffffffffff166108fc6000809054906101000a900473ffffffffffffffffffffffffffffffffffffffff1673ffffffffffffffffffffffffffffffffffffffff166398d5fdca6040518163ffffffff1660e01b815260040160206040518083038186803b15801561023357600080fd5b505afa158015610247573d6000803e3d6000fd5b505050506040513d602081101561025d57600080fd5b81019080805190602001909291905050509081150290604051600060405180830381858888f19350505050158015610299573d6000803e3d6000fd5b50565b600160009054906101000a900473ffffffffffffffffffffffffffffffffffffffff1681565b6000809054906101000a900473ffffffffffffffffffffffffffffffffffffffff1681565b6000600190509056fea265627a7a7231582050e2b7e45a21becd96627e692122e2bff0febab1f5c9e459c8155c5e656f7fc864736f6c63430005100032",
  "source": "pragma solidity >=0.4.21 <0.7.5;\r\nimport \"./Product.sol\";\r\n\r\ncontract Purchase {\r\n    Product public product;\r\n    address payable public buyer;\r\n\r\n    constructor(Product _product) public {\r\n        product = _product;\r\n        buyer = msg.sender;\r\n    }\r\n\r\n    //Transfer the money between the seller and the buyer\r\n    function commitPurchase() public {\r\n        product.getSellerAddress().transfer(product.getPrice());\r\n    }\r\n\r\n    function returnData()\r\n        public\r\n        view\r\n        returns (\r\n            bool /*\r\n            address payable,\r\n            string memory,\r\n            string memory,\r\n            uint256,\r\n            address payable*/\r\n        )\r\n    {\r\n        return (\r\n            true\r\n            /*buyer,\r\n            product.getName(),\r\n            product.getDescription(),\r\n            product.getPrice(),\r\n            product.getSellerAddress()*/\r\n        );\r\n    }\r\n}\r\n",
  "sourcePath": "C:/Users/אור/Desktop/Blockchain/Jokerzon/contracts/Purchase.sol",
  "compiler": {
    "name": "solc",
    "version": "0.5.16+commit.9c3226ce.Emscripten.clang"
  },
  "schemaVersion": "3.3.3",
  "updatedAt": "2021-02-05T20:19:00.520Z",
  "devdoc": {
    "methods": {}
  },
  "userdoc": {
    "methods": {}
  }
}