{
  "contractName": "Purchase",
  "abi": [
    {
      "inputs": [
        {
          "internalType": "contract Product",
          "name": "_product",
          "type": "address"
        },
        {
          "internalType": "string",
          "name": "_buyerFullName",
          "type": "string"
        }
      ],
      "payable": false,
      "stateMutability": "nonpayable",
      "type": "constructor"
    },
    {
      "constant": true,
      "inputs": [],
      "name": "buyer",
      "outputs": [
        {
          "internalType": "address payable",
          "name": "",
          "type": "address"
        }
      ],
      "payable": false,
      "stateMutability": "view",
      "type": "function"
    },
    {
      "constant": true,
      "inputs": [],
      "name": "buyerFullName",
      "outputs": [
        {
          "internalType": "string",
          "name": "",
          "type": "string"
        }
      ],
      "payable": false,
      "stateMutability": "view",
      "type": "function"
    },
    {
      "constant": true,
      "inputs": [],
      "name": "product",
      "outputs": [
        {
          "internalType": "contract Product",
          "name": "",
          "type": "address"
        }
      ],
      "payable": false,
      "stateMutability": "view",
      "type": "function"
    },
    {
      "constant": true,
      "inputs": [],
      "name": "purchaseDate",
      "outputs": [
        {
          "internalType": "uint256",
          "name": "",
          "type": "uint256"
        }
      ],
      "payable": false,
      "stateMutability": "view",
      "type": "function"
    }
  ],
  "bytecode": "0x608060405234801561001057600080fd5b506040516109113803806109118339818101604052604081101561003357600080fd5b81019080805190602001909291908051604051939291908464010000000082111561005d57600080fd5b8382019150602082018581111561007357600080fd5b825186600182028301116401000000008211171561009057600080fd5b8083526020830192505050908051906020019080838360005b838110156100c45780820151818401526020810190506100a9565b50505050905090810190601f1680156100f15780820380516001836020036101000a031916815260200191505b50604052505050600015158273ffffffffffffffffffffffffffffffffffffffff1663e852e7416040518163ffffffff1660e01b815260040160206040518083038186803b15801561014257600080fd5b505afa158015610156573d6000803e3d6000fd5b505050506040513d602081101561016c57600080fd5b81019080805190602001909291905050501515146101f2576040517f08c379a00000000000000000000000000000000000000000000000000000000081526004018080602001828103825260148152602001807f50726f6475637420616c726561647920736f6c6400000000000000000000000081525060200191505060405180910390fd5b8173ffffffffffffffffffffffffffffffffffffffff1663a035b1fe6040518163ffffffff1660e01b815260040160206040518083038186803b15801561023857600080fd5b505afa15801561024c573d6000803e3d6000fd5b505050506040513d602081101561026257600080fd5b81019080805190602001909291905050503373ffffffffffffffffffffffffffffffffffffffff163110156102e2576040517f08c379a00000000000000000000000000000000000000000000000000000000081526004018080602001828103825260218152602001806108f06021913960400191505060405180910390fd5b816000806101000a81548173ffffffffffffffffffffffffffffffffffffffff021916908373ffffffffffffffffffffffffffffffffffffffff16021790555033600160006101000a81548173ffffffffffffffffffffffffffffffffffffffff021916908373ffffffffffffffffffffffffffffffffffffffff1602179055508060029080519060200190610379929190610592565b50426003819055506000809054906101000a900473ffffffffffffffffffffffffffffffffffffffff1673ffffffffffffffffffffffffffffffffffffffff16632db4a21f6040518163ffffffff1660e01b8152600401600060405180830381600087803b1580156103ea57600080fd5b505af11580156103fe573d6000803e3d6000fd5b505050506000809054906101000a900473ffffffffffffffffffffffffffffffffffffffff1673ffffffffffffffffffffffffffffffffffffffff16633d9b2ae66040518163ffffffff1660e01b815260040160206040518083038186803b15801561046957600080fd5b505afa15801561047d573d6000803e3d6000fd5b505050506040513d602081101561049357600080fd5b810190808051906020019092919050505073ffffffffffffffffffffffffffffffffffffffff166108fc6000809054906101000a900473ffffffffffffffffffffffffffffffffffffffff1673ffffffffffffffffffffffffffffffffffffffff1663a035b1fe6040518163ffffffff1660e01b815260040160206040518083038186803b15801561052457600080fd5b505afa158015610538573d6000803e3d6000fd5b505050506040513d602081101561054e57600080fd5b81019080805190602001909291905050509081150290604051600060405180830381858888f1935050505015801561058a573d6000803e3d6000fd5b505050610637565b828054600181600116156101000203166002900490600052602060002090601f016020900481019282601f106105d357805160ff1916838001178555610601565b82800160010185558215610601579182015b828111156106005782518255916020019190600101906105e5565b5b50905061060e9190610612565b5090565b61063491905b80821115610630576000816000905550600101610618565b5090565b90565b6102aa806106466000396000f3fe608060405234801561001057600080fd5b506004361061004c5760003560e01c80637150d8ae14610051578063a696eec21461009b578063bf9ce9521461011e578063fa2e4ad614610168575b600080fd5b610059610186565b604051808273ffffffffffffffffffffffffffffffffffffffff1673ffffffffffffffffffffffffffffffffffffffff16815260200191505060405180910390f35b6100a36101ac565b6040518080602001828103825283818151815260200191508051906020019080838360005b838110156100e35780820151818401526020810190506100c8565b50505050905090810190601f1680156101105780820380516001836020036101000a031916815260200191505b509250505060405180910390f35b61012661024a565b604051808273ffffffffffffffffffffffffffffffffffffffff1673ffffffffffffffffffffffffffffffffffffffff16815260200191505060405180910390f35b61017061026f565b6040518082815260200191505060405180910390f35b600160009054906101000a900473ffffffffffffffffffffffffffffffffffffffff1681565b60028054600181600116156101000203166002900480601f0160208091040260200160405190810160405280929190818152602001828054600181600116156101000203166002900480156102425780601f1061021757610100808354040283529160200191610242565b820191906000526020600020905b81548152906001019060200180831161022557829003601f168201915b505050505081565b6000809054906101000a900473ffffffffffffffffffffffffffffffffffffffff1681565b6003548156fea265627a7a72315820ab6eadb21e4be3b958877975e832ed426b6d1a8bd68c75c82cb6cd3105357f5164736f6c63430005100032596f75277665206e6f7420656e6f756768206d6f6e657920627275686868203a28",
  "source": "pragma solidity >=0.4.21 <0.7.5;\r\nimport \"./Product.sol\";\r\n\r\ncontract Purchase {\r\n    Product public product;\r\n    address payable public buyer;\r\n    string public buyerFullName;\r\n    uint256 public purchaseDate;\r\n\r\n    constructor(Product _product, string memory _buyerFullName) public {\r\n        //Checking if the item was already sold\r\n        require(_product.isSold() == false, \"Product already sold\");\r\n        //Checking if the buyer has enough money to commit for the TX\r\n        require(\r\n            msg.sender.balance >= _product.price(),\r\n            \"You've not enough money bruhhh :(\"\r\n        );\r\n        product = _product;\r\n        buyer = msg.sender;\r\n        buyerFullName = _buyerFullName;\r\n        purchaseDate = block.timestamp;\r\n\r\n        //The product sold for the buyer, then transfer money [Seller] -> [Buyer]\r\n        product.setIsSold();\r\n        product.sellerAddress().transfer(product.price());\r\n    }\r\n}\r\n",
  "sourcePath": "C:/Users/אור/Desktop/Blockchain/Jokerzon/contracts/Purchase.sol",
  "compiler": {
    "name": "solc",
    "version": "0.5.16+commit.9c3226ce.Emscripten.clang"
  },
  "schemaVersion": "3.3.3",
  "updatedAt": "2021-02-08T17:36:15.419Z",
  "networkType": "ethereum",
  "devdoc": {
    "methods": {}
  },
  "userdoc": {
    "methods": {}
  }
}