{
  "contractName": "Purchase",
  "abi": [
    {
      "inputs": [
        {
          "internalType": "contract Product",
          "name": "_product",
          "type": "address"
        }
      ],
      "payable": false,
      "stateMutability": "nonpayable",
      "type": "constructor"
    },
    {
      "constant": true,
      "inputs": [],
      "name": "buyer",
      "outputs": [
        {
          "internalType": "address payable",
          "name": "",
          "type": "address"
        }
      ],
      "payable": false,
      "stateMutability": "view",
      "type": "function"
    },
    {
      "constant": true,
      "inputs": [],
      "name": "product",
      "outputs": [
        {
          "internalType": "contract Product",
          "name": "",
          "type": "address"
        }
      ],
      "payable": false,
      "stateMutability": "view",
      "type": "function"
    },
    {
      "constant": false,
      "inputs": [],
      "name": "commitPurchase",
      "outputs": [],
      "payable": false,
      "stateMutability": "nonpayable",
      "type": "function"
    },
    {
      "constant": true,
      "inputs": [],
      "name": "returnData",
      "outputs": [
        {
          "internalType": "address payable",
          "name": "",
          "type": "address"
        },
        {
          "internalType": "contract Product",
          "name": "",
          "type": "address"
        }
      ],
      "payable": false,
      "stateMutability": "view",
      "type": "function"
    }
  ],
  "bytecode": "0x608060405234801561001057600080fd5b5060405161049c38038061049c8339818101604052602081101561003357600080fd5b8101908080519060200190929190505050806000806101000a81548173ffffffffffffffffffffffffffffffffffffffff021916908373ffffffffffffffffffffffffffffffffffffffff16021790555033600160006101000a81548173ffffffffffffffffffffffffffffffffffffffff021916908373ffffffffffffffffffffffffffffffffffffffff160217905550506103c7806100d56000396000f3fe608060405234801561001057600080fd5b506004361061004c5760003560e01c806320992bfa146100515780637150d8ae1461005b578063bf9ce952146100a5578063ebddbaf6146100ef575b600080fd5b61005961016c565b005b6100636102f7565b604051808273ffffffffffffffffffffffffffffffffffffffff1673ffffffffffffffffffffffffffffffffffffffff16815260200191505060405180910390f35b6100ad61031d565b604051808273ffffffffffffffffffffffffffffffffffffffff1673ffffffffffffffffffffffffffffffffffffffff16815260200191505060405180910390f35b6100f7610342565b604051808373ffffffffffffffffffffffffffffffffffffffff1673ffffffffffffffffffffffffffffffffffffffff1681526020018273ffffffffffffffffffffffffffffffffffffffff1673ffffffffffffffffffffffffffffffffffffffff1681526020019250505060405180910390f35b6000809054906101000a900473ffffffffffffffffffffffffffffffffffffffff1673ffffffffffffffffffffffffffffffffffffffff166384b09e866040518163ffffffff1660e01b815260040160206040518083038186803b1580156101d357600080fd5b505afa1580156101e7573d6000803e3d6000fd5b505050506040513d60208110156101fd57600080fd5b810190808051906020019092919050505073ffffffffffffffffffffffffffffffffffffffff166108fc6000809054906101000a900473ffffffffffffffffffffffffffffffffffffffff1673ffffffffffffffffffffffffffffffffffffffff166398d5fdca6040518163ffffffff1660e01b815260040160206040518083038186803b15801561028e57600080fd5b505afa1580156102a2573d6000803e3d6000fd5b505050506040513d60208110156102b857600080fd5b81019080805190602001909291905050509081150290604051600060405180830381858888f193505050501580156102f4573d6000803e3d6000fd5b50565b600160009054906101000a900473ffffffffffffffffffffffffffffffffffffffff1681565b6000809054906101000a900473ffffffffffffffffffffffffffffffffffffffff1681565b600080600160009054906101000a900473ffffffffffffffffffffffffffffffffffffffff166000809054906101000a900473ffffffffffffffffffffffffffffffffffffffff1691509150909156fea265627a7a7231582066b91cc038354672a270bd6cf549a1900222cbc7d295e43d6f0ee31bf41f5b8564736f6c63430005100032",
  "source": "pragma solidity >=0.4.21 <0.7.5;\r\nimport \"./Product.sol\";\r\n\r\ncontract Purchase {\r\n    Product public product;\r\n    address payable public buyer;\r\n\r\n    constructor(Product _product) public {\r\n        product = _product;\r\n        buyer = msg.sender;\r\n    }\r\n\r\n    //Transfer the money between the seller and the buyer\r\n    function commitPurchase() public {\r\n        product.getSellerAddress().transfer(product.getPrice());\r\n    }\r\n\r\n    function returnData() public view returns (address payable, Product) {\r\n        return (buyer, product);\r\n    }\r\n}\r\n",
  "sourcePath": "C:/Users/אור/Desktop/Blockchain/Jokerzon/contracts/Purchase.sol",
  "compiler": {
    "name": "solc",
    "version": "0.5.16+commit.9c3226ce.Emscripten.clang"
  },
  "schemaVersion": "3.3.3",
  "updatedAt": "2021-02-04T15:04:50.765Z",
  "devdoc": {
    "methods": {}
  },
  "userdoc": {
    "methods": {}
  }
}